:100000000C94E3000C94F0160C9417170C940B014D
:100010000C940B010C940B010C9482010C940B01B9
:100020000C940B010C940B010C940B010C940B0120
:100030000C940B010C940B010C940B010C940B0110
:100040000C943F170C940B010C94151A0C94471A3E
:100050000C940B010C940B010C940B010C940B01F0
:100060000C940B010C940B01005EBCE2613FDD833C
:10007000C29C7E20A3FD1F419DC3217FFCA2401E88
:100080005F01E3BD3E6082DC237D9FC1421CFEA078
:10009000E1BF5D0380DE3C62BEE0025CDF81633D68
:1000A0007C22C09E1D43A1FF4618FAA427799BC558
:1000B00084DA3866E5BB5907DB856739BAE4065848
:1000C0001947A5FB7826C49A653BD987045AB8E638
:1000D000A7F91B45C6987A24F8A6441A99C7257B28
:1000E0003A6486D85B05E7B98CD2306EEDB3510F18
:1000F0004E10F2AC2F7193CD114FADF3702ECC9208
:10010000D38D6F31B2EC0E50AFF1134DCE90722CF7
:100110006D33D18F0C52B0EE326C8ED0530DEFB1E7
:10012000F0AE4C1291CF2D73CA947628ABF51749D7
:100130000856B4EA6937D58B5709EBB536688AD4C7
:1001400095CB2977F4AA4816E9B7550B88D6346AB7
:100150002B7597C94A14F6A8742AC896154BA9F7A7
:10016000B6E80A54D7896B35000000080002010088
:100170000003040700000000000000000102040862
:100180001020408001020408102001020408102001
:10019000040404040404040402020202020203032D
:1001A00003030303000000002300260029000000D1
:1001B0000000250028002B0000000000240027007C
:1001C0002A00FE0D771A11241FBECFEFD8E0DEBF44
:1001D000CDBF11E0A0E0B1E0E8E1FCE302C0059092
:1001E0000D92AE34B107D9F722E0AEE4B1E001C020
:1001F0001D92A73AB207E1F710E0C3EED0E004C0C9
:100200002197FE010E944B1DC13ED107C9F70E94F4
:10021000E1100C940A1E0C940000EF92FF920F93D1
:10022000FC018091D6018183628346830583277018
:100230008481807F282B88E0E89E700111242E297C
:100240002F7E2483CF010F91FF90EF90089580912E
:10025000E30184608093E3018091E40180788093DE
:10026000E401E091D401F091D501309709F00994AF
:10027000089580911F010E94DE1680911E018F3F1C
:1002800021F080911E010E94DE1680911F01809353
:100290002001089580911E010E94DE1680911F01A9
:1002A0008F3F21F080911F010E94DE1680911E0178
:1002B000809320010895E3EEF1E08081877F8F7EB7
:1002C00080831092DF011092E0011092E101109200
:1002D000E20143E050E060E070E086ED91E00C94D4
:1002E000D81D8FE691E00E9413136CE08FE691E039
:1002F0000C94A11283E00E943A1860E08FE691E02E
:100300000C9479131F920F920FB60F9211240F9035
:100310000FBE0F901F90189520917A002F77209391
:100320007A00309160008A309105B1F083FD02C0FF
:1003300028E001C028E28770822B98E10FB6F8947C
:10034000A895909360000FBE80936000809160003C
:100350008065809360000BC00FB6F894A8958091DB
:100360006000886180936000109260000FBE83B7C8
:10037000817F846083BFF89483B7816083BF85B732
:10038000806685BF8F7D85BF7894889583B78E7F83
:1003900083BFF894A8958091600088618093600085
:1003A00030936000789480917A00806880937A001E
:1003B0000895FC0185818F50833010F080E008950E
:1003C00081E008952091FF01222399F04FB7F8941E
:1003D0002091FF01213059F42DB32093FD013DB34D
:1003E0002091FE01209523232DBB4FBF02C04093D7
:1003F000FD018CBD9DBD08958EBD00000DB407FEAE
:10040000FDCF8EB508958091FF01882361F09FB7DD
:10041000F8942091FF018091FD01213019F48DBBEA
:100420009FBF08958FBF0895AF92BF92DF92EF9262
:10043000FF920F931F93CF93DF93C82F7B01142F4D
:10044000D22E80E590E00E94E2012A988AE090E0B6
:100450000E94F6178C2F0E94FC01082FE701112340
:10046000B9F0DD2051F08FEF0E94FC01082FE1145C
:10047000F10461F08883219609C05E018FEFA81A0C
:10048000B80A88810E94FC01082FE5011150E7CFCE
:100490002A9A0E9403028AE090E00E94F617802FB9
:1004A000DF91CF911F910F91FF90EF90DF90BF9060
:1004B000AF900895CF93DF931F92CDB7DEB76983D6
:1004C00020E041E0BE016F5F7F4F0E9414020F9059
:1004D000DF91CF91089529986CE080E20C945A0244
:1004E0008091E401982F9077903759F0982F92954A
:1004F0009F709F5F97709295907F8F78892B8093E4
:10050000E4018091E3018B7F8F7E8093E30180E0A3
:1005100090E0892B21F087E690E00E9400000C9487
:100520006B026FE080E20E945A02609100016F3F0F
:1005300019F08AE20E945A02299A089521E041E0C6
:1005400060E070E00C941402CF9386E00E949E025B
:10055000C82F85E00E949E0221E08C3409F020E043
:1005600081E0C53209F080E08223CF91089520E038
:1005700040E060E070E00C941402FF920F931F9330
:10058000CF93DF931F92CDB7DEB7F82E8B0129985A
:1005900082E890E049830E94F6176EE080E20E94B4
:1005A0005A0284E690E00E94F6176F2D8AE20E94BC
:1005B0005A026F2D80E30E945A0281EE0E94B70218
:1005C00049818FEFF81611F080EA01C080EB20E03E
:1005D000B8010E941402299A00E010E08FEF0E94F7
:1005E000B702F82E807319F401501109B9F7299850
:1005F00060E387E20E945A02F4FE03C081EE0E948B
:10060000B7020E949102F5FA882780F90F90DF91D6
:10061000CF911F910F91FF9008950F931F93CF9348
:100620008C0121E041E060E070E080E60E9414026D
:10063000C82F813220F082EE0E94B702C0E021E094
:100640004C2FB80181E60E94140260E487E20E9408
:100650005A028C2FCF911F910F910895CF93219A19
:10066000229A0E94F51029982A9A6EE080E20E9450
:100670005A0265E070E080E090E00E94BA1763E003
:1006800083E20E945A026FE584E20E945A026CE4FF
:1006900085E20E945A0265E286E20E945A0263E7FE
:1006A00080E50E945A0266E08DE30E945A020E9491
:1006B000A402C82F882371F162E082E20E945A02EC
:1006C00060E081E20E945A0263E08CE30E945A02D9
:1006D0008FEF8093010120E045E061E071E08BE263
:1006E0000E94140220E045E061E071E08AE20E948D
:1006F000140220E045E061E071E080E30E94140212
:1007000082EE0E94B70281EE0E94B70260E787E2A4
:100710000E945A028C2FCF910895CF93DF93EC0162
:100720008CB58B838DB58C838D819E810E94E20177
:1007300060E08881DF91CF910C94BF18CF93DF9355
:10074000EC0161E088810E94BF180E9403028B8146
:100750008CBD8C818DBDDF91CF9108950F931F9338
:10076000CF93DF938C010E948D038FE90E94FC01DF
:1007700080E00E94FC01C82FD0E0DC2FCC2780E075
:100780000E94FC01C82BC8010E949E03CE01DF918C
:10079000CF911F910F9108951F93CF93DF93EC0199
:1007A0000E948D0385E00E94FC0180E00E94FC0114
:1007B000182FCE010E949E03812FDF91CF911F91B0
:1007C00008950E94CC03817008951F93CF93DF9307
:1007D000EC01162F442339F040E066E00E94E50367
:1007E000CE010E949E03CE010E94E1038111FBCF46
:1007F000CE010E948D03812FDF91CF911F910C9428
:10080000FC01EF92FF920F931F93CF93DF931F9200
:10081000CDB7DEB77C01142F062F40E063E059838B
:100820000E94E503802F0E94FC015981852F0E94C0
:10083000FC01812F0E94FC0180E00E94FC01182F26
:10084000C7010E949E03812F0F90DF91CF911F91CE
:100850000F91FF90EF9008952F923F924F925F92E9
:100860006F927F928F929F92AF92BF92CF92DF92C0
:10087000EF92FF920F931F93CF93DF936C012A01A6
:100880003B015901CA019927C0E0D1E0C81BD90B2F
:10089000E12CF12C0115110579F10C171D0708F455
:1008A000E80141E062E0C6010E94E503862D0E9456
:1008B000FC01852D0E94FC01842D0E94FC01150184
:1008C0002E0C3F1C4101F40181914F010E94FC015B
:1008D000C401821993098C179D07A8F3C6010E94D1
:1008E0009E034C0E5D1E611C711CEC0EFD1E0C1B4C
:1008F0001D0BC0E0D1E0CECFDF91CF911F910F91C2
:10090000FF90EF90DF90CF90BF90AF909F908F902F
:100910007F906F905F904F903F902F900895EF924F
:10092000FF920F931F93CF93DF931F92CDB7DEB744
:100930007C01142F062F41E062E559830E94E503F4
:10094000802F0E94FC015981852F0E94FC01812F7C
:100950000E94FC01C7010F90DF91CF911F910F9171
:10096000FF90EF900C949E03CF93DF93EC0140E057
:100970006BEA0E94E503CE01DF91CF910C949E03B8
:10098000CF93DF93EC018CB58B838DB58C8361E0C5
:1009900088810E94831880E58D8381E08E83CE015B
:1009A0000E949E03CE010E94B40489819A81892B02
:1009B00051F0CE010E94AE0329813A81821793073C
:1009C00011F080E00CC041E061E0CE010E94E5033F
:1009D00080E00E94FC01CE010E949E0381E0DF9135
:1009E000CF91089548E050E06BE171E08EEE91E028
:1009F0000C94D81D0F931F93CF93DF9300E010E06A
:100A0000CFEFDFEF8091F2019091F30124E0880FA6
:100A1000991F2A95E1F708171907D8F4A801465F2E
:100A20005F4F60E070E086EF91E00E940104C8270C
:100A300088E09E01369527959C2FE90190FF04C020
:100A400091E0C92790EAD927815099F70F5F1F4F8E
:100A5000D9CF81E02091F4013091F501C217D3077D
:100A600009F080E0DF91CF911F910F910895FF92DF
:100A70000F931F93CF93DF93CDB7DEB72A970FB6AF
:100A8000F894DEBF0FBECDBF8091B801813009F070
:100A900047C048E050E06AEB71E08EEE91E00E94C2
:100AA000961D892B09F4E8C080E090E0892B21F0A5
:100AB00080E190E00E94000088E0EAEBF1E0AEEE19
:100AC000B1E001900D928A95E1F786EF91E00E94E6
:100AD000C004F82E81110BC080E090E0892B21F03A
:100AE00081E790E00E9400001092ED01C7C040E055
:100AF00050E0BA0186EF91E00E948F0486EF91E00A
:100B00000E94E1038111FACF8091F2019091F301EB
:100B10009093E8018093E70181E08093ED01A0C00C
:100B2000833009F0A9C0F090ED01FF2009F4A6C0C0
:100B30008091E7019091E80101972091BE013091E9
:100B4000BF012817390751F080E090E0892B09F4A4
:100B500097C082E190E00E94000092C080E090E0A7
:100B6000892B21F081E190E00E9400004091E70193
:100B70005091E80134E0440F551F3A95E1F7465093
:100B8000510960E070E000E110E020EC31E086EF18
:100B900091E00E942C0486EF91E00E94E103811114
:100BA000FACF8091E7019091E80101979093E801D5
:100BB0008093E701892B09F053C01092ED010E9448
:100BC000FA04882309F444C048E050E06BE171E086
:100BD0008EEE91E00E94E81D8091F2019091F30168
:100BE00024E0880F991F2A95E1F79E012F5F3F4F60
:100BF0004AE0F90111924A95E9F746E449834CE449
:100C00004A8348E54B8349E44C834DE44D8347E4F4
:100C10004E834AE34F834A87988789870AE010E02A
:100C200040E050E0BA0186EF91E00E942C0486EF8C
:100C300091E00E94E1038111FACF98E088E10FB6BC
:100C4000F894A895809360000FBE90936000FFCF4A
:100C500080E090E0892B21F083E790E00E94000083
:100C600086E08093E6011092E9011092EA01109269
:100C7000EB011092EC0104C0F12C02C0FF24F394AC
:100C80008F2D2A960FB6F894DEBF0FBECDBFDF9131
:100C9000CF911F910F91FF9008959C018091D901F0
:100CA0009091DA018217930751F09091E3019F71BF
:100CB0009093E3013093DA012093D90105C080912C
:100CC000E301805E8093E301E091D901F091DA01C4
:100CD0000190F081E02D309709F009950E94891765
:100CE0006093DB017093DC018093DD019093DE0162
:100CF00008958091E4018F70863020F086E191E0C4
:100D00000C944D0608950F931F930E94891700912C
:100D1000DB011091DC012091DD013091DE01601BCF
:100D2000710B820B930B1F910F9108950E94830604
:100D3000613D77408105910520F48091E30181FFB9
:100D400008958091D7018F3F81F08091E3018E7FDC
:100D50008093E30180E090E0892B21F085E090E032
:100D60000E94000082E191E011C08091E301803691
:100D700018F486E191E00AC080E090E0892B21F030
:100D800088E690E00E94000086E091E00C944D0619
:100D90008091D6018F3F59F080E090E0892B21F0BF
:100DA00087E090E00E9400008EE091E018C00E9471
:100DB0008306613D77408105910598F08091E301BC
:100DC000803618F482E191E00AC080E090E0892B3F
:100DD00021F089E690E00E94000086E091E00C940A
:100DE0004D0608958091E5018F3FA1F00E9489177B
:100DF0006093DF017093E0018093E1019093E20141
:100E00008091E5019091D80189138093D8018AE0FF
:100E100091E01BC00E948306613D774081059105EA
:100E2000B0F08091E301803618F48EE091E00DC0BF
:100E3000877F8093E30180E090E0892B21F08AE6B0
:100E400090E00E94000086E191E00C944D06089528
:100E5000E091D901F091DA010280F381E02D309721
:100E600009F0099408959091E401907781E090371A
:100E700009F080E00895CF92DF92EF92FF920E94F6
:100E800083066B017C010E943307811105C080E15C
:100E900097E2A0E0B0E004C080E69AEEA0E0B0E007
:100EA0008C159D05AE05BF0540F48AE191E0FF90E9
:100EB000EF90DF90CF900C944D06FF90EF90DF9075
:100EC000CF900895E3EEF1E081818F7881831092D5
:100ED000DA011092D9018AE191E00C944D061F933A
:100EE000CF93DF9300D01F92CDB7DEB7182F80913C
:100EF000D601FB018083438142FD05C0469546959E
:100F00004695495F01C040E280E090E0892B51F0B6
:100F100080E090E049836A837B830E9400007B81AC
:100F20006A814981413208F040E2812F0E94BD026E
:100F300091E01F3F09F090E0892B0F900F900F90E8
:100F4000DF91CF911F910895CF93FC0122813091C1
:100F5000E30130FF03C02F3F51F505C02F3F19F0CB
:100F6000C091D70101C0CFEFBC018C2F0E946F0749
:100F70009091D701C9131CC0811112C080E090E08C
:100F8000892B21F085E690E00E9400008091E40129
:100F900091E0980F9F70807F892B8093E40107C0B8
:100FA0008091E401807F8093E40181E001C080E0D2
:100FB000CF9108952091E30122FD0C94A40780E0D5
:100FC00008958F3F51F08093000163E082E20E9418
:100FD0005A0261E081E20E945A020C949102CF937E
:100FE000DF931F92CDB7DEB7682F8FEF860F8E3F4E
:100FF00068F46093D601862F69830E94E1076981B6
:1010000080E090E00E94F81D81E00CC080E090E05C
:10101000892B21F08EE690E00E9400008FEF8093F4
:10102000D60180E00F90DF91CF9108950E942E03AA
:1010300081110BC080E090E0892B21F087E690E0E1
:101040000E94000086E091E00FC08091E301806182
:101050008093E3018091D6018F3F21F00E94EF073A
:10106000882381F386E191E00C944D06CF93DF93C2
:10107000FC01108211821282148215821682DC0118
:1010800017968AE1ED0119928A95E9F782E0838348
:10109000DF91CF910895FC01248122952695277038
:1010A000213011F487810895211104C007960E9410
:1010B000511D089580E008950E944B0891E0811130
:1010C00001C090E0892F0895FC0194819295969536
:1010D0009770953029F46781708581859285089590
:1010E000911104C0CF0107960C946F1D60E070E071
:1010F000CB010895CF93DF93EC016115710521F0C9
:101100004A3118F049E101C040E050E0CA0123E053
:10111000880F991F2A95E1F79B819770892B8B8304
:101120008C818F71806C8C83CE0107960E94A31DE9
:10113000CE01DF91CF9108950F931F93CF93DF934B
:10114000EC016115710561F0FB0101900020E9F7E8
:101150003197E61BF70BE931F10518F0E9E101C021
:10116000E0E00E2F10E0C80123E0880F991F2A95B8
:10117000E1F79B819770892B8B838C818F718C8396
:10118000EE2329F0A801CE0107960E94AC1DFE01B6
:10119000E00FF11F1782CE01DF91CF911F910F91C8
:1011A0000895EF920F9380E090E0892B21F084E086
:1011B00090E00E9400008091E301897F816080932C
:1011C000E3018FEF8093D8018093D701E12C07E0F2
:1011D00023E04FEF6FEF82E991E00E940D016FE293
:1011E00071E00E949C080F91EF900C94A407EF927D
:1011F0000F938091D6018F3FC9F480E090E0892B56
:1012000021F086E090E00E940000E12C03E023E062
:101210004FEF60E082E991E00E940D016FE271E022
:101220000E949C080F91EF900C94A4070F91EF90EF
:101230000895FC01838187708860838384818F7126
:10124000806284836783CF010895EF920F9380E0DB
:1012500090E0892B21F088E090E00E9400008FEF61
:101260008093E5018091E30188608093E301E12CA4
:1012700008E123E04FEF60E082E991E00E940D0178
:1012800061E00E9419090F91EF900C94A407FC01F2
:1012900083818770886283838481806E848347839F
:1012A0005087618772872387CF010895FC0184816D
:1012B0008F71806A84838381877080628383478390
:1012C000508761877287CF0108950C94DA07CF9217
:1012D000DF92EF92FF920F931F93CF93DF9300D093
:1012E00000D000D0CDB7DEB70E9489172091ED0164
:1012F000222309F453C00091E9011091EA012091E1
:10130000EB013091EC016B017C01C01AD10AE20AB9
:10131000F30A45EFC41641E0D406E104F104F0F10C
:101320002091E60121110BC080E090E0892B21F093
:1013300082E790E00E9400001092ED012FC0215042
:101340002093E6016093E9017093EA018093EB0139
:101350009093EC018091EE019091EF019A83898343
:101360008091F0019091F1019C838B838091E70142
:101370009091E80101979E838D83E12C02E024E0A7
:101380004FEF60E082E991E00E940D0146E0BE016E
:101390006F5F7F4F0E947A080E94650926960FB6FC
:1013A000F894DEBF0FBECDBFDF91CF911F910F919B
:1013B000FF90EF90DF90CF900895EF920F93CF932F
:1013C000DF93C2E9D1E08B81877080658B838C814C
:1013D0008871846C8C8388E0EEEEF1E0A9E9B1E0DD
:1013E00001900D928A95E1F783E090E0988B8F87CA
:1013F0001092ED01E12C00E024E04FEF60E0CE011F
:101400000E940D01DF91CF910F91EF900C9465092F
:10141000FC01962F8091D60181836481607F262F05
:10142000216088E0989FB0011124622B6483809131
:10143000910180FF03C0CF010C94DA0780E008958A
:10144000EF920F93CF93C82FE62E00E023E04FEFEB
:1014500060E082E991E00E940D016C2F0E94190961
:10146000CF910F91EF900C94DA078F929F92AF92E9
:10147000BF92EF920F93E82E0E9483064B015C010E
:1014800006E123E04FEF60E082E991E00E940D0168
:10149000B501A4010E9456090F91EF90BF90AF9043
:1014A0009F908F900C94DA07EF920F93CF93DF9376
:1014B0008F3F11F0EA0102C0C6E2D1E0E22E062F12
:1014C00020E0482F60E082E991E00E940D01BE011A
:1014D0000E949C08DF91CF910F91EF900C94DA0756
:1014E000AF92BF92CF92DF92EF920F93CF93DF93A1
:1014F0005C016B01D42F892B81F0E42E0BE023E0FB
:101500004FEF60E082E991E00E940D01B5010E9479
:101510009C080E94DA07C82F01C0C1E0C114D104A1
:1015200079F0ED2E0CE023E04FEF60E082E991E0EE
:101530000E940D01B6010E949C080E94DA07C82390
:101540008C2FDF91CF910F91EF90DF90CF90BF90D4
:10155000AF90089540E06CE271E080E391E00E947A
:10156000700A20E04FE251E066E080E00C94540AFB
:10157000A8950C943E170E94B80A0C947B0D8F928C
:101580009F92AF92BF92CF92DF92EF92FF926B0148
:101590007C010E9489174B015C010E948917DC01C4
:1015A000CB0188199909AA09BB098C159D05AE05BF
:1015B000BF0518F40E94BB0AF0CFFF90EF90DF90B8
:1015C000CF90BF90AF909F908F9008958F929F92F1
:1015D000AF92BF92CF92DF92EF92FF920F931F9341
:1015E000CF93DF934B015C01042FD22F0E94891708
:1015F0006B017C0181E0D11180E08093B801C0E0F3
:1016000010E00E948917DC01CB018C199D09AE09FD
:10161000BF0988159905AA05BB0590F4C11110C032
:101620000E94BB0AE091B701E770F0E0E017F10714
:1016300041F7C1E08091B8018D1719F3C0E0E1CF07
:101640008C2FDF91CF911F910F91FF90EF90DF9042
:10165000CF90BF90AF909F908F900895EF920F938F
:101660001F93CF93DF93EC01162FE12C0FE023E0C3
:101670004FEF0E940D016FE271E00E949C088B8188
:10168000877080618B838C818F71806C8C8381E00B
:101690008F831886CE010E94DA0711110DC02FE04A
:1016A00043E060ED77E080E090E0DF91CF911F9123
:1016B0000F91EF900C94E60ADF91CF911F910F915B
:1016C000EF900895EF920F93CF9380E090E0892BF5
:1016D00021F089E090E00E940000809191018160FA
:1016E00080939101C4E0E12C0AE123E04FEF60E038
:1016F00082E991E00E940D0162E00E9419090E94B6
:1017000065092BE143E060ED77E080E090E00E9426
:10171000E60A811102C0C15031F7CF910F91EF90CD
:101720000895EF920F93CF9380E090E0892B21F002
:101730008CE090E00E9400000E94DD0960E082E9F8
:1017400091E00E942E0B20E04FE251E061E18FEF2B
:101750000E94540AC091D701E12C06E023E04FEF2C
:1017600060E082E991E00E940D016C2F0E9419094E
:101770000E94650926E043E060ED77E080E090E0BC
:101780000E94E60A8AEA9AE0892B29F0CF910F910C
:10179000EF900C94AA0ACF910F91EF900895809149
:1017A000910181FD09C00E94910B0E94620B809102
:1017B000910182608093910108959091B801809188
:1017C000B40181115EC09D3099F480E090E0892BD6
:1017D00021F08BE090E00E94000098E088E10FB6D5
:1017E000F894A895809360000FBE90936000FFCF9F
:1017F0009B3199F483EB91E00E945C0890919101F8
:1018000080FB90F99093910180E090E0892B89F121
:101810008AE090E00E9400002CC0963099F49091EC
:10182000BA0181E0992319F09D3409F080E080939A
:10183000900141E050E063E071E080E991E00E94B6
:10184000E81D17C0933119F40E94910B12C0923118
:1018500021F480E00E94350A0CC0913061F480E0F0
:1018600090E0892B31F083EB91E00E9464080E94A4
:10187000000081E008959A30E1F381E09C3121F489
:1018800004C081E09A3109F080E00895EF920F934F
:101890001F93CF93DF9380E090E0892B21F081E0CC
:1018A00090E00E94000083EB91E00E940D032091E4
:1018B000B601922F9695969596959A3108F099E1F2
:1018C00022FD03C057E0590F01C050E26091B701FB
:1018D000C091B801D091B4014091B3013091B501EC
:1018E000851741F080E090E0892B09F4E5C08CE693
:1018F00090E00BC0822F8370823071F080E090E026
:10190000892B09F4D9C08DE690E0DF91CF911F912A
:101910000F91EF900C940000162F17708091E40146
:1019200080688093E4018091D601381393C0892F99
:1019300090E0AC0173E0440F551F7A95E1F72770F2
:10194000242B2093B601FC01ED54FE4F178263FF58
:1019500017C081E2E3EBF1E0A2E9B1E001900D9262
:101960008A95E1F780919601877F80618093960147
:1019700030939301D093940182E991E00E94DA07B9
:101980008091B70184FD59C0133009F050C083EB3A
:1019900091E00E94D90181118FC0C43059F483EBCA
:1019A00091E00E944B08DF91CF911F910F91EF9032
:1019B0000C94EF07C830D9F4C091E301C0FF7CC09C
:1019C00083EB91E00E944B088F3F09F475C08F5F55
:1019D0008F3F09F471C09091D801891708F06CC04D
:1019E000C1FD6AC08093D801D093D70165C0C831CA
:1019F00059F4E12C09E123E04FEF6D2F82E991E0EA
:101A00000E940D0161E04BC0C93171F48091E30186
:101A100083FF52C0877F8093E30183EB91E00E94B4
:101A20004B088093E50148C00E94DD0B04C01430D0
:101A300021F40E94370581113FC080E090E0892B9E
:101A4000D9F183EB91E0DF91CF911F910F91EF904E
:101A50000C9400003F3F81F5133051F58091E30174
:101A600082FF02C0C73041F1C83031F1C43121F5E5
:101A70008091D701481320C00E948917737088276E
:101A800099270E94BA17C091D701E12C05E123E004
:101A90004FEF6D2F82E991E00E940D016C2F0E94A3
:101AA0001909DF91CF911F910F91EF900C94A4072A
:101AB0008091D701481709F2DF91CF911F910F91C3
:101AC000EF900895CF938091E30184FF12C0C6E0A8
:101AD00087E10E949E0280FD05C0C15019F00E945E
:101AE000460CF6CF8091E30182FF03C0CF910C94A6
:101AF0006709CF9108950E9428070C94620D8F9278
:101B00009F92AF92BF92CF92DF92EF92FF92CF93CC
:101B1000DF931F92CDB7DEB76B017C010E9489175E
:101B20004B015C010E948917DC01CB0188199909DE
:101B3000AA09BB098C159D05AE05BF0528F0C11487
:101B4000D104E104F10471F40E947B0D8091E30162
:101B500082FB882780F989830E94B80A89818823BB
:101B600009F301C080E00F90DF91CF91FF90EF90DB
:101B7000DF90CF90BF90AF909F908F900895A895E1
:101B800080E090E0892B11F00E94000026E040E008
:101B900052EC61E070E08AE092E00E94B519809119
:101BA00091018D7F8093910181E791E0892B11F064
:101BB0000E94710141E050E063E071E080E991E052
:101BC0000E94D81D0E94F2046FEF81E090E00E9415
:101BD000F81D0E9462078FEC9BE09093D5018093E3
:101BE000D40160E070E0CB010E947F0D8AE791E0B4
:101BF000892B11F00E947A01A8950895E6EFF1E093
:101C000080E5858381E0868388E0808385E69FE1A7
:101C10009283818383EB91E00E94360882E991E010
:101C20000E94360864E082E891E00E94F41562E8C0
:101C300071E08FE691E00E942C118EE491E00E9409
:101C40003608EEE4F1E01682158208958F929F9295
:101C5000AF92BF92CF92DF92EF92FF924B015C0165
:101C60008AE092E00E944C19809120018F3F91F40C
:101C700080E488168FE19806A104B10458F089E049
:101C800090E00E948C0180E4881A8FE1980AA108F4
:101C9000B108EACF75016401809120018F3F41F4C2
:101CA00080EA88168FE09806A104B10408F068C0A5
:101CB000809120018F3F41F480EDC81687E0D8065F
:101CC000E104F10408F069C0809120018F3F41F4E4
:101CD00088EEC81683E0D806E104F10408F068C075
:101CE000809120018F3F41F484EFC81681E0D8062F
:101CF000E104F10408F067C0809120018F3F39F4BE
:101D00008AEFC816D104E104F10408F067C080919D
:101D100020018F3F39F48DE7C816D104E104F104A6
:101D200008F066C0809120018F3F39F480E4C81626
:101D3000D104E104F10408F065C0809120018F3FD7
:101D400039F480E2C816D104E104F10408F064C05B
:101D5000809120018F3F09F069C080E1C816D1044D
:101D6000E104F10408F462C080E090E0FF90EF909D
:101D7000DF90CF90BF90AF909F908F900C948C018C
:101D800088E090E00E948C017501640180EAC81A25
:101D90008FE0D80AE108F1088BCF87E090E00E943D
:101DA0008C0180EDC81A87E0D80AE108F1088CCFD1
:101DB00086E090E00E948C0188EEC81A83E0D80A81
:101DC000E108F1088DCF85E090E00E948C0184EF5E
:101DD000C81A81E0D80AE108F1088ECF84E090E0CB
:101DE0000E948C018AEFC81AD108E108F1088FCF50
:101DF00083E090E00E948C0188E7C81AD108E108CE
:101E0000F10890CF82E090E00E948C018CE3C81A28
:101E1000D108E108F10891CF81E090E00E948C01A7
:101E20008EE1C81AD108E108F10892CFFF90EF9037
:101E3000DF90CF90BF90AF909F908F900895AF921A
:101E4000BF92CF92DF92EF92FF920F931F93CF93A7
:101E5000DF931F92CDB7DEB7B82EA42E67017801AD
:101E6000F89480931F0140931E018FEFB81649F03C
:101E7000462F50E069E371E08B2D29830E94BE1646
:101E800029818FEFA81639F0422F50E06AE471E003
:101E90008A2D0E94BE16C114D104E104F10429F078
:101EA000C701B6010E94260E04C08AE090E00E949D
:101EB0008C018FEFB81619F08B2D0E94DE168FEF74
:101EC000A81619F08A2D0E94DE16809120018F3FFE
:101ED00019F08091200101C08FEF9FEF90932001B6
:101EE0000F90DF91CF911F910F91FF90EF90DF90B6
:101EF000CF90BF90AF900895EF92FF920F931F93F2
:101F000079018A0120E04FEF0E941F0F1F910F916E
:101F1000FF90EF9008952F923F924F925F926F92B1
:101F20007F928F929F92AF92BF92CF92DF92EF9269
:101F3000FF920F931F93CF93DF9300D000D0CDB7C4
:101F4000DEB74B015C01142F322ED02E2E2C809147
:101F5000ED01882329F0C501B4010E94BF0A86C0A3
:101F60008091E30182FD2FC00E9489172B013C0163
:101F700080E090E0DC012091E30122FD17C088158C
:101F80009905AA05BB0508F071C0803127E29207C8
:101F9000A105B10588F40E94BB0A0E948917DC01E3
:101FA000CB0184199509A609B709E5CF88159905CC
:101FB000AA05BB0508F05AC0A5019401281B390BDE
:101FC0004A0B5B0B02C0A5019401112389F080E04C
:101FD00029833A834B835C830E94350A64EF71E066
:101FE00080E090E00E94BF0A5C814B813A812981A8
:101FF00029833A834B835C830E946B0280E090E0EC
:1020000029813A814B815C81892B41F08EE090E0FF
:102010000E9400005C814B813A8129818FEF381644
:1020200089F0281649F079018A012C2D422D6D2D59
:10203000832D0E941F0F04C06D2D832D0E947C0FE5
:10204000182F0AC08FEF281206C0CA01B9010E94DA
:10205000260E1FEF01C01EEF80E090E0892B21F0DB
:102060008FE090E00E940000812F01C08EEF0F9062
:102070000F900F900F90DF91CF911F910F91FF90D4
:10208000EF90DF90CF90BF90AF909F908F907F9018
:102090006F905F904F903F902F900895CF92EF9266
:1020A0000F93CC24CA94EE24EA940FEF2FEF0E94F2
:1020B0008B0F0F91EF90CF900895CF92DF92EF9218
:1020C000FF9261E085E00E94831861E070E080E0AB
:1020D00090E00E94BF0A61E085E00E94BF188FE691
:1020E00091E00E94FB1340E06CE073E080E090E040
:1020F0000E944E1060E08FE691E00E9491146B0107
:102100007C0160E085E00E94BF1820E030E04EEFE7
:1021100052ECC701B6010E943C1B8823A1F020E0CD
:1021200030E04AEA52E4C701B6010E943C1B87FF37
:102130000AC022E0B701A6018EE491E00E9447099F
:1021400060E00E94080A85E10E943D18BC01990FD9
:10215000880B990B0E94E41B2EE531E04EE85BE30F
:102160000E94941C20E030E040E250E40E94CF1A2C
:1021700020E030E048EC52E40E94941C28E939E960
:1021800049ED5FE30E94411B20E030E0A9010E947D
:10219000D01A0E94B31B862F653608F084E660E0F3
:1021A0000E94200A60E085E00E94831840E063EB13
:1021B00074E289E090E0FF90EF90DF90CF900C9474
:1021C0004E100E94FF170E94BF0DCDE5D0E10DE13A
:1021D00019E10E94BB0A209711F00E945D100115C1
:1021E0001105B9F30E941D19F4CFCF93CFB7F8941E
:1021F00080910002811127C0EAE9F1E08491E6E8CC
:10220000F1E09491E82FF0E0EE0FFF1FE854FE4F4D
:10221000A591B491EC91E92321F461E08AE00E9458
:10222000BF1861E08AE00E9483188CB580618CBD84
:102230008CB580648CBD61E08DE00E94831861E004
:102240008BE00E948318809100028F5F80930002D0
:10225000CFBFCF9108950895FC018BE291E1928B5D
:10226000818B768365831482108289E0818381E08B
:10227000828383830895CF93DF93EB0167E0CE01E0
:102280000E94B01691E02F81821390E0892FDF9198
:10229000CF910895EF92FF920F931F93CF93DF9307
:1022A0008C017B01D42FFC01858196810E94E81569
:1022B000C0E041E0B701F801858196810E941916BE
:1022C000882359F0CD1306C0B701C8010E943B1105
:1022D000811104C0CF5FDC1760F780E0DF91CF9100
:1022E0001F910F91FF90EF900895CF92DF92EF92A0
:1022F000FF920F931F93CF93DF9300D0CDB7DEB73C
:102300008C017A01FC018581968169837A830E9420
:10231000BC1469817A81882319F1F801858196813D
:102320000E94B71540E06EEBF801858196810E940E
:1023300059156701F9E0EF0EF11CF80185819681CE
:102340000E949B15F60181936F01EE15FF05A9F719
:10235000F801858196810E94BC1491E0813009F0DA
:1023600090E0892F0F900F90DF91CF911F910F91E7
:10237000FF90EF90DF90CF900895CF93DF93EA0125
:102380000E947511882339F068E0CE010E94B016D2
:1023900091E02885821390E0892FDF91CF910895F5
:1023A000EF92FF920F931F93CF93DF93EC018B017A
:1023B0007A018D819E810E94BC14B8018D819E811D
:1023C0000E94B71540E06EE48D819E810E945915F0
:1023D00040E0F70162818D819E810E94591540E0A5
:1023E000F70163818D819E810E945915F8018081DA
:1023F000803139F040E0F70164818D819E810E9437
:1024000059158D819E810E94BC14B8018D819E81D9
:102410000E94B715488168E48D819E810E945915FC
:1024200064E170E080E090E00E94BA178881882320
:1024300031F06AE070E080E090E00E94BA178D8190
:102440009E81DF91CF911F910F91FF90EF900C949F
:10245000BC14EF92FF921F93CF93DF9300D0CDB7C0
:10246000DEB77C01FC018581968169837A830E94B5
:10247000BC1469817A81F701858196810E94B71524
:1024800040E064EBF701858196810E945915F701C0
:10249000858196810E942E15182FF70185819681DE
:1024A0000E94BC1481E0111180E00F900F90DF9129
:1024B000CF911F91FF90EF900895CF92DF92FF92FE
:1024C0000F931F93CF93DF93CDB7DEB72A970FB645
:1024D000F894DEBF0FBECDBF6C018B01242FAE017F
:1024E0004F5F5F4F2A870E94BD11F82E2A858823EF
:1024F000C9F0F80180818031A9F02B3041F02C30F7
:1025000021F02A3031F48FE305C08FE703C08FE557
:1025100001C08FE18D83AE014F5F5F4FB801C601EF
:102520000E94D0118F2D2A960FB6F894DEBF0FBEF1
:10253000CDBFDF91CF911F910F91FF90DF90CF9092
:102540000895EF92FF920F931F93CF93DF93CDB730
:10255000DEB728970FB6F894DEBF0FBECDBF8C0153
:10256000693020F06D3018F06CE001C069E0F801CE
:102570006183E12CF12CF801848190E0E816F906E2
:102580009CF44E2DBE016F5F7F4FC8010E944A111F
:10259000F8014181BE016F5F7F4FC8010E945D124B
:1025A000FFEFEF1AFF0AE7CF28960FB6F894DEBFC9
:1025B0000FBECDBFDF91CF911F910F91FF90EF9094
:1025C0000895CF93DF93CDB7DEB729970FB6F89470
:1025D000DEBF0FBECDBFFB0120812031D1F0AE01A7
:1025E0004F5F5F4F0E94BD11882389F08D818F332B
:1025F00061F020F48F3159F489E00CC08F3519F067
:102600008F3739F004C08BE005C08AE003C080E05A
:1026100001C08CE029960FB6F894DEBF0FBECDBF87
:10262000DF91CF910895FF920F931F93CF93DF9384
:10263000CDB7DEB761970FB6F894DEBF0FBECDBF42
:102640008C01FC01858196810E94E815F8011482B5
:1026500041E0BE01665F7F4FF801858196810E944F
:1026600019168823D1F1BE01665F7F4FC8010E9411
:102670003B11882369F3F8018081811108C0BE01F4
:10268000665F7F4FC8010E942912811122C0AE01EE
:102690004F5F5F4FBE01665F7F4FC8010E9475119B
:1026A000F801F180BE01665F7F4FC8010E94E11210
:1026B0008F1518F4F801818106C0BE01665F7F4F57
:1026C000C8010E94E112F801818384818F5F8483B5
:1026D000BFCF81E0F8018083DACF61960FB6F8941E
:1026E000DEBF0FBECDBFDF91CF911F910F91FF9045
:1026F0000895FC0162830895CF93DF93CDB7DEB7D1
:1027000029970FB6F894DEBF0FBECDBFAE014F5F65
:102710005F4F0E94751181E09981911101C080E0A5
:1027200029960FB6F894DEBF0FBECDBFDF91CF91D3
:1027300008958F929F92AF92BF92CF92DF92EF92C5
:10274000FF920F931F93CF93DF93EC01E7EFE60F18
:10275000E33040F4F0E0EE0FFF1FE85CFE4FC08076
:10276000D18004C08EEEC82E82E0D82E41155105CE
:1027700019F18B81882301F1888181111DC08A01A3
:102780000E9489174B015C010D2C000CEE08FF081C
:10279000B801CE010E947C13811120C00E948917CC
:1027A000DC01CB018C199D09AE09BF09881599057B
:1027B000AA05BB0568F312C0B601DD0C880B990BA6
:1027C000DF91CF911F910F91FF90EF90DF90CF900D
:1027D000BF90AF909F908F900C94BA17DF91CF91DC
:1027E0001F910F91FF90EF90DF90CF90BF90AF902F
:1027F0009F908F900895CF93DF93EC018D819E8100
:102800000E94BC148D819E810E94E415488164E47D
:102810008D819E810E9459158A81882341F040E074
:1028200050E06981CE01DF91CF910C949913DF9133
:10283000CF910895FA01208188E0289FA0011124FA
:102840008181282F30E0322F2227330F330F330FAF
:10285000242B352BDB018C918031C1F4678170E032
:102860008681AB01481B5109CA019695982F88278C
:10287000979587950E94011D60517109207F53E053
:10288000220F331F5A95E1F7260F371FC90108950C
:10289000EF92FF920F931F93CF93DF93CDB7DEB7E5
:1028A00029970FB6F894DEBF0FBECDBF8C017B0118
:1028B000AE014F5F5F4F0E94BD11882341F0AE0112
:1028C0004F5F5F4FB701C8010E941A1402C080E831
:1028D00094EE29960FB6F894DEBF0FBECDBFDF9100
:1028E000CF911F910F91FF90EF900895813824EEC2
:1028F000920774F0BC01072E000C880B990B0E9404
:10290000E41B20E030E040E05CE30E94941C08956A
:1029100060E070E08EEF92EC08950E9448140C94F1
:1029200076140F931F93CF93DF93CDB7DEB728971D
:102930000FB6F894DEBF0FBECDBF8C01462FBE018F
:102940006F5F7F4F0E944A11882339F0BE016F5F8D
:102950007F4FC8010E948D1404C060E070E08EEFCC
:1029600092EC28960FB6F894DEBF0FBECDBFDF9174
:10297000CF911F910F910895FF920F931F93CF93C3
:10298000DF93FC010081C181D281F8948981F02E0E
:10299000F0948F21898378941DE7115029F182E00A
:1029A00090E00E94F61788818023B9F3F8948A8119
:1029B0008F218A838981802B8983789480EE91E0AE
:1029C0000E94F617F8948981F822F98286E490E053
:1029D0000E94F6178881082311E009F010E078942E
:1029E00084EF91E00E94F617812FDF91CF911F9124
:1029F0000F91FF9008951F93CF93DF93FC011081F7
:102A0000C181D281812F809560FF12C0F8949A8194
:102A100089238A838981812B89838AE090E00E94BF
:102A2000F6178A81182B1A83789487E390E011C0F7
:102A3000F8949A8189238A838981812B898381E40F
:102A400090E00E94F6178A81182B1A83789485E00B
:102A500090E0DF91CF911F910C94F6170F931F9385
:102A6000CF93DF93FC011081C181D281F8948981D9
:102A7000812B89838A81012F009580238A8383E0BB
:102A800090E00E94F6178981082309838AE090E08C
:102A90000E94F617C88178948BE490E00E94F617A4
:102AA0001C2381E009F480E0DF91CF911F910F9109
:102AB0000895CF92DF92EF92FF920F931F93CF93DF
:102AC000DF931F92CDB7DEB76C01E62E08E010E071
:102AD000FF24F39461E08F2D8E2109F460E0C6019C
:102AE00049830E94FB14FF0C015011094981011513
:102AF000110581F7411115C0F894D6011196ED9199
:102B0000FC91129791818C918095892381831196F4
:102B1000ED91FC91129792818C918095892382830B
:102B200078940F90DF91CF911F910F91FF90EF90CC
:102B3000DF90CF900895EF92FF920F931F93CF9362
:102B4000DF937C0108E010E0C0E0D1E0C7010E9403
:102B50002E158111CD2BDD0F01501109B9F78C2FE6
:102B6000DF91CF911F910F91FF90EF900895CF9239
:102B7000DF92EF92FF920F931F93CF93DF931F92F9
:102B8000CDB7DEB78C01F62E40E065E579830E9473
:102B90005915CF2C7981D72E760188E0E80EF11CEB
:102BA000F60161916F0140E0C8010E945915CE14F1
:102BB000DF04B1F70F90DF91CF911F910F91FF903C
:102BC000EF90DF90CF90089540E06CEC0C94591595
:102BD000FC01138615861486DC011B9633961E9223
:102BE000AE17BF07E1F708950F931F93CF938C01A2
:102BF000C62F60E08C2F0E9483186C2F70E0FB01C1
:102C0000E458FE4FE491D801EC93FB01E057FE4FEE
:102C1000E491F0E0EE0FFF1FEC55FE4F859194918B
:102C2000F80192838183C801CF911F910F910C9479
:102C3000E815AF92BF92CF92DF92EF92FF920F937F
:102C40001F93CF93DF931F92CDB7DEB75C01D62ED3
:102C5000E72EFC018585811107C0C50149830E94CB
:102C6000BC144981811106C0F501138615861486AE
:102C700080E06AC0442319F040E060EF02C040E009
:102C80006CEEC5010E94591501E0F12CC12C11E038
:102C9000C5010E942E15682FC50169830E942E155B
:102CA0006981613019F48130B9F433C04F2D50E09F
:102CB00068131BC0F5018385181730F4E40FF51F66
:102CC0008381802349F402C0181731F060E0193085
:102CD00058F4F501148708C0F501EF0DF11D83814B
:102CE000802B838361E009C0C12EF501E40FF51F3D
:102CF0009381802F809589238383C5010E94FB14D3
:102D00001F5F000F11F4F39401E0F7E0FF1508F0E6
:102D1000BFCF113408F4A8CFF501C386C11002C09B
:102D200081E08587F5018381882309F49DCFD50152
:102D30001396ED2DFE2D9501255F3F4F8D918193CB
:102D4000A217B307D9F781E00F90DF91CF911F91C0
:102D50000F91FF90EF90DF90CF90BF90AF900895CC
:102D6000DC01E0E0615038F08D91E827F0E0E859AF
:102D7000FF4FE491F7CF8E2F089508958230E8F445
:102D8000E82FF0E0EE0FFF1FEF5DFE4F71836083D1
:102D9000813041F0809169008C7F482B409369001D
:102DA000E89A089580916900440F551F440F551FFC
:102DB000837F482B40936900E99A0895823078F424
:102DC000813011F0E89801C0E998E82FF0E0EE0FAB
:102DD000FF1FEF5DFE4F8DEB96E191838083089599
:102DE0001F920F920FB60F9211242F933F934F9380
:102DF0005F936F937F938F939F93AF93BF93EF9363
:102E0000FF93E0912101F09122010995FF91EF914B
:102E1000BF91AF919F918F917F916F915F914F91F2
:102E20003F912F910F900FBE0F901F9018951F92FA
:102E30000F920FB60F9211242F933F934F935F93EE
:102E40006F937F938F939F93AF93BF93EF93FF9372
:102E5000E0912301F09124010995FF91EF91BF9139
:102E6000AF919F918F917F916F915F914F913F9122
:102E70002F910F900FBE0F901F90189508951F92DD
:102E80000F920FB60F9211242F933F938F939F931E
:102E9000AF93BF938091020290910302A09104022C
:102EA000B09105023091010226E0230F2D3720F466
:102EB0000296A11DB11D05C029E8230F0396A11D8F
:102EC000B11D209301028093020290930302A0930C
:102ED0000402B09305028091060290910702A0912E
:102EE0000802B09109020196A11DB11D809306024E
:102EF00090930702A0930802B0930902BF91AF918B
:102F00009F918F913F912F910F900FBE0F901F9027
:102F100018952FB7F8946091020270910302809186
:102F20000402909105022FBF08953FB7F894809155
:102F3000060290910702A0910802B091090226B5FD
:102F4000A89B05C02F3F19F00196A11DB11D3FBFE1
:102F5000BA2FA92F982F8827820F911DA11DB11D6F
:102F6000BC01CD0143E0660F771F881F991F4A956A
:102F7000D1F708958F929F92AF92BF92CF92DF9236
:102F8000EF92FF926B017C010E9495174B015C014F
:102F9000C114D104E104F10401F10E943E170E9422
:102FA0009517DC01CB0188199909AA09BB09883E4C
:102FB0009340A105B10560F321E0C21AD108E108F0
:102FC000F10888EE880E83E0981EA11CB11CC11484
:102FD000D104E104F10419F7DBCFFF90EF90DF900B
:102FE000CF90BF90AF909F908F90089583309105C0
:102FF00028F0880F991F04970197F1F708957894A6
:1030000084B5826084BD84B5816084BD85B58260ED
:1030100085BD85B5816085BDEEE6F0E0808181608B
:103020008083E1E8F0E0108280818260808380818B
:1030300081608083E0E8F0E0808181608083E1EB63
:10304000F0E0808184608083E0EBF0E0808181604B
:103050008083EAE7F0E08081846080838081826001
:10306000808380818E7F80838081806880831092BE
:10307000C10008958093250108958E3008F08E5088
:1030800087702091250190E4299F90011124822BC3
:1030900080937C0080917A00806480937A00809194
:1030A0007A0086FDFCCF809178002091790090E035
:1030B000922B0895833081F028F4813099F082308A
:1030C000A1F008958730A9F08830B9F08430D1F4A8
:1030D000809180008F7D03C0809180008F778093E6
:1030E0008000089584B58F7702C084B58F7D84BD3C
:1030F00008958091B0008F7703C08091B0008F7DDC
:103100008093B0000895CF93DF9390E0FC01E458E2
:10311000FE4F2491FC01E057FE4F8491882361F11A
:1031200090E0880F991FFC01E854FE4FC591D4919F
:10313000FC01E255FE4FA591B491611109C09FB702
:10314000F8948881209582238883EC912E230BC0EC
:10315000623061F49FB7F8943881822F8095832381
:103160008883EC912E2B2C939FBF06C08FB7F894C9
:10317000E8812E2B28838FBFDF91CF9108951F9375
:10318000CF93DF93282F30E0F901E859FE4F849167
:10319000F901E458FE4FD491F901E057FE4FC49174
:1031A000CC23C9F0162F81110E945A18EC2FF0E0A1
:1031B000EE0FFF1FE255FE4FA591B4918FB7F89423
:1031C000111105C09C91ED2FE095E92302C0EC910F
:1031D000ED2BEC938FBFDF91CF911F910895FC01F0
:1031E000918D228D892F90E0805C9F4F821B9109E9
:1031F0008F7399270895FC01918D828D981731F076
:10320000828DE80FF11D858D90E008958FEF9FEF7F
:103210000895FC01918D828D981761F0828DDF01F8
:10322000A80FB11D5D968C91928D9F5F9F73928FB9
:1032300090E008958FEF9FEF08958DE69AE1892B36
:1032400049F080E090E0892B29F00E946D1A8111ED
:103250000C9400000895FC01848DDF01A80FB11DBE
:10326000A35ABF4F2C91848D90E001968F739927BC
:10327000848FA689B7892C93A089B1898C918064A9
:103280008C93938D848D981306C00288F389E02D6A
:1032900080818F7D80830895CF93DF93EC01888DAB
:1032A0008823C9F0EA89FB89808185FD05C0A8894A
:1032B000B9898C9186FD0FC00FB607FCF5CF8081D0
:1032C00085FFF2CFA889B9898C9185FFEDCFCE011A
:1032D0000E942B19E7CFDF91CF910895EF92FF92D3
:1032E0000F931F93CF93DF93EC0181E0888F9B8D29
:1032F0008C8D981305C0E889F989808185FD24C0EB
:10330000F62E0B8D10E00F5F1F4F0F731127E02E6D
:103310008C8DE8120CC00FB607FCFACFE889F9894A
:10332000808185FFF5CFCE010E942B19F1CF8B8DC7
:10333000FE01E80FF11DE35AFF4FF0820B8FEA897F
:10334000FB898081806207C0EE89FF896083E889FC
:10335000F98980818064808381E090E0DF91CF9162
:103360001F910F91FF90EF900895CF92DF92EF920F
:10337000FF921F93CF93DF93EC016A017B01122F21
:1033800060E874E88EE190E0A70196010E94151DA7
:10339000DA01C9010197A109B109B695A7959795D9
:1033A0008795AC01E889F98982E08083411580E145
:1033B0005807A8F0E889F989108260E472E48FE088
:1033C00090E0A70196010E94151DBA01A901415084
:1033D0005109610971097695679557954795EC856F
:1033E000FD855083EE85FF854083188EEC89FD892D
:1033F0001083EA89FB89808180618083EA89FB8967
:10340000808188608083EA89FB89808180688083ED
:10341000EA89FB8980818F7D8083DF91CF911F9125
:10342000FF90EF90DF90CF9008951F920F920FB60C
:103430000F9211242F938F939F93EF93FF93E0911B
:103440001A02F0911B028081E0912002F09121028A
:1034500082FD12C09081809123028F5F8F73209133
:103460002402821751F0E0912302F0E0E65FFD4F65
:10347000958F8093230201C08081FF91EF919F91EE
:103480008F912F910F900FBE0F901F9018951F9244
:103490000F920FB60F9211242F933F934F935F9388
:1034A0006F937F938F939F93AF93BF93EF93FF930C
:1034B0008AE092E00E942B19FF91EF91BF91AF91AA
:1034C0009F918F917F916F915F914F913F912F913C
:1034D0000F900FBE0F901F9018958AE092E00E9407
:1034E000EF1821E0892B09F420E0822F0895EAE00B
:1034F000F2E01382128288EE93E0A0E0B0E08483D1
:103500009583A683B78382E491E09183808385ECE1
:1035100090E09587848784EC90E09787868780EC9D
:1035200090E0918B808B81EC90E0938B828B82EC8E
:1035300090E0958B848B86EC90E0978B868B118E38
:10354000128E138E148E0895CF92DF92EF92FF9217
:103550000F931F93CF93DF936C017A018B01C0E02F
:10356000D0E0CE15DF0589F0D8016D918D01D6012F
:10357000ED91FC910190F081E02DC6010995892B18
:1035800011F47E0102C02196ECCFC701DF91CF91EB
:103590001F910F91FF90EF90DF90CF9008955058BA
:1035A000BB27AA270E94E71A0C945A1C0E944C1CA5
:1035B00038F00E94531C20F039F49F3F19F426F490
:1035C0000C94491C0EF4E095E7FB0C94431CE92F86
:1035D0000E946B1C58F3BA1762077307840795079C
:1035E00020F079F4A6F50C948D1C0EF4E0950B2ECA
:1035F000BA2FA02D0B01B90190010C01CA01A00145
:103600001124FF27591B99F0593F50F4503E68F19F
:103610001A16F040A22F232F342F4427585FF3CFE0
:10362000469537952795A795F0405395C9F77EF4B1
:103630001F16BA0B620B730B840BBAF09150A1F0FA
:10364000FF0FBB1F661F771F881FC2F70EC0BA0F80
:10365000621F731F841F48F4879577956795B79508
:10366000F7959E3F08F0B0CF9395880F08F0992703
:10367000EE0F9795879508950E941F1C08F481E02E
:1036800008950E94551B0C945A1C0E94531C58F01C
:103690000E944C1C40F029F45F3F29F00C94431C1D
:1036A00051110C948E1C0C94491C0E946B1C68F3E5
:1036B0009923B1F3552391F3951B550BBB27AA27EB
:1036C00062177307840738F09F5F5F4F220F331F25
:1036D000441FAA1FA9F335D00E2E3AF0E0E832D0ED
:1036E00091505040E695001CCAF72BD0FE2F29D0F0
:1036F000660F771F881FBB1F261737074807AB07C2
:10370000B0E809F0BB0B802DBF01FF2793585F4F36
:103710003AF09E3F510578F00C94431C0C948E1C9B
:103720005F3FE4F3983ED4F3869577956795B79518
:10373000F7959F5FC9F7880F911D9695879597F923
:103740000895E1E0660F771F881FBB1F621773079C
:103750008407BA0720F0621B730B840BBA0BEE1FB1
:1037600088F7E09508950E94731C88F09F5798F0A1
:10377000B92F9927B751B0F0E1F0660F771F881F76
:10378000991F1AF0BA95C9F714C0B13091F00E9490
:103790008D1CB1E008950C948D1C672F782F88271D
:1037A000B85F39F0B93FCCF3869577956795B395B7
:1037B000D9F73EF490958095709561957F4F8F4F26
:1037C0009F4F0895E89409C097FB3EF4909580952B
:1037D000709561957F4F8F4F9F4F9923A9F0F92FD7
:1037E00096E9BB279395F695879577956795B79555
:1037F000F111F8CFFAF4BB0F11F460FF1BC06F5F3B
:103800007F4F8F4F9F4F16C0882311F096E911C04C
:10381000772321F09EE8872F762F05C0662371F06D
:1038200096E8862F70E060E02AF09A95660F771F81
:10383000881FDAF7880F9695879597F90895990F5D
:103840000008550FAA0BE0E8FEEF16161706E8076A
:10385000F907C0F012161306E407F50798F0621B8B
:10386000730B840B950B39F40A2661F0232B242B60
:10387000252B21F408950A2609F4A140A6958FEF7F
:10388000811D811D089597F99F6780E870E060E0D1
:1038900008959FEF80EC089500240A9416161706E9
:1038A00018060906089500240A9412161306140631
:1038B00005060895092E0394000C11F4882352F094
:1038C000BB0F40F4BF2B11F460FF04C06F5F7F4F4C
:1038D0008F4F9F4F089557FD9058440F551F59F033
:1038E0005F3F71F04795880F97FB991F61F09F3FED
:1038F00079F087950895121613061406551FF2CF16
:103900004695F1DF08C0161617061806991FF1CF65
:1039100086957105610508940895E894BB2766278C
:103920007727CB0197F908950E94A71C0C945A1C85
:103930000E944C1C38F00E94531C20F0952311F07B
:103940000C94431C0C94491C11240C948E1C0E9452
:103950006B1C70F3959FC1F3950F50E0551F629F4C
:10396000F001729FBB27F00DB11D639FAA27F00DD8
:10397000B11DAA1F649F6627B00DA11D661F829FFF
:103980002227B00DA11D621F739FB00DA11D621FE4
:10399000839FA00D611D221F749F3327A00D611D01
:1039A000231F849F600D211D822F762F6A2F1124E3
:1039B0009F5750409AF0F1F088234AF0EE0FFF1F16
:1039C000BB1F661F771F881F91505040A9F79E3F6D
:1039D000510580F00C94431C0C948E1C5F3FE4F363
:1039E000983ED4F3869577956795B795F795E795C3
:1039F0009F5FC1F7FE2B880F911D9695879597F9CC
:103A0000089597FB072E16F4009407D077FD09D090
:103A10000E94371D07FC05D03EF4909581959F4F7D
:103A20000895709561957F4F0895A1E21A2EAA1B03
:103A3000BB1BFD010DC0AA1FBB1FEE1FFF1FA2175E
:103A4000B307E407F50720F0A21BB30BE40BF50B5B
:103A5000661F771F881F991F1A9469F760957095E4
:103A6000809590959B01AC01BD01CF010895AA1BE3
:103A7000BB1B51E107C0AA1FBB1FA617B70710F059
:103A8000A61BB70B881F991F5A95A9F7809590958B
:103A9000BC01CD010895EE0FFF1F0590F491E02DBC
:103AA0000994FC0188279927E89421912032E9F3B1
:103AB000293010F02E30C8F32B3241F02D3239F47A
:103AC000689404C00E94D01D820F911D2191205343
:103AD0002A30C0F31EF4909581959F4F08951F934F
:103AE000FC0199278827BC01E89411911032E9F371
:103AF000193010F01E30C8F31B3251F01D3249F45A
:103B0000689406C00E94BB1D610F711D811D911D2F
:103B1000119110531A30B0F33EF490958095709542
:103B200061957F4F8F4F9F4F1F910895FB01DC01DF
:103B300004C08D910190801921F441505040C8F784
:103B4000881B990B0895FB01DC0102C001900D92C6
:103B500041505040D8F70895FB01DC0141505040DE
:103B600048F001900D920020C9F701C01D9241500C
:103B70005040E0F70895592F482F372F262F660F12
:103B8000771F881F991F660F771F881F991F620F65
:103B9000731F841F951F660F771F881F991F089535
:103BA0007AE0979F902D879F802D910D1124089585
:103BB000DC01CB01FC01F999FECF06C0F2BDE1BDED
:103BC000F89A319600B40D9241505040B8F70895DC
:103BD000DC01A40FB51F4150504048F0CB01840FC9
:103BE000951F2E910E94F91D41505040D0F7089525
:103BF000262FF999FECF92BD81BDF89A019700B4A6
:103C0000021639F01FBA20BD0FB6F894FA9AF99A45
:083C10000FBE0895F894FFCFE8
:103C1800FF00FCE1A8A870023B07270179062509E7
:103C2800F206F708C806D10896065B011608FFFFDA
:103C3800FFBD16BD1601322E312E3100312E300057
:103C48004D79534C69706F005E00BC00770100002D
:0E3C580000006E19A41AEF180919FB184C1978
:107C00001F92CDB7DEB7112484B714BE81FD06C024
:107C100083FF03C08983F4D08981E3D185E0809319
:107C2000810082E08093C00088E18093C10096E0EB
:107C30009093C20090E19093C400809360008EE026
:107C4000809360003B9A86E028E13EEF91E030931C
:107C500085002093840096BBB09BFECF339AA895F5
:107C60008150A9F7612C712C08E128E0F22EEE2456
:107C7000E39435E0D32E41E1C42E13E08BD181345F
:107C800069F488D1898394D189818238F9F0813867
:107C900011F485E001C083E076D17BC0823411F419
:107CA00084E103C0853419F485E08ED172C0853536
:107CB00049F470D1B82E6ED16B2C712C782A660CD9
:107CC000771C66C0863521F484E07ED180E0E4CF65
:107CD000843609F03FC05ED15DD1982E5BD161142E
:107CE00080E7780618F4F30117BFE895A12CBB24B0
:107CF000B39450D1F50181935F019E12FACF6114C4
:107D0000F0E77F0618F0F30117BFE89551D107B6E9
:107D100000FCFDCFA301A0E0B1E08C9112969D0183
:107D200021503109F901208190E0922BFA010C01D8
:107D3000E7BEE89511244E5F5F4FA038F1E0BF0722
:107D400061F7F301D7BEE89507B600FCFDCFC7BECB
:107D5000E8951FC0843769F41DD11CD1B82E1AD103
:107D600027D1F30185913F010ED1BA94B110F9CF1B
:107D700010C0853739F41CD18EE105D185E903D1D6
:107D80008FE08ACF813521F400936000F09260008B
:107D90000FD180E1F8D072CF8EBD0DB407FEFDCFBC
:107DA0008EB50895289885E0F7DF80E0F5DF289A02
:107DB00081700895CF93C82F662321F060E086E09C
:107DC000F9DF289AEFDF8111FDCF28988C2FCF9112
:107DD000E3CFCF92DF92EF92FF926B017C0160E0E4
:107DE00083E0E8DF8E2DD8DF8D2DD6DF8C2DD4DF1C
:107DF00080E0D2DF289AFF90EF90DF90CF90089537
:107E00009F92AF92BF92CF92DF92EF92FF920F9329
:107E10001F93CF93DF9388E18093600010926000FE
:107E200084B18D6284B9289A2A9A8CB580658CBDFC
:107E300028988FE9B1DF80E0AFDF289A81508E3F2C
:107E400008F095C061E081E0B5DF80E0A5DF289A09
:107E500060E070E0CB01BDDF863409F088C061E0EE
:107E600070E080E090E0B5DF8C3409F080C062E023
:107E700070E080E090E0ADDF883509F078C066E022
:107E800070E080E090E0A5DF8A3309F070C069E01F
:107E900070E080E090E09DDF8A3309F068C067E021
:107EA00070E080E090E095DFC82F68E070E080E04F
:107EB00090E08FDFD0E0DC2FCC27C82BC0FD57C06F
:107EC000339AC12CD12C00E010E0BB24B39483E0A2
:107ED000A82E95E0992E0C171D0770F5B801665F66
:107EE0007F4F80E090E075DFE82EF12CB801655FF0
:107EF0007F4F80E090E06DDFF82AF8010701B7BE00
:107F0000E89511240E5F1F4FC8018F779927892BA1
:107F100019F00C171D07F9F6F601A7BEE89507B68C
:107F200000FCFDCFF60197BEE89507B600FCFDCF3B
:107F3000F0E8CF0ED11CCFCF339881E187BFE89511
:107F40002A9661E0C130D04810F482E501C088ED86
:107F500031DF80E021DF80E01FDF80E01DDF289A35
:107F600088E18093600088E080936000FFCFDF911C
:107F7000CF911F910F91FF90EF90DF90CF90BF9026
:107F8000AF909F9008959091C00095FFFCCF809393
:107F9000C6000895339A8091C00087FFFCCF80917E
:107FA000C00084FD01C0A8958091C600339A089551
:107FB000F1DF803239F088E18093600088E08093BF
:107FC0006000FFCF84E1DFCFCF93C82FE3DFC15044
:107FD000E9F7CF91EDCFE0E6F0E098E19083808380
:107FE0000895282EE0E6F0E088E180831082EE27F5
:047FF000FF270994CA
:027FFE0000057C
:0400000300007C007D
:00000001FF
