:100000000C9463000C94E7100C940E110C948B006C
:100010000C948B000C948B000C94FC000C948B00C3
:100020000C948B000C948B000C948B000C948B0024
:100030000C948B000C948B000C948B000C948B0014
:100040000C9436110C948B000C9444140C9476147C
:100050000C948B000C948B000C948B000C948B00F4
:100060000C948B000C948B0000000008000201002F
:100070000003040700000000000000000102040863
:100080001020408001020408102001020408102002
:10009000040404040404040402020202020203032E
:1000A00003030303000000002300260029000000D2
:1000B0000000250028002B0000000000240027007D
:1000C0002A007C0DA61411241FBECFEFD8E0DEBF9E
:1000D000CDBF11E0A0E0B1E0E4EDFFE202C0059089
:1000E0000D92A235B107D9F722E0A2E5B1E001C037
:1000F0001D92AB3AB207E1F710E0C3E6D0E004C0CE
:100100002197FE010E942917C136D107C9F70E9425
:100110006A100C94E8170C940000EF92FF920F9372
:10012000FC018091DA018183628346830583277015
:100130008481807F282B88E0E89E700111242E297D
:100140002F7E2483CF010F91FF90EF90089580912F
:10015000E70184608093E7018091E80180788093D3
:10016000E801E091D801F091D901309709F00994A4
:100170000895809121010E94D510809120018F3F28
:1001800021F0809120010E94D5108091210180935F
:1001900022010895809120010E94D51080912101B3
:1001A0008F3F21F0809121010E94D5108091200184
:1001B000809322010895E7EEF1E08081877F8F7EB2
:1001C00080831092E3011092E4011092E5011092F5
:1001D000E60143E050E060E070E08AED91E00C94CD
:1001E000B61783E00E94311260E082E00E947A122A
:1001F00060E083E00C947A121F920F920FB60F9278
:1002000011240F900FBE0F901F90189520917A0027
:100210002F7720937A00309160008A309105B1F0F9
:1002200083FD02C028E001C028E28770822B98E19C
:100230000FB6F894A895909360000FBE809360006D
:10024000809160008065809360000BC00FB6F894C9
:10025000A895809160008861809360001092600092
:100260000FBE83B7817F846083BFF89483B78160BA
:1002700083BF85B7806685BF8F7D85BF789488955D
:1002800083B78E7F83BFF894A895809160008861C2
:100290008093600030936000789480917A00806849
:1002A00080937A000895FC0185818F50833010F08F
:1002B00080E0089581E0089520910302222399F0BF
:1002C0004FB7F89420910302213059F42DB32093B5
:1002D00001023DB320910202209523232DBB4FBF85
:1002E00002C0409301028CBD9DBD08958EBD0000EB
:1002F0000DB407FEFDCF8EB50895809103028823CB
:1003000061F09FB7F894209103028091010221309F
:1003100019F48DBB9FBF08958FBF0895AF92BF9210
:10032000DF92EF92FF920F931F93CF93DF93C82F2B
:100330007B01142FD22E80E590E00E945C012A9868
:100340008AE090E00E94ED118C2F0E947601082F28
:10035000E7011123B9F0DD2051F08FEF0E94760103
:10036000082FE114F10461F08883219609C05E0131
:100370008FEFA81AB80A88810E947601082FE5013C
:100380001150E7CF2A9A0E947D018AE090E00E94F6
:10039000ED11802FDF91CF911F910F91FF90EF9082
:1003A000DF90BF90AF900895CF93DF931F92CDB7AA
:1003B000DEB7698320E041E0BE016F5F7F4F0E949E
:1003C0008E010F90DF91CF91089529986CE080E223
:1003D0000C94D4018091E801982F9077903759F0D0
:1003E000982F92959F709F5F97709295907F8F78CE
:1003F000892B8093E8018091E7018B7F8F7E80932A
:10040000E70180E090E0892B21F087E690E00E94F0
:1004100000000C94E5016FE080E20E94D40160913D
:1004200002016F3F19F08AE20E94D401299A0895CF
:1004300021E041E060E070E00C948E01CF9386E013
:100440000E941802C82F85E00E94180221E08C3417
:1004500009F020E081E0C53209F080E08223CF91ED
:10046000089520E040E060E070E00C948E01FF927F
:100470000F931F93CF93DF931F92CDB7DEB7F82E64
:100480008B01299882E890E049830E94ED116EE08B
:1004900080E20E94D40184E690E00E94ED116F2D6D
:1004A0008AE20E94D4016F2D80E30E94D40181EE84
:1004B0000E94310249818FEFF81611F080EA01C0E5
:1004C00080EB20E0B8010E948E01299A00E010E044
:1004D0008FEF0E943102F82E807319F40150110938
:1004E000B9F7299860E387E20E94D401F4FE03C0C3
:1004F00081EE0E9431020E940B02F5FA882780F9F2
:100500000F90DF91CF911F910F91FF9008950F935E
:100510001F93CF938C0121E041E060E070E080E622
:100520000E948E01C82F813220F082EE0E9431029B
:10053000C0E021E04C2FB80181E60E948E0160E40A
:1005400087E20E94D4018C2FCF911F910F910895C3
:10055000CF93219A229A0E947E1029982A9A6EE0BF
:1005600080E20E94D40165E070E080E090E00E94AB
:10057000B11163E083E20E94D4016FE584E20E943E
:10058000D4016CE485E20E94D40165E286E20E9417
:10059000D40163E780E50E94D40166E08DE30E9408
:1005A000D4010E941E02C82F882371F162E082E20A
:1005B0000E94D40160E081E20E94D40163E08CE3F8
:1005C0000E94D4018FEF8093030120E045E063E0B7
:1005D00071E08BE20E948E0120E045E063E071E073
:1005E0008AE20E948E0120E045E063E071E080E352
:1005F0000E948E0182EE0E94310281EE0E94310241
:1006000060E787E20E94D4018C2FCF910895CF93A9
:10061000DF93EC018CB58B838DB58C838D819E81AE
:100620000E945C0160E08881DF91CF910C94B6124A
:10063000CF93DF93EC0161E088810E94B6120E94A3
:100640007D018B818CBD8C818DBDDF91CF91089513
:100650000F931F93CF93DF938C010E9407038FE9C1
:100660000E94760180E00E947601C82FD0E0DC2F46
:10067000CC2780E00E947601C82BC8010E94180395
:10068000CE01DF91CF911F910F9108951F93CF93CA
:10069000DF93EC010E94070385E00E94760180E071
:1006A0000E947601182FCE010E941803812FDF913E
:1006B000CF911F9108950E944603817008951F9362
:1006C000CF93DF93EC01162F442339F040E066E02E
:1006D0000E945F03CE010E941803CE010E945B03BB
:1006E0008111FBCFCE010E940703812FDF91CF91B3
:1006F0001F910C947601EF92FF920F931F93CF936B
:10070000DF931F92CDB7DEB77C01142F062F40E098
:1007100063E059830E945F03802F0E947601598114
:10072000852F0E947601812F0E94760180E00E9431
:100730007601182FC7010E941803812F0F90DF91B7
:10074000CF911F910F91FF90EF9008952F923F92BC
:100750004F925F926F927F928F929F92AF92BF92D1
:10076000CF92DF92EF92FF920F931F93CF93DF937D
:100770006C012A013B015901CA019927C0E0D1E06F
:10078000C81BD90BE12CF12C0115110579F10C17BF
:100790001D0708F4E80141E062E0C6010E945F0322
:1007A000862D0E947601852D0E947601842D0E945F
:1007B000760115012E0C3F1C4101F40181914F017E
:1007C0000E947601C401821993098C179D07A8F332
:1007D000C6010E9418034C0E5D1E611C711CEC0EBC
:1007E000FD1E0C1B1D0BC0E0D1E0CECFDF91CF91E1
:1007F0001F910F91FF90EF90DF90CF90BF90AF903F
:100800009F908F907F906F905F904F903F902F9030
:100810000895EF92FF920F931F93CF93DF931F9250
:10082000CDB7DEB77C01142F062F41E062E5598376
:100830000E945F03802F0E9476015981852F0E94BC
:100840007601812F0E947601C7010F90DF91CF9131
:100850001F910F91FF90EF900C941803CF93DF93AB
:10086000EC0140E06BEA0E945F03CE01DF91CF9183
:100870000C941803CF93DF93EC018CB58B838DB56B
:100880008C8361E088810E947A1280E58D8381E00B
:100890008E83CE010E941803CE010E942E0489810E
:1008A0009A81892B51F0CE010E94280329813A8137
:1008B0008217930711F080E00CC041E061E0CE01A7
:1008C0000E945F0380E00E947601CE010E9418031F
:1008D00081E0DF91CF91089548E050E06BE171E055
:1008E00082EF91E00C94B6170F931F93CF93DF9391
:1008F00000E010E0CFEFDFEF8091F6019091F7017B
:1009000024E0880F991F2A95E1F708171907D8F4F2
:10091000A801465F5F4F60E070E08AEF91E00E94BF
:100920007B03C82788E09E01369527959C2FE90117
:1009300090FF04C091E0C92790EAD927815099F728
:100940000F5F1F4FD9CF81E02091F8013091F9015D
:10095000C217D30709F080E0DF91CF911F910F916B
:100960000895FF920F931F93CF93DF93CDB7DEB718
:100970002A970FB6F894DEBF0FBECDBF8091BC01A1
:10098000813009F047C048E050E06EEB71E082EF43
:1009900091E00E947417892B09F4E8C080E090E090
:1009A000892B21F080E190E00E94000088E0EEEBCE
:1009B000F1E0A2EFB1E001900D928A95E1F78AEFA4
:1009C00091E00E943A04F82E81110BC080E090E083
:1009D000892B21F081E790E00E9400001092F10144
:1009E000C7C040E050E0BA018AEF91E00E940904DC
:1009F0008AEF91E00E945B038111FACF8091F601AA
:100A00009091F7019093EC018093EB0181E080934A
:100A1000F101A0C0833009F0A9C0F090F101FF20DE
:100A200009F4A6C08091EB019091EC01019720910F
:100A3000C2013091C3012817390751F080E090E0DE
:100A4000892B09F497C082E190E00E94000092C0D7
:100A500080E090E0892B21F081E190E00E9400008D
:100A60004091EB015091EC0134E0440F551F3A9551
:100A7000E1F74650510960E070E000E110E024EC3D
:100A800031E08AEF91E00E94A6038AEF91E00E9494
:100A90005B038111FACF8091EB019091EC010197FA
:100AA0009093EC018093EB01892B09F053C01092D5
:100AB000F1010E947404882309F444C048E050E026
:100AC0006BE171E082EF91E00E94C6178091F60120
:100AD0009091F70124E0880F991F2A95E1F79E0174
:100AE0002F5F3F4F4AE0F90111924A95E9F746E43A
:100AF00049834CE44A8348E54B8349E44C834DE405
:100B00004D8347E44E834AE34F834A87988789871A
:100B10000AE010E040E050E0BA018AEF91E00E9464
:100B2000A6038AEF91E00E945B038111FACF98E05F
:100B300088E10FB6F894A895809360000FBE90935B
:100B40006000FFCF80E090E0892B21F083E790E008
:100B50000E94000086E08093EA011092ED0110925D
:100B6000EE011092EF011092F00104C0F12C02C0CE
:100B7000FF24F3948F2D2A960FB6F894DEBF0FBE94
:100B8000CDBFDF91CF911F910F91FF9008959C01F0
:100B90008091DD019091DE018217930751F09091D1
:100BA000E7019F719093E7013093DE012093DD010F
:100BB00005C08091E701805E8093E701E091DD014F
:100BC000F091DE010190F081E02D309709F0099558
:100BD0000E9480116093DF017093E0018093E10136
:100BE0009093E20108958091E8018F70863020F0A3
:100BF00088E191E00C94C70508950F931F930E941C
:100C000080110091DF011091E0012091E10130910C
:100C1000E201601B710B820B930B1F910F910895E2
:100C20000E94FD05613D77408105910520F480918A
:100C3000E70181FF08958091DB018F3F81F0809172
:100C4000E7018E7F8093E70180E090E0892B21F01F
:100C500085E090E00E94000084E191E011C0809165
:100C6000E701803618F488E191E00AC080E090E066
:100C7000892B21F088E690E00E94000088E091E056
:100C80000C94C7058091DA018F3F59F080E090E025
:100C9000892B21F087E090E00E94000080E191E044
:100CA00018C00E94FD05613D77408105910598F0CF
:100CB0008091E701803618F484E191E00AC080E079
:100CC00090E0892B21F089E690E00E94000088E006
:100CD00091E00C94C70508958091E9018F3FA1F040
:100CE0000E9480116093E3017093E4018093E50119
:100CF0009093E6018091E9019091DC018913809342
:100D0000DC018CE091E01BC00E94FD05613D774055
:100D100081059105B0F08091E701803618F480E1FB
:100D200091E00DC0877F8093E70180E090E0892B00
:100D300021F08AE690E00E94000088E191E00C94A6
:100D4000C7050895E091DD01F091DE010280F38195
:100D5000E02D309709F0099408959091E80190777B
:100D600081E0903709F080E00895CF92DF92EF9212
:100D7000FF920E94FD056B017C010E94AD0681116E
:100D800005C080E197E2A0E0B0E004C080E69AEE02
:100D9000A0E0B0E08C159D05AE05BF0540F48CE1E8
:100DA00091E0FF90EF90DF90CF900C94C705FF90FB
:100DB000EF90DF90CF900895E7EEF1E081818F789A
:100DC00081831092DE011092DD018CE191E00C94A0
:100DD000C7051F93CF93DF9300D01F92CDB7DEB727
:100DE000182F8091DA01FB018083438142FD05C009
:100DF000469546954695495F01C040E280E090E007
:100E0000892B51F080E090E049836A837B830E94C4
:100E100000007B816A814981413208F040E2812FE4
:100E20000E94370291E01F3F09F090E0892B0F905C
:100E30000F900F90DF91CF911F910895CF93FC01F8
:100E400022813091E70130FF03C02F3F51F505C0EB
:100E50002F3F19F0C091DB0101C0CFEFBC018C2FF7
:100E60000E94E9069091DB01C9131CC0811112C0D8
:100E700080E090E0892B21F085E690E00E94000060
:100E80008091E80191E0980F9F70807F892B80937B
:100E9000E80107C08091E801807F8093E80181E04C
:100EA00001C080E0CF9108952091E70122FD0C94CC
:100EB0001E0780E008958F3F51F08093020163E0A8
:100EC00082E20E94D40161E081E20E94D4010C948C
:100ED0000B02CF93DF931F92CDB7DEB7682F8FEF52
:100EE000860F8E3F68F46093DA01862F69830E9433
:100EF0005B07698180E090E00E94D61781E00CC01A
:100F000080E090E0892B21F08EE690E00E940000C6
:100F10008FEF8093DA0180E00F90DF91CF910895F9
:100F20000E94A80281110BC080E090E0892B21F083
:100F300087E690E00E94000088E091E00FC0809179
:100F4000E70180618093E7018091DA018F3F21F012
:100F50000E946907882381F388E191E00C94C7051A
:100F6000CF93DF93FC0110821182128214821582CA
:100F70001682DC0117968AE1ED0119928A95E9F74C
:100F800082E08383DF91CF910895FC012481229533
:100F900026952770213011F487810895211104C00E
:100FA00007960E942F17089580E008950E94C507B4
:100FB00091E0811101C090E0892F0895FC01948196
:100FC000929596959770953029F467817085818503
:100FD00092850895911104C0CF0107960C944D1786
:100FE00060E070E0CB010895CF93DF93EC016115D1
:100FF000710521F04A3118F049E101C040E050E0AC
:10100000CA0123E0880F991F2A95E1F79B81977009
:10101000892B8B838C818F71806C8C83CE0107969A
:101020000E948117CE01DF91CF9108950F931F93F6
:10103000CF93DF93EC016115710561F0FB01019025
:101040000020E9F73197E61BF70BE931F10518F0BD
:10105000E9E101C0E0E00E2F10E0C80123E0880FB5
:10106000991F2A95E1F79B819770892B8B838C813F
:101070008F718C83EE2329F0A801CE0107960E9480
:101080008A17FE01E00FF11F1782CE01DF91CF9189
:101090001F910F910895EF920F9380E090E0892BBC
:1010A00021F084E090E00E9400008091E701897FB8
:1010B00081608093E7018FEF8093DC018093DB01F7
:1010C000E12C07E023E04FEF6FEF86E991E00E940B
:1010D0008D0061E371E00E9416080F91EF900C946F
:1010E0001E07EF920F938091DA018F3FC9F480E0E1
:1010F00090E0892B21F086E090E00E940000E12C36
:1011000003E023E04FEF60E086E991E00E948D006C
:1011100061E371E00E9416080F91EF900C941E0796
:101120000F91EF900895FC0183818770886083831D
:1011300084818F71806284836783CF010895FC016D
:10114000838187708860838384818F7180628483C8
:101150006783CF010895EF920F9380E090E0892B91
:1011600021F088E090E00E9400008FEF8093E90179
:101170008091E70188608093E701E12C08E123E09A
:101180004FEF60E086E991E00E948D0061E00E94EF
:101190009F080F91EF900C941E07FC0184818F71C2
:1011A000806A8483838187708062838347835087CA
:1011B00061877287CF0108950C945407CF92DF9214
:1011C000EF92FF920F931F93CF93DF9300D000D045
:1011D00000D0CDB7DEB70E9480112091F10122230B
:1011E00009F453C00091ED011091EE012091EF013F
:1011F0003091F0016B017C01C01AD10AE20AF30AB6
:1012000045EFC41641E0D406E104F104F0F1209169
:10121000EA0121110BC080E090E0892B21F082E7E8
:1012200090E00E9400001092F1012FC02150209305
:10123000EA016093ED017093EE018093EF019093CA
:10124000F0018091F2019091F3019A83898380915A
:10125000F4019091F5019C838B838091EB01909137
:10126000EC0101979E838D83E12C02E024E04FEF97
:1012700060E086E991E00E948D0046E0BE016F5F6C
:101280007F4F0E94F4070E94DC0826960FB6F89460
:10129000DEBF0FBECDBFDF91CF911F910F91FF90A9
:1012A000EF90DF90CF900895EF920F93CF93DF935D
:1012B000C6E9D1E08B81877080658B838C818871D2
:1012C000846C8C8388E0E2EFF1E0ADE9B1E001905D
:1012D0000D928A95E1F783E090E0988B8F871092CA
:1012E000F101E12C00E024E04FEF60E0CE010E942C
:1012F0008D00DF91CF910F91EF900C94DC08FC01F1
:10130000962F8091DA0181836481607F262F21608E
:1013100088E0989FB0011124622B6483809195012D
:1013200080FF03C0CF010C94540780E00895EF9232
:101330000F93CF93C82FE62E00E023E04FEF60E03D
:1013400086E991E00E948D006C2F0E949F08CF914A
:101350000F91EF900C9454078F929F92AF92BF928F
:10136000EF920F93E82E0E94FD054B015C0106E110
:1013700023E04FEF60E086E991E00E948D00B50127
:10138000A4010E94CD080F91EF90BF90AF909F9065
:101390008F900C945407EF920F93CF93DF938F3F6E
:1013A00011F0EA0102C0C8E2D1E0E22E062F20E0EF
:1013B000482F60E086E991E00E948D00BE010E9406
:1013C0001608DF91CF910F91EF900C945407AF92D4
:1013D000BF92CF92DF92EF920F93CF93DF935C0196
:1013E0006B01D42F892B81F0E42E0BE023E04FEF2B
:1013F00060E086E991E00E948D00B5010E94160828
:101400000E945407C82F01C0C1E0C114D10479F073
:10141000ED2E0CE023E04FEF60E086E991E00E94C2
:101420008D00B6010E9416080E945407C8238C2F15
:10143000DF91CF910F91EF90DF90CF90BF90AF9061
:10144000089540E06EE271E082E391E00E94E709D6
:1014500020E041E351E060E081E00E94CB0920E020
:1014600041E351E060E082E00C94CB09A8950C9434
:1014700035110E94360A0C94F90C8F929F92AF920C
:10148000BF92CF92DF92EF92FF926B017C010E949C
:1014900080114B015C010E948011DC01CB01881995
:1014A0009909AA09BB098C159D05AE05BF0518F45D
:1014B0000E94390AF0CFFF90EF90DF90CF90BF905D
:1014C000AF909F908F9008958F929F92AF92BF920E
:1014D000CF92DF92EF92FF920F931F93CF93DF9300
:1014E0004B015C01042FD22F0E9480116B017C0103
:1014F00081E0D11180E08093BC01C0E010E00E9447
:101500008011DC01CB018C199D09AE09BF0988153A
:101510009905AA05BB0590F4C11110C00E94390AB3
:10152000E091BB01E770F0E0E017F10741F7C1E09F
:101530008091BC018D1719F3C0E0E1CF8C2FDF91B2
:10154000CF911F910F91FF90EF90DF90CF90BF90C0
:10155000AF909F908F900895EF920F931F93CF932A
:10156000DF93EC01162FE12C0FE023E04FEF0E94F8
:101570008D0061E371E00E9416088B8187708061A5
:101580008B838C818F71806C8C8381E08F83188634
:10159000CE010E94540711110DC02FE043E060ED11
:1015A00077E080E090E0DF91CF911F910F91EF9075
:1015B0000C94640ADF91CF911F910F91EF900895E1
:1015C000EF920F93CF9380E090E0892B21F089E098
:1015D00090E00E94000080919501816080939501C8
:1015E000C4E0E12C0AE123E04FEF60E086E991E0FE
:1015F0000E948D0062E00E949F080E94DC082BE19F
:1016000043E060ED77E080E090E00E94640A8111A1
:1016100002C0C15031F7CF910F91EF900895EF9232
:101620000F93CF9380E090E0892B21F08CE090E045
:101630000E9400000E94540960E086E991E00E9447
:10164000AC0A20E041E351E061E18FEF0E94CB0959
:10165000C091DB01E12C06E023E04FEF60E086E97A
:1016600091E00E948D006C2F0E949F080E94DC0870
:1016700026E043E060ED77E080E090E00E94640ABD
:1016800081E29AE0892B29F0CF910F91EF900C9491
:10169000210ACF910F91EF9008958091950181FDDE
:1016A00009C00E940F0B0E94E00A809195018260A0
:1016B0008093950108959091BC018091B8018111AA
:1016C0005EC09D3099F480E090E0892B21F08BE0A2
:1016D00090E00E94000098E088E10FB6F894A89589
:1016E000809360000FBE90936000FFCF9B3199F410
:1016F00087EB91E00E94D6079091950180FB90F9CD
:101700009093950180E090E0892B89F18AE090E048
:101710000E9400002CC0963099F49091BE0181E0A7
:10172000992319F09D3409F080E08093940141E001
:1017300050E063E071E084E991E00E94C61717C0B1
:10174000933119F40E940F0B12C0923121F480E002
:101750000E94AC090CC0913061F480E090E0892BCC
:1017600031F087EB91E00E94DE070E94000081E0EB
:1017700008959A30E1F381E09C3121F404C081E0C6
:101780009A3109F080E00895EF920F931F93CF9361
:10179000DF9380E090E0892B21F081E090E00E94CF
:1017A000000087EB91E00E9487022091BA01922FFE
:1017B0009695969596959A3108F099E122FD03C089
:1017C00057E0590F01C050E26091BB01C091BC01CC
:1017D000D091B8014091B7013091B901851741F01E
:1017E00080E090E0892B09F4E5C08CE690E00BC026
:1017F000822F8370823071F080E090E0892B09F4B1
:10180000D9C08DE690E0DF91CF911F910F91EF90BD
:101810000C940000162F17708091E8018068809367
:10182000E8018091DA01381393C0892F90E0AC0170
:1018300073E0440F551F7A95E1F72770242B20930E
:10184000BA01FC01E954FE4F178263FF17C081E221
:10185000E7EBF1E0A6E9B1E001900D928A95E1F79E
:1018600080919A01877F806180939A0130939701DC
:10187000D093980186E991E00E9454078091BB01C2
:1018800084FD59C0133009F050C087EB91E00E94ED
:10189000530181118FC0C43059F487EB91E00E944D
:1018A000C507DF91CF911F910F91EF900C946907BD
:1018B000C830D9F4C091E701C0FF7CC087EB91E04C
:1018C0000E94C5078F3F09F475C08F5F8F3F09F4F1
:1018D00071C09091DC01891708F06CC0C1FD6AC02D
:1018E0008093DC01D093DB0165C0C83159F4E12C51
:1018F00009E123E04FEF6D2F86E991E00E948D0012
:1019000061E04BC0C93171F48091E70183FF52C09F
:10191000877F8093E70187EB91E00E94C507809362
:10192000E90148C00E945B0B04C0143021F40E94FE
:10193000B10481113FC080E090E0892BD9F187EBA1
:1019400091E0DF91CF911F910F91EF900C940000E7
:101950003F3F81F5133051F58091E70182FF02C0CE
:10196000C73041F1C83031F1C43121F58091DB013C
:10197000481320C00E9480117370882799270E9405
:10198000B111C091DB01E12C05E123E04FEF6D2F98
:1019900086E991E00E948D006C2F0E949F08DF91E4
:1019A000CF911F910F91EF900C941E078091DB0156
:1019B000481709F2DF91CF911F910F91EF90089591
:1019C000CF938091E70184FF12C0C6E087E10E94B7
:1019D000180280FD05C0C15019F00E94C40BF6CF5B
:1019E0008091E70182FF03C0CF910C94DE08CF9174
:1019F00008950E94A2060C94E00C8F929F92AF92E1
:101A0000BF92CF92DF92EF92FF92CF93DF931F921C
:101A1000CDB7DEB76B017C010E9480114B015C01E8
:101A20000E948011DC01CB0188199909AA09BB0920
:101A30008C159D05AE05BF0528F0C114D104E10445
:101A4000F10471F40E94F90C8091E70182FB882770
:101A500080F989830E94360A8981882309F301C0AD
:101A600080E00F90DF91CF91FF90EF90DF90CF90CB
:101A7000BF90AF909F908F900895A89580E090E0E0
:101A8000892B11F00E94000026E040E052EC61E05A
:101A900070E08EE092E00E94E413809195018D7FCA
:101AA0008093950180E090E0892B11F00E94000066
:101AB00041E050E063E071E084E991E00E94B617F4
:101AC0000E946C046FEF81E090E00E94D6170E94A4
:101AD000DC068DE49BE09093D9018093D80160E00F
:101AE00070E0CB010E94FD0C81EF90E0892B11F09A
:101AF0000E94F100A8950895CF93EAEFF1E080E508
:101B00008583C1E0C68388E0808385E69FE1928378
:101B1000818387EB91E00E94B00786E991E00E9403
:101B2000B00783E791E00E94B007E3E7F1E0C683E6
:101B3000C0E1C58382E591E00E94B007E2E5F1E0F3
:101B400082E08683C583CF9108958F929F92AF9252
:101B5000BF92CF92DF92EF92FF924B015C018EE039
:101B600092E00E947B13809122018F3F91F480E4E8
:101B700088168FE19806A104B10458F089E090E03E
:101B80000E94060180E4881A8FE1980AA108B10832
:101B9000EACF75016401809122018F3F41F480EA10
:101BA00088168FE09806A104B10408F068C08091FF
:101BB00022018F3F41F480EDC81687E0D806E1048A
:101BC000F10408F069C0809122018F3F41F488EE52
:101BD000C81683E0D806E104F10408F068C08091DB
:101BE00022018F3F41F484EFC81681E0D806E1045A
:101BF000F10408F067C0809122018F3F39F48AEF29
:101C0000C816D104E104F10408F067C080912201F4
:101C10008F3F39F48DE7C816D104E104F10408F0D0
:101C200066C0809122018F3F39F480E4C816D10448
:101C3000E104F10408F065C0809122018F3F39F47E
:101C400080E2C816D104E104F10408F064C0809178
:101C500022018F3F09F069C080E1C816D104E10478
:101C6000F10408F462C080E090E0FF90EF90DF9014
:101C7000CF90BF90AF909F908F900C94060188E01A
:101C800090E00E9406017501640180EAC81A8FE0A5
:101C9000D80AE108F1088BCF87E090E00E940601A6
:101CA00080EDC81A87E0D80AE108F1088CCF86E0F9
:101CB00090E00E94060188EEC81A83E0D80AE10885
:101CC000F1088DCF85E090E00E94060184EFC81AEC
:101CD00081E0D80AE108F1088ECF84E090E00E940C
:101CE00006018AEFC81AD108E108F1088FCF83E016
:101CF00090E00E94060188E7C81AD108E108F108BF
:101D000090CF82E090E00E9406018CE3C81AD108CF
:101D1000E108F10891CF81E090E00E9406018EE198
:101D2000C81AD108E108F10892CFFF90EF90DF9038
:101D3000CF90BF90AF909F908F900895AF92BF9239
:101D4000CF92DF92EF92FF920F931F93CF93DF9387
:101D50001F92CDB7DEB7B82EA42E67017801F89494
:101D600080932101409320018FEFB81649F0462F50
:101D700050E069EB70E08B2D29830E94B51029811A
:101D80008FEFA81639F0422F50E06AEC70E08A2DF0
:101D90000E94B510C114D104E104F10429F0C70177
:101DA000B6010E94A50D04C08AE090E00E940601E1
:101DB0008FEFB81619F08B2D0E94D5108FEFA81653
:101DC00019F08A2D0E94D510809122018F3F19F0C1
:101DD0008091220101C08FEF9FEF909322010F901D
:101DE000DF91CF911F910F91FF90EF90DF90CF90F7
:101DF000BF90AF900895EF92FF920F931F937901D8
:101E00008A0120E04FEF0E949E0E1F910F91FF90DC
:101E1000EF9008952F923F924F925F926F927F9230
:101E20008F929F92AF92BF92CF92DF92EF92FF92EA
:101E30000F931F93CF93DF9300D000D0CDB7DEB7C1
:101E40004B015C01142F322ED02E2E2C8091F101EB
:101E5000882329F0C501B4010E943D0A86C0809103
:101E6000E70182FD2FC00E9480112B013C0180E020
:101E700090E0DC012091E70122FD17C0881599054B
:101E8000AA05BB0508F071C0803127E29207A105C1
:101E9000B10588F40E94390A0E948011DC01CB014F
:101EA00084199509A609B709E5CF88159905AA05EA
:101EB000BB0508F05AC0A5019401281B390B4A0B39
:101EC0005B0B02C0A5019401112389F080E02983F6
:101ED0003A834B835C830E94AC0964EF71E080E03D
:101EE00090E00E943D0A5C814B813A8129812983DF
:101EF0003A834B835C830E94E50180E090E0298176
:101F00003A814B815C81892B41F08EE090E00E9408
:101F100000005C814B813A8129818FEF381689F06E
:101F2000281649F079018A012C2D422D6D2D832D23
:101F30000E949E0E04C06D2D832D0E94FB0E182F53
:101F40000AC08FEF281206C0CA01B9010E94A50D70
:101F50001FEF01C01EEF80E090E0892B21F08FE0A1
:101F600090E00E940000812F01C08EEF0F900F9033
:101F70000F900F90DF91CF911F910F91FF90EF90F5
:101F8000DF90CF90BF90AF909F908F907F906F9099
:101F90005F904F903F902F900895CF92EF920F93C4
:101FA000CC24CA94EE24EA940FEF2FEF0E940A0F7C
:101FB0000F91EF90CF900895CF92EF92FF920F93F1
:101FC0001F93582FE62FC801B7013C2DC22EE42ED7
:101FD0000E2F252F432F0E940A0F1F910F91FF9064
:101FE000EF90CF900895CF92EF92FF920F931F93AF
:101FF000CF9340E065E070E080E090E00E94CD0F7C
:1020000082E00E94E612C82F80910101C81769F092
:1020100061E0C13009F060E083E791E00E9493083D
:1020200060E00E947F09C093010183E00E94E612F4
:10203000C82F80910001C81769F061E0C13009F034
:1020400060E082E591E00E94930860E00E947F09D1
:10205000C093000185E10E943412BC01990F880BE6
:10206000990B0E940E162EE531E04EE85BE30E94CC
:102070009A1620E030E040E250E40E94FE1420E096
:1020800030E048EC52E40E949A1628E939E949ED1B
:102090005FE30E946B1520E030E0A9010E94FF146D
:1020A0000E94DD15862F653608F084E660E00E9408
:1020B0009709C12CE12CF12C870121E041E061E07E
:1020C00080E00E94DC0FCF911F910F91FF90EF9065
:1020D000CF9008950E94F6110E943D0DC3EFDFE0FE
:1020E0000CE413E10E94390A209711F00E94F30FCB
:1020F00001151105B9F30E944C13F4CFCF93CFB75C
:10210000F89480910402811127C0EAE9F0E08491FB
:10211000E6E8F0E09491E82FF0E0EE0FFF1FE854BE
:10212000FF4FA591B491EC91E92321F461E08AE09D
:102130000E94B61261E08AE00E947A128CB580613A
:102140008CBD8CB580648CBD61E08DE00E947A12FC
:1021500061E08BE00E947A12809104028F5F80938D
:102160000402CFBFCF91089508958230E8F4E82F9C
:10217000F0E0EE0FFF1FED5DFE4F71836083813055
:1021800041F0809169008C7F482B40936900E89A68
:10219000089580916900440F551F440F551F837F98
:1021A000482B40936900E99A0895823078F4813091
:1021B00011F0E89801C0E998E82FF0E0EE0FFF1F5A
:1021C000ED5DFE4F84EB90E19183808308951F9233
:1021D0000F920FB60F9211242F933F934F935F935B
:1021E0006F937F938F939F93AF93BF93EF93FF93DF
:1021F000E0912301F09124010995FF91EF91BF91A6
:10220000AF919F918F917F916F915F914F913F918E
:102210002F910F900FBE0F901F9018951F920F9245
:102220000FB60F9211242F933F934F935F936F93A9
:102230007F938F939F93AF93BF93EF93FF93E0911F
:102240002501F09126010995FF91EF91BF91AF9182
:102250009F918F917F916F915F914F913F912F91BE
:102260000F900FBE0F901F90189508951F920F9218
:102270000FB60F9211242F933F938F939F93AF9399
:10228000BF938091060290910702A0910802B0913D
:1022900009023091050226E0230F2D3720F4029623
:1022A000A11DB11D05C029E8230F0396A11DB11D75
:1022B000209305028093060290930702A0930802E0
:1022C000B093090280910A0290910B02A0910C0236
:1022D000B0910D020196A11DB11D80930A02909349
:1022E0000B02A0930C02B0930D02BF91AF919F918E
:1022F0008F913F912F910F900FBE0F901F901895C7
:102300002FB7F8946091060270910702809108023D
:10231000909109022FBF08953FB7F89480910A0267
:1023200090910B02A0910C02B0910D0226B5A89BD2
:1023300005C02F3F19F00196A11DB11D3FBFBA2F57
:10234000A92F982F8827820F911DA11DB11DBC01B7
:10235000CD0143E0660F771F881F991F4A95D1F77B
:1023600008958F929F92AF92BF92CF92DF92EF9299
:10237000FF926B017C010E948C114B015C01C11426
:10238000D104E104F10401F10E9435110E948C1185
:10239000DC01CB0188199909AA09BB09883E934041
:1023A000A105B10560F321E0C21AD108E108F108E6
:1023B00088EE880E83E0981EA11CB11CC114D104C4
:1023C000E104F10419F7DBCFFF90EF90DF90CF909D
:1023D000BF90AF909F908F9008958330910528F023
:1023E000880F991F04970197F1F70895789484B5A1
:1023F000826084BD84B5816084BD85B5826085BD01
:1024000085B5816085BDEEE6F0E0808181608083E6
:10241000E1E8F0E0108280818260808380818160C9
:102420008083E0E8F0E0808181608083E1EBF0E090
:10243000808184608083E0EBF0E080818160808334
:10244000EAE7F0E08081846080838081826080831D
:1024500080818E7F80838081806880831092C1001C
:1024600008958093270108958E3008F08E5087706C
:102470002091270190E4299F90011124822B8093C1
:102480007C0080917A00806480937A0080917A0049
:1024900086FDFCCF809178002091790090E0922B0E
:1024A0000895833081F028F4813099F08230A1F0D2
:1024B00008958730A9F08830B9F08430D1F4809144
:1024C00080008F7D03C0809180008F778093800093
:1024D000089584B58F7702C084B58F7D84BD08953B
:1024E0008091B0008F7703C08091B0008F7D809382
:1024F000B0000895CF93DF9390E0FC01E458FF4FC4
:102500002491FC01E057FF4F8491882361F190E012
:10251000880F991FFC01E854FF4FC591D491FC012D
:10252000E255FF4FA591B491611109C09FB7F8948E
:102530008881209582238883EC912E230BC0623002
:1025400061F49FB7F8943881822F80958323888324
:10255000EC912E2B2C939FBF06C08FB7F894E88187
:102560002E2B28838FBFDF91CF9108951F93CF9398
:10257000DF93282F30E0F901E859FF4F8491F901EA
:10258000E458FF4FD491F901E057FF4FC491CC2399
:10259000C9F0162F81110E945112EC2FF0E0EE0FBE
:1025A000FF1FE255FF4FA591B4918FB7F894111119
:1025B00005C09C91ED2FE095E92302C0EC91ED2B35
:1025C000EC938FBFDF91CF911F910895CF93DF934D
:1025D000282F30E0F901E859FF4F8491F901E458C0
:1025E000FF4FD491F901E057FF4FC491CC2391F0F4
:1025F00081110E945112EC2FF0E0EE0FFF1FEC55FD
:10260000FF4FA591B491EC91ED2381E090E021F48E
:1026100080E002C080E090E0DF91CF910895FC015E
:10262000918D228D892F90E0805C9F4F821B9109B4
:102630008F7399270895FC01918D828D981731F041
:10264000828DE80FF11D858D90E008958FEF9FEF4B
:102650000895FC01918D828D981761F0828DDF01C4
:10266000A80FB11D5D968C91928D9F5F9F73928F85
:1026700090E008958FEF9FEF0895FC01538D448DF6
:10268000252F30E0842F90E0821B930B541710F01D
:10269000CF960895019708958CE994E1892B49F02C
:1026A00080E090E0892B29F00E949C1481110C9409
:1026B00000000895FC01848DDF01A80FB11DA35A0D
:1026C000BF4F2C91848D90E001968F739927848F52
:1026D000A689B7892C93A089B1898C9180648C9349
:1026E000938D848D981306C00288F389E02D808134
:1026F0008F7D80830895CF93DF93EC01888D8823AD
:10270000C9F0EA89FB89808185FD05C0A889B9895E
:102710008C9186FD0FC00FB607FCF5CF808185FF39
:10272000F2CFA889B9898C9185FFEDCFCE010E94A7
:102730005A13E7CFDF91CF910895EF92FF920F9355
:102740001F93CF93DF93EC0181E0888F9B8D8C8D5D
:10275000981305C0E889F989808185FD24C0F62E8B
:102760000B8D10E00F5F1F4F0F731127E02E8C8D24
:10277000E8120CC00FB607FCFACFE889F98980810E
:1027800085FFF5CFCE010E945A13F1CF8B8DFE014C
:10279000E80FF11DE35AFF4FF0820B8FEA89FB89A6
:1027A0008081806207C0EE89FF896083E889F989AA
:1027B00080818064808381E090E0DF91CF911F91E0
:1027C0000F91FF90EF900895CF92DF92EF92FF92DA
:1027D0001F93CF93DF93EC016A017B01122F60E816
:1027E00074E88EE190E0A70196010E940717DA01D4
:1027F000C9010197A109B109B695A7959795879544
:10280000AC01E889F98982E08083411580E15807AD
:10281000A8F0E889F989108260E472E48FE090E022
:10282000A70196010E940717BA01A9014150510959
:10283000610971097695679557954795EC85FD85F2
:102840005083EE85FF854083188EEC89FD891083C7
:10285000EA89FB89808180618083EA89FB898081A4
:1028600088608083EA89FB89808180688083EA8927
:10287000FB8980818F7D8083DF91CF911F91FF90B5
:10288000EF90DF90CF9008951F920F920FB60F92A6
:1028900011242F938F939F93EF93FF93E0911E0248
:1028A000F0911F028081E0912402F091250282FDC7
:1028B00012C09081809127028F5F8F732091280230
:1028C000821751F0E0912702F0E0E25FFD4F958F13
:1028D0008093270201C08081FF91EF919F918F919A
:1028E0002F910F900FBE0F901F9018951F920F926F
:1028F0000FB60F9211242F933F934F935F936F93D3
:102900007F938F939F93AF93BF93EF93FF938EE04B
:1029100092E00E945A13FF91EF91BF91AF919F9166
:102920008F917F916F915F914F913F912F910F9078
:102930000FBE0F901F9018958EE092E00E940F132B
:1029400021E0892B09F420E0822F0895EEE0F2E0E7
:102950001382128288EE93E0A0E0B0E08483958336
:10296000A683B78383E491E09183808385EC90E034
:102970009587848784EC90E09787868780EC90E049
:10298000918B808B81EC90E0938B828B82EC90E03A
:10299000958B848B86EC90E0978B868B118E128EB4
:1029A000138E148E0895CF92DF92EF92FF920F93C1
:1029B0001F93CF93DF936C017A018B01C0E0D0E0CD
:1029C000CE15DF0589F0D8016D918D01D601ED910D
:1029D000FC910190F081E02DC6010995892B11F43D
:1029E0007E0102C02196ECCFC701DF91CF911F91EC
:1029F0000F91FF90EF90DF90CF9008955058BB2734
:102A0000AA270E9416150C9460160E94521638F0E0
:102A10000E94591620F039F49F3F19F426F40C94C3
:102A20004F160EF4E095E7FB0C944916E92F0E942F
:102A3000711658F3BA17620773078407950720F0D9
:102A400079F4A6F50C9493160EF4E0950B2EBA2F9C
:102A5000A02D0B01B90190010C01CA01A0011124A4
:102A6000FF27591B99F0593F50F4503E68F11A1650
:102A7000F040A22F232F342F4427585FF3CF4695E1
:102A800037952795A795F0405395C9F77EF41F1603
:102A9000BA0B620B730B840BBAF09150A1F0FF0FCD
:102AA000BB1F661F771F881FC2F70EC0BA0F621FB9
:102AB000731F841F48F4879577956795B795F795A9
:102AC0009E3F08F0B0CF9395880F08F09927EE0F3E
:102AD0009795879508950E947F150C9460160E9423
:102AE000591658F00E94521640F029F45F3F29F021
:102AF0000C94491651110C9494160C944F160E9484
:102B0000711668F39923B1F3552391F3951B550B77
:102B1000BB27AA2762177307840738F09F5F5F4FB0
:102B2000220F331F441FAA1FA9F335D00E2E3AF0EF
:102B3000E0E832D091505040E695001CCAF72BD007
:102B4000FE2F29D0660F771F881FBB1F2617370758
:102B50004807AB07B0E809F0BB0B802DBF01FF278A
:102B600093585F4F3AF09E3F510578F00C94491608
:102B70000C9494165F3FE4F3983ED4F386957795D2
:102B80006795B795F7959F5FC9F7880F911D969543
:102B9000879597F90895E1E0660F771F881FBB1F9F
:102BA000621773078407BA0720F0621B730B840B4C
:102BB000BA0BEE1F88F7E09508950E94791688F009
:102BC0009F5798F0B92F9927B751B0F0E1F0660FF1
:102BD000771F881F991F1AF0BA95C9F714C0B13032
:102BE00091F00E949316B1E008950C949316672F0C
:102BF000782F8827B85F39F0B93FCCF38695779561
:102C00006795B395D9F73EF4909580957095619549
:102C10007F4F8F4F9F4F0895E89409C097FB3EF474
:102C200090958095709561957F4F8F4F9F4F992319
:102C3000A9F0F92F96E9BB279395F6958795779597
:102C40006795B795F111F8CFFAF4BB0F11F460FF57
:102C50001BC06F5F7F4F8F4F9F4F16C0882311F0AF
:102C600096E911C0772321F09EE8872F762F05C0C3
:102C7000662371F096E8862F70E060E02AF09A955E
:102C8000660F771F881FDAF7880F9695879597F953
:102C9000089597F99F6780E870E060E008959FEFDE
:102CA00080EC089500240A941616170618060906E3
:102CB000089500240A9412161306140605060895B2
:102CC000092E0394000C11F4882352F0BB0F40F43A
:102CD000BF2B11F460FF04C06F5F7F4F8F4F9F4F7A
:102CE000089557FD9058440F551F59F05F3F71F0FC
:102CF0004795880F97FB991F61F09F3F79F0879563
:102D00000895121613061406551FF2CF4695F1DFEB
:102D100008C0161617061806991FF1CF869571057B
:102D2000610508940895E894BB2766277727CB01AF
:102D300097F908950E94AD160C9460160E945216E1
:102D400038F00E94591620F0952311F00C94491682
:102D50000C944F1611240C9494160E94711670F363
:102D6000959FC1F3950F50E0551F629FF001729F30
:102D7000BB27F00DB11D639FAA27F00DB11DAA1F3F
:102D8000649F6627B00DA11D661F829F2227B00D8C
:102D9000A11D621F739FB00DA11D621F839FA00D17
:102DA000611D221F749F3327A00D611D231F849F67
:102DB000600D211D822F762F6A2F11249F575040BE
:102DC0009AF0F1F088234AF0EE0FFF1FBB1F661F39
:102DD000771F881F91505040A9F79E3F510580F002
:102DE0000C9449160C9494165F3FE4F3983ED4F388
:102DF000869577956795B795F795E7959F5FC1F7A6
:102E0000FE2B880F911D9695879597F90895A1E25D
:102E10001A2EAA1BBB1BFD010DC0AA1FBB1FEE1F54
:102E2000FF1FA217B307E407F50720F0A21BB30B9F
:102E3000E40BF50B661F771F881F991F1A9469F71B
:102E400060957095809590959B01AC01BD01CF0177
:102E50000895EE0FFF1F0590F491E02D0994FC01F9
:102E600088279927E89421912032E9F3293010F03E
:102E70002E30C8F32B3241F02D3239F4689404C05F
:102E80000E94AE17820F911D219120532A30C0F36A
:102E90001EF4909581959F4F08951F93FC019927EB
:102EA0008827BC01E89411911032E9F3193010F031
:102EB0001E30C8F31B3251F01D3249F4689406C02D
:102EC0000E949917610F711D811D911D1191105361
:102ED0001A30B0F33EF490958095709561957F4FD0
:102EE0008F4F9F4F1F910895FB01DC0104C08D910E
:102EF0000190801921F441505040C8F7881B990B6C
:102F00000895FB01DC0102C001900D924150504038
:102F1000D8F70895FB01DC014150504048F0019082
:102F20000D920020C9F701C01D9241505040E0F7BA
:102F30000895592F482F372F262F660F771F881F88
:102F4000991F660F771F881F991F620F731F841FB9
:102F5000951F660F771F881F991F08957AE0979F26
:102F6000902D879F802D910D11240895DC01CB01B8
:102F7000FC01F999FECF06C0F2BDE1BDF89A319689
:102F800000B40D9241505040B8F70895DC01A40FF1
:102F9000B51F4150504048F0CB01840F951F2E9132
:102FA0000E94D71741505040D0F70895262FF99925
:102FB000FECF92BD81BDF89A019700B4021639F098
:102FC0001FBA20BD0FB6F894FA9AF99A0FBE089569
:042FD000F894FFCFA3
:102FD4000202FF00FCE1A8A8EA01B506A700F30578
:102FE400AB086C06710842064B081006DB0090071C
:102FF400FFFFFFB410B41001322E312E3100322EF7
:1030040030004D79534C69706F207265656400001F
:103014000000009D13D3143D137B130F1329131BBE
:02302400130097
:107C00001F92CDB7DEB7112484B714BE81FD06C024
:107C100083FF03C08983F4D08981E3D185E0809319
:107C2000810082E08093C00088E18093C10096E0EB
:107C30009093C20090E19093C400809360008EE026
:107C4000809360003B9A86E028E13EEF91E030931C
:107C500085002093840096BBB09BFECF339AA895F5
:107C60008150A9F7612C712C08E128E0F22EEE2456
:107C7000E39435E0D32E41E1C42E13E08BD181345F
:107C800069F488D1898394D189818238F9F0813867
:107C900011F485E001C083E076D17BC0823411F419
:107CA00084E103C0853419F485E08ED172C0853536
:107CB00049F470D1B82E6ED16B2C712C782A660CD9
:107CC000771C66C0863521F484E07ED180E0E4CF65
:107CD000843609F03FC05ED15DD1982E5BD161142E
:107CE00080E7780618F4F30117BFE895A12CBB24B0
:107CF000B39450D1F50181935F019E12FACF6114C4
:107D0000F0E77F0618F0F30117BFE89551D107B6E9
:107D100000FCFDCFA301A0E0B1E08C9112969D0183
:107D200021503109F901208190E0922BFA010C01D8
:107D3000E7BEE89511244E5F5F4FA038F1E0BF0722
:107D400061F7F301D7BEE89507B600FCFDCFC7BECB
:107D5000E8951FC0843769F41DD11CD1B82E1AD103
:107D600027D1F30185913F010ED1BA94B110F9CF1B
:107D700010C0853739F41CD18EE105D185E903D1D6
:107D80008FE08ACF813521F400936000F09260008B
:107D90000FD180E1F8D072CF8EBD0DB407FEFDCFBC
:107DA0008EB50895289885E0F7DF80E0F5DF289A02
:107DB00081700895CF93C82F662321F060E086E09C
:107DC000F9DF289AEFDF8111FDCF28988C2FCF9112
:107DD000E3CFCF92DF92EF92FF926B017C0160E0E4
:107DE00083E0E8DF8E2DD8DF8D2DD6DF8C2DD4DF1C
:107DF00080E0D2DF289AFF90EF90DF90CF90089537
:107E00009F92AF92BF92CF92DF92EF92FF920F9329
:107E10001F93CF93DF9388E18093600010926000FE
:107E200084B18D6284B9289A2A9A8CB580658CBDFC
:107E300028988FE9B1DF80E0AFDF289A81508E3F2C
:107E400008F095C061E081E0B5DF80E0A5DF289A09
:107E500060E070E0CB01BDDF863409F088C061E0EE
:107E600070E080E090E0B5DF8C3409F080C062E023
:107E700070E080E090E0ADDF883509F078C066E022
:107E800070E080E090E0A5DF8A3309F070C069E01F
:107E900070E080E090E09DDF8A3309F068C067E021
:107EA00070E080E090E095DFC82F68E070E080E04F
:107EB00090E08FDFD0E0DC2FCC27C82BC0FD57C06F
:107EC000339AC12CD12C00E010E0BB24B39483E0A2
:107ED000A82E95E0992E0C171D0770F5B801665F66
:107EE0007F4F80E090E075DFE82EF12CB801655FF0
:107EF0007F4F80E090E06DDFF82AF8010701B7BE00
:107F0000E89511240E5F1F4FC8018F779927892BA1
:107F100019F00C171D07F9F6F601A7BEE89507B68C
:107F200000FCFDCFF60197BEE89507B600FCFDCF3B
:107F3000F0E8CF0ED11CCFCF339881E187BFE89511
:107F40002A9661E0C130D04810F482E501C088ED86
:107F500031DF80E021DF80E01FDF80E01DDF289A35
:107F600088E18093600088E080936000FFCFDF911C
:107F7000CF911F910F91FF90EF90DF90CF90BF9026
:107F8000AF909F9008959091C00095FFFCCF809393
:107F9000C6000895339A8091C00087FFFCCF80917E
:107FA000C00084FD01C0A8958091C600339A089551
:107FB000F1DF803239F088E18093600088E08093BF
:107FC0006000FFCF84E1DFCFCF93C82FE3DFC15044
:107FD000E9F7CF91EDCFE0E6F0E098E19083808380
:107FE0000895282EE0E6F0E088E180831082EE27F5
:047FF000FF270994CA
:027FFE0000057C
:0400000300007C007D
:00000001FF
