:100000000C94B2000C94D2080C94AB080C94DA0057
:100010000C94DA000C94DA000C9435100C94DA008D
:100020000C94DA000C94DA000C94DA000C94DA00E8
:100030000C94DA000C94DA000C94DA000C94DA00D8
:100040000C9461080C94DA000C941F090C94F908C4
:100050000C94DA000C94DA000C94DA000C94DA00B8
:100060000C94DA000C94DA00005EBCE2613FDD83A0
:10007000C29C7E20A3FD1F41009D23BE46DB65F888
:100080008C11AF32CA57E974000000002400270029
:100090002A0000000000250028002B0000000008B6
:1000A000000201000003040700000000000000003F
:1000B00000000000230026002900040404040404B6
:1000C0000404020202020202030303030303010207
:1000D00004081020408001020408102001020408D6
:1000E0001020322E332E310A00207C5F5C2F602CD2
:1000F0000A0702200220B2871003400120002402D8
:1001000022100222020220022200222002022022C9
:1001100027101341010101032220304020305203F7
:100120004022140203105224022171010010101207
:1001300010122210100224010103220300200101E9
:1001400000322037121001213226012840322212BB
:1001500010121222432224121001222470C12224E0
:100160000F0F541011241FBECFEFD8E0DEBFCDBF5C
:1001700011E0A0E0B1E0EAEAF8E202C005900D92D9
:10018000AA35B107D9F722E0AAE5B1E001C01D9276
:10019000AD39B207E1F710E0C2EBD0E004C021971F
:1001A000FE010E943914C13BD107C9F70E94F61025
:1001B0000C9453140C94000083E08093000110927F
:1001C0002D0208950895EF92FF921F93CF93DF932E
:1001D000182F7B0180916901FB018083438142FDDF
:1001E00006C0469546954695C7E0C40F01C0C0E2DB
:1001F000D0916C01D170299880E091E00197F1F7DE
:100200006EE080E20E94DA0E84EC90E00197F1F754
:10021000612F8AE20E94DA0E612F80E30E94DA0EDB
:1002200081EE0E94260F1F3F11F0DD2311F080EBBD
:1002300001C080EA4C2FC13208F040E220E0B70153
:100240000E94A90E299AE12CF12C8FEF0E94260F13
:10025000C82F807321F4F1E0EF1AF108B1F7299863
:1002600060E387E20E94DA0EC4FF03C081EE0E94C1
:10027000260F0E94130FC5FDD1E081E01F3F09F05A
:1002800080E08D2BDF91CF911F91FF90EF9008952B
:10029000FC01838187708860838384818F71806291
:1002A00084836783CF0108950F931F93CF93DF93C8
:1002B000EC016115710561F0FB0101900020E9F787
:1002C0003197E61BF70BE931F10518F0E9E101C0C0
:1002D000E0E00E2F10E08B81282F2770C80133E05B
:1002E000880F991F3A95E1F7822B8B838C818F7150
:1002F0008C83EE2329F0A801CE0107960E944414B6
:10030000FE01E00FF11F1782CE01DF91CF911F9107
:100310000F9108958091640184FD0C94A30B0895BE
:100320000F931F93CF938C01FC0182819091640104
:1003300090FF03C08F3F39F50CC0882339F08F3F01
:1003400041F0B8010E94E30081111EC0C0916A0112
:1003500001C0CFEFB8018C2F0E94E30090916A0199
:10036000C91312C090916501811108C081E0890F05
:100370008F70907F982B9093650105C0907F90932C
:10038000650181E001C080E0CF911F910F91089538
:100390002091640122FD0C94900180E008952BE0EF
:1003A00043E06FEF80E00E94BC066FE371E00E94C3
:1003B00054010E94C8012CE043E06FEF80E00E94EE
:1003C000BC066BE471E00E9454010E94C80126E063
:1003D00040E060E080E00E94BC0669E571E00E94B8
:1003E00054010C94C801CF932FE043E06FEF80E0FD
:1003F0000E94BC0669E571E00E945401EFE3F2E05F
:10040000838187708061838384818F71806C848312
:1004100081E087831086CF010E94C8018FE00E948F
:100420009A0721E140E06FEF80E00E94BC0661E5A1
:1004300071E00E9454010E94C801C0916A0126E047
:1004400043E06FEF80E00E94BC066C2F0E944801E1
:100450000E94C80186E00E949A07CF910C94CF01B8
:10046000CF9380919B0281FD1FC00E94F301809178
:100470009B02816080939B02C4E02AE143E06FEF1E
:1004800080E00E94BC0662E00E9448010E94C80110
:100490008BE10E949A07811102C0C15071F78091CF
:1004A0009B02826080939B02CF910895E0915A0154
:1004B000F0915B01309721F00280F381E02D0994E7
:1004C00008958F929F92AF92BF92CF92DF92EF9258
:1004D000FF924B015C010E948E076B017C010E9420
:1004E0008E07DC01CB018C199D09AE09BF09881567
:1004F0009905AA05BB0530F4A8950E9456020E94F2
:100500008A01EDCFFF90EF90DF90CF90BF90AF903A
:100510009F908F9008958F929F92AF92BF92CF92AB
:10052000DF92EF92FF920F931F93CF93DF93CDB79C
:10053000DEB761970FB6F894DEBF0FBECDBF61E0A6
:1005400085E00E94180761E070E080E090E00E9482
:10055000610261E085E00E94CB0662E070E080E02D
:1005600090E00E946102E0913102F0913202138624
:1005700015861486DF011B9633961E92EA17FB0739
:10058000E1F710922F021092300201E0BE016F5F7E
:100590007F4F80913102909132020E949D09882301
:1005A00009F465C067E0CE0101960E945109988563
:1005B0008913ECCF80912B02811127C080913102E9
:1005C000909132020E94570BBE016F5F7F4F809166
:1005D0003102909132020E94540A40E064EB809113
:1005E0003102909132020E9469098091310290910A
:1005F00032020E94040B182F809131029091320236
:100600000E94570B112309F42EC210912C028981EC
:10061000803109F431C2CE0101960E94D60A8117B9
:1006200018F480912C0209C08981803111F48CE08A
:1006300004C0CE0101960E94D60A80932C028091BC
:100640002F028F5F80932F028981883209F40EC2B6
:1006500038F4803109F40AC2823209F097CF06C219
:100660008B3309F403C2823409F090CFFFC18BE0D1
:1006700080932C02E12CF12C0FE5EFE7DE2EFFE159
:10068000CF2EAFE3BA2E80912F0290E0E816F90644
:100690000CF0A0C06E2DCE010A960E941F0A109188
:1006A0002C02193020F01D3018F01CE001C019E0B8
:1006B0008A85803129F0CE010A960E94D60A01C0AF
:1006C0008CE0181709F482C0BE016F5F7F4FCE0126
:1006D0000A960E94730A882309F478C08A858031BB
:1006E00009F474C01B3041F01C3021F01A3031F491
:1006F000BD8205C0DD8203C00D8301C0CD82809123
:100700003102909132020E94570BBE01665F7F4F0B
:1007100080913102909132020E94540A40E06EE4CE
:1007200080913102909132020E94690940E06B8110
:1007300080913102909132020E94690940E06C81FF
:1007400080913102909132020E9469098A8580313C
:1007500041F040E06D8180913102909132020E941F
:10076000690980913102909132020E94570BBE01BB
:10077000665F7F4F80913102909132020E94540A4D
:1007800040912B0268E480913102909132020E94E4
:10079000690964E170E080E090E00E945407809174
:1007A0002B02882331F06AE070E080E090E00E9444
:1007B000540780913102909132020E94570B809130
:1007C0002C02811708F4812F80932C022FEFE21A5C
:1007D000F20A59CF80913102909132020E94570B58
:1007E00040E06CEC80913102909132020E946909E4
:1007F00040912B0264E480913102909132020E9478
:10080000690980912D028823D9F1E0912C02E950E9
:10081000E33040F4F0E0EE0FFF1FE95DFE4F008192
:10082000118102C00EEE12E080912E02882311F198
:1008300080912B0281111EC00E948E074B015C012A
:100840006801110FEE08FF08809131029091320289
:100850000E94040B8130A1F00E948E07DC01CB01C5
:100860008C199D09AE09BF0988159905AA05BB0514
:1008700058F306C0B801110F880B990B0E9454075A
:100880006CE771E080E090E00E94D20760E0CE016A
:100890000A960E941F0A882309F4F2C0BE016F5F06
:1008A0007F4FCE010A960E94730A882361F12A8144
:1008B00030E0C901982F8827990F990F990F698106
:1008C00048E0649FB00111249C01262B372B8A85B8
:1008D0008031E1F4688570E08F81AB01481B5109DC
:1008E000CA019695982F8827979587950E9411148D
:1008F00060517109207F53E0220F331F5A95E1F7B1
:10090000620F731F04C060E874EE01C0B901613862
:1009100054EE75070CF4B4C0072E000C880B990B2D
:100920000E945F1220E030E040E05CE30E94BE12D3
:100930006B017C0160E085E00E94CB0620E030E0A6
:100940004EEF52ECC701B6010E945812882369F19C
:1009500020E030E04AEA52E4C701B6010E94581292
:1009600087FF23C080910D028770886280930D02FB
:1009700080910E02C0921102D0921202E0921302F4
:10098000F092140292E09093150290916901909375
:100990000B028071816E80930E0280919B0280FF1A
:1009A00004C08AE092E00E94C8018091000120E426
:1009B000829FC0011124876080937C0080917A001F
:1009C000806480937A0080917A0086FDFCCFA091AC
:1009D000780080917900B0E0B82B20E432E44FE059
:1009E00050E00E94D81324EC3EE044E250E00E9424
:1009F000E0132C52314041095109A4E6B0E00E94B5
:100A0000CD1328E730E040E050E00E94AE13122FF3
:100A100020E043E06FEF80E00E94BC06612F1536B6
:100A200008F064E60E9448010E94C80160E085E089
:100A30000E94180761E476E289E090E00E94D20704
:100A400061960FB6F894DEBF0FBECDBFDF91CF9198
:100A50001F910F91FF90EF90DF90CF90BF90AF90DC
:100A60009F908F90089500932B02CFCD80913002FC
:100A70008F5F809330028ACD1D3008F0D2CDD7CD64
:100A800060E085E00E94CB0690CF0F931F930E94F9
:100A90008E0700915C0110915D0120915E01309103
:100AA0005F01601B710B820B930B1F910F910895D7
:100AB0009C0180915A0190915B018217930751F03C
:100AC000909164019F719093640130935B01209336
:100AD0005A0105C080916401805E80936401E091B9
:100AE0005A01F0915B01309721F00190F081E02DE7
:100AF00009950E948E0760935C0170935D0180935D
:100B00005E0190935F0108953FB7F894809186024B
:100B100090918702A0918802B091890226B5A89B86
:100B200005C02F3F19F00196A11DB11D3FBFBA2F7F
:100B3000A92F982F8827820F911DA11DB11DBC01DF
:100B4000CD0143E0660F771F881F991F4A95D1F7A3
:100B500008950895CF92DF92EF92FF920F931F9323
:100B6000CF93DF936C017A018B01C0E0D0E0CE150A
:100B7000DF0581F0D8016D918D01D601ED91FC91D9
:100B80000190F081E02DC6010995892B11F0219685
:100B9000EECF7E01C701DF91CF911F910F91FF90A2
:100BA000EF90DF90CF900895089580E090E0089551
:100BB000FC01538D448D252F30E0842F90E0821B63
:100BC000930B541710F0CF96089501970895FC01E8
:100BD000918D828D981761F0828DDF01A80FB11D74
:100BE0005D968C91928D9F5F9F73928F90E0089598
:100BF0008FEF9FEF0895FC01918D828D981731F052
:100C0000828DE80FF11D858D90E008958FEF9FEFA5
:100C10000895FC01918D228D892F90E0805C9F4F7B
:100C2000821B91098F73992708958DE691E00E94A8
:100C3000090621E0892B09F420E0822F0895FC01A8
:100C4000848DDF01A80FB11DA35ABF4F2C91848D55
:100C500090E001968F739927848FA689B7892C938A
:100C6000A089B1898C91837080648C93938D848DDD
:100C7000981306C00288F389E02D80818F7D8083E0
:100C80000895EF92FF920F931F93CF93DF93EC01A0
:100C900081E0888F9B8D8C8D981305C0E889F98938
:100CA000808185FD26C0F62E0B8D10E00F5F1F4F53
:100CB0000F731127E02E8C8DE8120CC00FB607FCC5
:100CC000FACFE889F989808185FFF5CFCE010E94AE
:100CD0001F06F1CF8B8DFE01E80FF11DE35AFF4F88
:100CE000F0829FB7F8940B8FEA89FB89808180623C
:100CF0000AC09FB7F894EE89FF896083E889F98973
:100D000080818370806480839FBF81E090E0DF9169
:100D1000CF911F910F91FF90EF900895CF93DF93A4
:100D2000EC01888D8823C9F0EA89FB89808185FDE3
:100D300005C0A889B9898C9186FD0FC00FB607FC44
:100D4000F5CF808185FFF2CFA889B9898C9185FF85
:100D5000EDCFCE010E941F06E7CFDF91CF9108951E
:100D600080E090E0892B29F00E94150681110C94F7
:100D7000000008950E943F14EFE3F2E090916901B2
:100D8000918382836683258384814770807E482B8C
:100D90004483CF01089590E0FC01E456FF4F249175
:100DA000FC01E253FF4F3491FC01E654FF4FE49104
:100DB000EE2309F43CC0222339F1233091F038F4BA
:100DC0002130A9F0223001F584B58F7D12C0273083
:100DD00091F02830A1F02430B9F4809180008F7D0B
:100DE00003C0809180008F77809380000DC084B510
:100DF0008F7784BD09C08091B0008F7703C0809148
:100E0000B0008F7D8093B000F0E0EE0FFF1FEE5634
:100E1000FF4FA591B4919FB7F894611104C08C91D4
:100E20003095382302C0EC913E2B3C939FBF089530
:100E3000CF93DF9390E0FC01E253FF4F2491FC013C
:100E4000E654FF4F8491882361F190E0880F991F49
:100E5000FC01E857FF4FC591D491FC01EE56FF4FBE
:100E6000A591B491611109C09FB7F894888120952C
:100E700082238883EC912E230BC0623061F49FB7EC
:100E8000F8948881322F309583238883EC912E2B20
:100E90002C939FBF06C08FB7F894E8812E2B288330
:100EA0008FBFDF91CF9108958F929F92AF92BF92A3
:100EB000CF92DF92EF92FF926B017C010E9484053A
:100EC0004B015C01C114D104E104F104F1F00E9472
:100ED0008405DC01CB0188199909AA09BB09883E60
:100EE0009340A105B10570F321E0C21AD108E108D1
:100EF000F10888EE880E83E0981EA11CB11CC11475
:100F0000D104E104F10419F7DDCFFF90EF90DF90F9
:100F1000CF90BF90AF909F908F9008952FB7F89487
:100F20006091820270918302809184029091850287
:100F30002FBF0895CF92DF92EF92FF92CF93DF936E
:100F4000D82F0E948E076B017C0181E0D11180E0D7
:100F500080936502C0E00E948E07DC01CB018C19F2
:100F60009D09AE09BF09803D9740A105B10590F4E8
:100F7000C11110C0A8950E9456020E948A0180915A
:100F800064028770833039F7C1E0809165028D1368
:100F9000E1CFE1CF8C2FDF91CF91FF90EF90DF90E9
:100FA000CF9008958F929F92AF92BF92CF92DF928F
:100FB000EF92FF92CF93DF936B017C0180916401EC
:100FC00082FD1CC00E948E074B015C0180E090E016
:100FD000DC012091640122FD62C08C159D05AE05E7
:100FE000BF0508F062C0803127E29207A105B10574
:100FF00008F447C0C81AD90AEA0AFB0A0E94F50E8B
:10100000C114D104E104F10451F18FE0C80ED11CE8
:10101000E11CF11CC1E0D0E0809105018F3F11F58A
:1010200020E1C216D104E104F104E0F089E094E08B
:10103000980F4E0102C0880C991C9A95E2F7A12CDA
:10104000B12CC814D904EA04FB0438F00E94E20F62
:10105000C818D908EA08FB08DFCF8150E8CF8FEF26
:101060000E94E20F809105018F3F19F0C0910501A8
:1010700001C0CFEF8FEF809305010E94EB0E8C2F04
:1010800015C0A8950E9456020E948A010E948E07F0
:10109000DC01CB0188199909AA09BB099ACF8C15E3
:1010A0009D05AE05BF0508F4A5CF8EEFDF91CF916A
:1010B000FF90EF90DF90CF90BF90AF909F908F9078
:1010C00008951F920F920FB60F9211242F933F9302
:1010D0008F939F93AF93BF938091820290918302ED
:1010E000A0918402B09185023091810226E0230F05
:1010F0002D3720F40296A11DB11D05C029E8230F4C
:101100000396A11DB11D20938102809382029093CA
:101110008302A0938402B09385028091860290910D
:101120008702A0918802B09189020196A11DB11D8C
:101130008093860290938702A0938802B0938902DD
:10114000BF91AF919F918F913F912F910F900FBEC3
:101150000F901F9018951F920F920FB60F921124A7
:101160002F933F934F935F936F937F938F939F93AF
:10117000AF93BF93EF93FF93E0910301F0910401CC
:101180000995FF91EF91BF91AF919F918F917F91C1
:101190006F915F914F913F912F910F900FBE0F90E4
:1011A0001F9018951F920F920FB60F9211242F9334
:1011B0003F934F935F936F937F938F939F93AF93DF
:1011C000BF93EF93FF93E0910101F0910201099524
:1011D000FF91EF91BF91AF919F918F917F916F910F
:1011E0005F914F913F912F910F900FBE0F901F90E5
:1011F00018951F920F920FB60F9211242F933F93C1
:101200004F935F936F937F938F939F93AF93BF930E
:10121000EF93FF938DE691E00E941F06FF91EF91FF
:10122000BF91AF919F918F917F916F915F914F91FE
:101230003F912F910F900FBE0F901F9018951F9206
:101240000F920FB60F9211242F938F939F93EF93CA
:10125000FF93E0917D01F0917E018081E091830117
:10126000F091840182FD12C09081809186018F5F90
:101270008F7320918701821751F0E0918601F0E091
:10128000E359FE4F958F8093860101C08081FF91C5
:10129000EF919F918F912F910F900FBE0F901F9004
:1012A0001895DC0180E0615098F02D91982F9227DD
:1012B000E92FEF70F0E0E859FF4F249192959F706D
:1012C000E92FF0E0E858FF4FE491822F8E27EBCF13
:1012D0000895DF92EF92FF920F931F93CF93DF93C6
:1012E000EC01D62EE42E08E010E0FF24F39461E038
:1012F0008D2D8F2109F460E0CE010E94280BFF0C98
:1013000001501109A1F7E11010C0F894E981FA81A8
:1013100091818881809589238183E981FA819281F5
:1013200088818095892382837894DF91CF911F9162
:101330000F91FF90EF90DF900895BF92CF92DF92D0
:10134000EF92FF920F931F93CF93DF93EC016B010A
:101350008D85811105C0CE010E94570B811105C0FA
:101360001B861D861C8680E060C040E060EFCE01D9
:101370000E94690901E0E12CB12C11E0CE010E942C
:10138000040BF82ECE010E94040B91E0F91203C069
:101390008130B1F434C02E2D30E0F8121BC08B85A3
:1013A000181738F4FE01E20FF31F8381802341F404
:1013B00002C0811729F0F12C193058F41C8709C09C
:1013C000FE01EE0DF11D8381802B8383FF24F394B6
:1013D00009C0B12EFE01E20FF31F9381802F80958B
:1013E000892383836F2DCE010E94280B1F5F000F7E
:1013F00011F4E39401E087E08E1508F0BFCF1134BB
:1014000008F4AECFBB86B11002C081E08D878B811E
:10141000882309F4A5CFDE011396F6012B968D9152
:101420008193CA17DB07D9F781E0DF91CF911F9134
:101430000F91FF90EF90DF90CF90BF900895FF92B3
:101440000F931F93CF93DF938C01F62EE09131021F
:10145000F0913202138615861486DF011B963396AF
:101460001E92EA17FB07E1F7C0E0B8018091310254
:10147000909132020E949D09D82F882369F0FC12B6
:1014800008C067E0C8010E945109F80197818917D7
:1014900021F0CF5FFC1648F7D0E08D2FDF91CF9180
:1014A0001F910F91FF900895EF92FF920F931F935A
:1014B000CF93DF938C017B0140E065E50E946909D1
:1014C000E70188E0E80EF11C699140E0C8010E9444
:1014D0006909CE15DF05C1F7DF91CF911F910F91FB
:1014E000FF90EF9008958F929F92AF92BF92CF920C
:1014F000DF92EF92FF920F931F93CF93DF938C01B4
:10150000EB0180913102909132020E94570B8823A7
:1015100009F43DC0B80180913102909132020E94DD
:10152000540A40E06EEB80913102909132020E94A9
:1015300069098E015E0189E0A80EB11C809031021C
:101540009090320288E0C82ED12CF12CEE24E39446
:10155000C4010E94040B8111FE28EE0CE1E0CE1ABA
:10156000D108B1F7F801F1928F01EA15FB0531F7C7
:1015700080913102909132020E94570B813039F4F0
:1015800068E0CE010E94510991E02885281390E07F
:10159000892FDF91CF911F910F91FF90EF90DF90F6
:1015A000CF90BF90AF909F908F900895CF93DF938F
:1015B000CDB7DEB729970FB6F894DEBF0FBECDBF0B
:1015C000BE016F5F7F4F0E94730A882389F08D816F
:1015D0008F3361F020F48F3159F489E00CC08F35DE
:1015E00019F08F3739F004C08BE005C08AE003C0E2
:1015F00080E001C08CE029960FB6F894DEBF0FBEE4
:10160000CDBFDF91CF910895FC0190810180F281DF
:10161000E02DF8948181892B81832281892F809507
:1016200028232283A2E0B0E01197F1F721818223E1
:101630008183A0E1B0E01197F1F780817894E6E62C
:10164000F0E03197F1F7982381E009F480E0089504
:10165000FC0190810180F281E02D892F809560FF4F
:1016600012C0F8942281822382838181892B818315
:10167000A0E1B0E01197F1F78281982B92837894E2
:101680008AE690E011C0F8942281822382838181CE
:10169000892B8183AEE7B0E01197F1F78281982B17
:1016A0009283789486E090E00197F1F70895DC0149
:1016B0002C911196ED91FC911297F8948181922FC3
:1016C00090958923818378948DE7815009F1308149
:1016D0003223D9F3F8948281892382838181822BFA
:1016E00081837894ACEBB3E01197F1F7F8948181A2
:1016F0009823918388E890E00197F1F7808128236F
:1017000081E009F080E07894E0E3F3E03197F1F7CD
:101710000895CF93C82F809369018F3F51F0809334
:101720000A0163E082E20E94DA0E61E081E20E9437
:10173000DA0E0E94130F6C2F80E090E00E949C1341
:1017400081E0CF9108952F923F924F925F927F92C6
:101750008F929F92AF92BF92CF92DF92EF92FF92C1
:101760000F931F93CF93DF9300D01F92CDB7DEB7B7
:10177000E6E07E2E00E010E0F0E0EF2EF0E0FF2E3D
:1017800088248A9499249394A3E0AA2EA2E0BA2EE6
:10179000C12CDD24DA9487E10E94200F80FDC4C1B2
:1017A0007A94772009F4C0C121E041E060E070E064
:1017B00080E60E94A90E8983813220F082EE0E9489
:1017C000260F198221E0498160E672E081E60E94DD
:1017D000A90E60E487E20E94DA0E20916302822F54
:1017E0008695869586958A3108F089E122FD03C0A9
:1017F00097E0980F01C090E239819313CCCF922FDC
:101800009370923041F640916402942F97709983BF
:10181000309165023A83909161029B8390916002BE
:1018200060916202309165013068309365013091BA
:101830006901631349C090E0522F57709C0173E017
:10184000220F331F7A95E1F7252B20936302FC01C9
:10185000E05AFD4F178243FF16C081E2E0E6F2E056
:10186000AFE3B2E001900D928A95E1F7477F4061C6
:1018700040934302609340022B81209341028FE307
:1018800092E00E94C8019091640294FD14C03981D5
:10189000333089F48091650221EF280F233008F05E
:1018A00047C079CF813009F41CC18A3009F473CF65
:1018B0008C3109F470CF0115110509F46CCF80E665
:1018C00092E00E94000067CF6F3F09F064CF8981EA
:1018D000833049F58091640182FF04C02A8127305A
:1018E00009F459CF3A81383009F455CF343109F031
:1018F00052CF80916A0198134ECF0E948E07737069
:10190000882799270E94540780916A01898325E1DD
:1019100043E06FEF8B810E94BC0669810E94480101
:101920000E94900138CF80916A01981334CFC3CFC1
:101930002A812430B1F48091660290910B018917BD
:1019400019F08F3F09F027CF0E94E3109FEF980F07
:101950009E3F18F40E94890B1ECF8FEF8093690180
:101960001ACF2A812830E1F430916401398330FFA5
:1019700012CF0E94E3108F3F09F40DCF8F5F8F3F8E
:1019800009F409CF90916B01891708F004CF998170
:1019900091FD01CF80936B012B8120936A01FBCED7
:1019A0003A81383141F429E143E06FEF8B810E94A5
:1019B000BC0661E0B3CF2A81293161F480916401D2
:1019C00083FFE9CE877F809364010E94E3108093B8
:1019D0006601E1CE3A813E3109F4DDCE3D3199F424
:1019E0002FE143E06FEF80E00E94BC06FC018481A0
:1019F0008F71806484838381877080618383D086C4
:101A0000C782CF018DCF20916102211189C08D3015
:101A100059F498E088E10FB6F894A8958093600097
:101A20000FBE90936000FFCF8B3169F40E94E310EA
:101A300091E0811101C090E080919B0290FB80F9C0
:101A400080939B02A8CE863099F49091670281E042
:101A5000992319F09D3409F080E080939A0241E0C7
:101A600050E063E071E08AE992E00E948C1393CE2B
:101A7000833119F40E94F3018ECE8231C1F40E94A9
:101A800045051B012C0126E143E06FEF80E00E9439
:101A9000BC06FC0184818F71806A84838381877096
:101AA00080628383278230864186528616C08230C8
:101AB00009F0F8CE22E043E06FEF80E00E94BC0620
:101AC000FC0184818F71806A848383818770806246
:101AD000838387829086A186B286CF010E94C80147
:101AE0005ACEE114F10409F456CE9295969597706A
:101AF000953049F4609167027091680280916902A3
:101B000090916A020AC0911105C087E692E00E9496
:101B1000141203C060E070E0CB010E9400003BCED5
:101B20008A3109F0C8CE37CE0F900F900F90DF9119
:101B3000CF911F910F91FF90EF90DF90CF90BF90CA
:101B4000AF909F908F907F905F904F903F902F909D
:101B5000089580916401846080936401809165019F
:101B6000807880936501E0919802F0919902309716
:101B700009F009940895809165018F70863020F0F6
:101B800083E291E00C94580508950F931F930E94EF
:101B90004505209165012077203729F000E117E203
:101BA00020E030E004C000E61AEE20E030E0061746
:101BB00017072807390730F486E091E01F910F914D
:101BC0000C9458051F910F910895809169018F3FE2
:101BD00019F08BE191E010C00E944505613D77400E
:101BE0008105910558F080916401803618F487E1F1
:101BF00091E002C083E191E00C94580508950E94A1
:101C00004505613D77408105910520F4809164018F
:101C100081FF089580916A018F3F41F080916401B6
:101C20008E7F8093640187E191E009C08091640117
:101C3000803618F483E291E002C083E191E00C94D5
:101C40005805809166018F3FA1F00E948E07609336
:101C500060017093610180936201909363018091B0
:101C6000660190916B01891380936B018FE191E084
:101C700013C00E944505613D77408105910570F0D4
:101C800080916401803618F48BE191E005C0877F74
:101C90008093640183E291E00C94580508958FEFDE
:101CA00080936601E4E6F1E080818860808328E12A
:101CB00043E06FEF80E00E94BC0661E00E944801B3
:101CC0000C949001809169018F3FB1F40E948E07BE
:101CD0006F3F19F060930B0102C010920B0123E0DB
:101CE00043E060910B0180E00E94BC0669E571E071
:101CF0000E9454010C9490010895E4E6F1E0808183
:101D0000897F81608083E9E6F1E08FEF82838183C0
:101D100027E043E06FEF0E94BC0669E571E00E9496
:101D200054010C949001E4E6F1E08081877F8F7E7E
:101D300080831092600110926101109262011092F2
:101D4000630144E050E060E070E089E691E00C94CB
:101D50007C1390E59CBD1DBC2A98E0E1F0E0319732
:101D6000F1F78EBD00000DB407FEFDCF8EB5FB016F
:101D70009FEF4150C8F0222361F09EBD00000DB4DA
:101D800007FEFDCF8EB56115710599F380833196FD
:101D9000F0CFDF01119680818EBD00000DB407FEEB
:101DA000FDCF8EB5FD01E5CF2A9AE0E1F0E0319755
:101DB000F1F70895CF93DF931F92CDB7DEB7698314
:101DC00020E041E0BE016F5F7F4F0E94A90E0F909F
:101DD000DF91CF91089529986EE080E20E94DA0E9B
:101DE00084E293E20197F1F7089529986CE080E28C
:101DF0000C94DA0E80916501982F9077903759F006
:101E0000982F92959F709F5F97709295907F8F7893
:101E1000892B80936501809164018B7F8F7E8093F5
:101E200064010C94F50E6FE080E20E94DA0E60917E
:101E30000A016F3F19F08AE20E94DA0E299A08958A
:101E400021E041E060E070E00C94A90E20E040E069
:101E500060E070E00C94A90ECF93219A229A299801
:101E60002A9ACFB7F89480919C02811127C0E4ECA4
:101E7000F0E08491E8EDF0E09491E82FF0E0EE0FCF
:101E8000FF1FE857FF4FA591B491EC91E92321F48E
:101E900061E08AE00E94CB0661E08AE00E941807B8
:101EA0008CB580618CBD8CB580648CBD61E08DE0AB
:101EB0000E94180761E08BE00E94180780919C0245
:101EC0008F5F80939C02CFBF0E94EB0E63E083E2A2
:101ED0000E94DA0E6FE584E20E94DA0E6CE485E27D
:101EE0000E94DA0E67E286E20E94DA0E64E08DE379
:101EF0000E94DA0E8DE10E94200F843041F063E7EA
:101F000080E50E94DA0E64E08DE30E94DA0E86E03E
:101F10000E94200F873209F04AC085E00E94200FFE
:101F20008C3409F044C062E082E20E94DA0E60E084
:101F300081E20E94DA0E63E08CE30E94DA0ECFEFBA
:101F4000C0930E0120E045E06EE071E08BE20E945C
:101F5000A90E20E045E06EE071E08AE20E94A90E41
:101F600020E045E06EE071E080E30E94A90E82EE81
:101F70000E94260F81EE0E94260F60E787E20E94F2
:101F8000DA0E8091640180618093640180916C011C
:101F90008E7F80936C01809169018F3F69F09FEF84
:101FA000980F9E3F60F40E94890B811105C083E168
:101FB00091E0CF910C94580583E291E0FACFC09361
:101FC0006901F5CFCF93C82F8DE691E00E948E0670
:101FD00080917A008F7780937A0090916000CF3F54
:101FE000B1F0C3FD02C088E001C088E2C770C82B11
:101FF00088E10FB6F894A895809360000FBEC09357
:102000006000809160008065809360000BC00FB617
:10201000F894A89580916000886180936000109288
:1020200060000FBE83B7817F846083BFF89483B75D
:10203000816083BF85B7806685BF8F7D85BF7894BB
:10204000889583B78E7F83BFF894A89580916000B0
:1020500088618093600090936000789480917A000A
:10206000806880937A00CF9108951F920F920FB6E7
:102070000F9211240F900FBE0F901F901895CF93C1
:10208000DF93FC0110821182128214821582168263
:10209000DC0117968AE1ED0119928A95E9F782E051
:1020A0008383DF91CF9108951092700110926F0198
:1020B00088EE93E0A0E0B0E080937101909372010C
:1020C000A0937301B093740181E391E090936E014A
:1020D00080936D0185EC90E090937A018093790173
:1020E00084EC90E090937C0180937B0180EC90E005
:1020F00090937E0180937D0181EC90E0909380012C
:1021000080937F0182EC90E0909382018093810123
:1021100086EC90E090938401809383011092860175
:1021200010928701109288011092890180E692E056
:102130000E943F108FE392E00E943F1060E084E035
:102140000E941807E2EDF0E0E491E0938A02EEEBE2
:10215000F0E0E491F0E0EE0FFF1FE055FF4F8591B6
:10216000949190938C0280938B021092950210921E
:10217000970210929602E5E9F2E0129282E0ED38C1
:10218000F807D9F78AE892E09093320280933102FF
:1021900010922F021092300210922B0289E080934D
:1021A0002C0281E080932D0280932E0210923E0239
:1021B00010923D028AE092E00E943F1010921002BD
:1021C00010920F020895809164028295869587701F
:1021D000813019F4809167020895811105C087E666
:1021E00092E00E94F611089580E00895789484B5F5
:1021F000826084BD84B5816084BD85B5826085BD03
:1022000085B5816085BD80916E00816080936E0090
:102210001092810080918100826080938100809182
:102220008100816080938100809180008160809333
:1022300080008091B10084608093B1008091B000F3
:1022400081608093B00080917A00846080937A00EE
:1022500080917A00826080937A0080917A008E7FEC
:1022600080937A0080917A00806880937A0010923F
:10227000C100A89580E090E0892B11F00E94000039
:10228000E0917D01F0917E0182E08083E09179010F
:10229000F0917A011082E0917B01F0917C0188E05D
:1022A000808310928501E0918101F091820186E0A6
:1022B0008083E0917F01F091800180818061808343
:1022C000E0917F01F0918001808188608083E091BE
:1022D0007F01F0918001808180688083E0917F019F
:1022E000F091800180818F7D8083C0E1D0E0F12C6E
:1022F000FE01F595E795E751FF4FE491C0FFE295A8
:10230000EF70E83008F066C0F0E0E751FF4FF4905E
:102310006F2D8DE691E00E9441062196C23FD105C6
:1023200039F7C2EED0E0FE016491611130C042E0A5
:1023300050E067E571E08DE691E00E94AA0580918A
:102340009B028D7F80939B0241E050E063E071E04F
:102350008AE992E00E947C136FEF81E090E00E9496
:102360009C13809165018F788093650110925B01C9
:1023700010925A0186E091E00E94580580E392E0B5
:1023800090939902809398020E948E0708C08DE670
:1023900091E00E9441062196892B29F6C8CF0E9420
:1023A0008E070E9456020E948A01A89580916401BE
:1023B00082FFF5CF0E94DC00A895A8950E945602E6
:1023C0008091640184FD0E94A30B0E948B020E94F5
:1023D000B006F3CF1BEF1E0F00E06F2D8DE691E0EE
:1023E0000E9441060F5F0117C0F397CFFC018827B9
:1023F0009927E89421912032E9F3293010F02E300A
:10240000C8F32B3241F02D3239F4689404C00E9495
:102410005012820F911D219120532A30C0F31EF4D7
:10242000909581959F4F08951F93FC0199278827C8
:10243000BC01E89411911032E9F3193010F01E300C
:10244000C8F31B3251F01D3249F4689406C00E9453
:102450003B12610F711D811D911D119110531A3096
:10246000B0F33EF490958095709561957F4F8F4FB6
:102470009F4F1F910895592F482F372F262F660FF2
:10248000771F881F991F660F771F881F991F620F7C
:10249000731F841F951F660F771F881F991F08954C
:1024A0007AE0979F902D879F802D910D112408959C
:1024B0000E949A1208F481E00895E89409C097FBFD
:1024C0003EF490958095709561957F4F8F4F9F4F0B
:1024D0009923A9F0F92F96E9BB279395F69587954F
:1024E00077956795B795F111F8CFFAF4BB0F11F412
:1024F00060FF1BC06F5F7F4F8F4F9F4F16C08823B9
:1025000011F096E911C0772321F09EE8872F762FEE
:1025100005C0662371F096E8862F70E060E02AF02F
:102520009A95660F771F881FDAF7880F969587951B
:1025300097F90895990F0008550FAA0BE0E8FEEFF0
:1025400016161706E807F907C0F012161306E40777
:10255000F50798F0621B730B840B950B39F40A2670
:1025600061F0232B242B252B21F408950A2609F44E
:10257000A140A6958FEF811D811D08950E94D11263
:102580000C9442130E94341338F00E943B1320F045
:10259000952311F00C942B130C94311311240C94EB
:1025A00076130E94531370F3959FC1F3950F50E07B
:1025B000551F629FF001729FBB27F00DB11D639FF5
:1025C000AA27F00DB11DAA1F649F6627B00DA11D9B
:1025D000661F829F2227B00DA11D621F739FB00D41
:1025E000A11D621F839FA00D611D221F749F3327B1
:1025F000A00D611D231F849F600D211D822F762F4A
:102600006A2F11249F5750409AF0F1F088234AF026
:10261000EE0FFF1FBB1F661F771F881F9150504092
:10262000A9F79E3F510580F00C942B130C94761360
:102630005F3FE4F3983ED4F3869577956795B79519
:10264000F795E7959F5FC1F7FE2B880F911D969533
:10265000879597F9089597F99F6780E870E060E0A3
:1026600008959FEF80EC089500240A94161617062B
:1026700018060906089500240A9412161306140673
:1026800005060895092E0394000C11F4882352F0D6
:10269000BB0F40F4BF2B11F460FF04C06F5F7F4F8E
:1026A0008F4F9F4F089557FD9058440F551F59F075
:1026B0005F3F71F04795880F97FB991F61F09F3F2F
:1026C00079F087950895121613061406551FF2CF58
:1026D0004695F1DF08C0161617061806991FF1CFA8
:1026E00086957105610508940895E894BB276627CF
:1026F0007727CB0197F90895DC01CB01FC01F9990B
:10270000FECF06C0F2BDE1BDF89A319600B40D923D
:1027100041505040B8F70895DC01A40FB51F415057
:10272000504048F0CB01840F951F2E910E949D13BD
:1027300041505040D0F70895262FF999FECF92BD11
:1027400081BDF89A019700B4021639F01FBA20BD76
:102750000FB6F894FA9AF99A0FBE0895052E97FBD2
:102760001EF400940E94C51357FD07D00E94E01389
:1027700007FC03D04EF40C94C5135095409530954A
:1027800021953F4F4F4F5F4F0895909580957095DD
:1027900061957F4F8F4F9F4F08950E940214A59F10
:1027A000900DB49F900DA49F800D911D112408954C
:1027B000B7FF0C94CD130E94CD13821B930B089589
:1027C000A1E21A2EAA1BBB1BFD010DC0AA1FBB1F35
:1027D000EE1FFF1FA217B307E407F50720F0A21BA7
:1027E000B30BE40BF50B661F771F881F991F1A9414
:1027F00069F760957095809590959B01AC01BD013E
:10280000CF010895A29FB001B39FC001A39F700D97
:10281000811D1124911DB29F700D811D1124911DE8
:10282000089597FB072E16F4009407D077FD09D082
:102830000E94251407FC05D03EF4909581959F4F8A
:102840000895709561957F4F0895AA1BBB1B51E1B8
:1028500007C0AA1FBB1FA617B70710F0A61BB70B10
:10286000881F991F5A95A9F780959095BC01CD01B5
:102870000895EE0FFF1F0590F491E02D099481E07B
:1028800090E0F8940C945314FB01DC01415050404B
:1028900048F001900D920020C9F701C01D924150EF
:0A28A0005040E0F70895F894FFCFD0
:1028AA0001A905A905FF930E2C0FFFFFFFFF00FCEE
:1028BA00E1A8A8FA0EC50D620EE50D4F0E210EA96C
:1028CA000DBB0D7D0EFF0D5E00BC00770100000000
:1028DA00004106AA05D8058E060906E705FB054D3F
:1028EA0079534C69706F54656D7000312E302E30FB
:0A28FA0000322E332E31000D0A00CB
:00000001FF
