:100000000C94AC000C941B110C9442110C94D40071
:100010000C94D4000C94D4000C944E010C94D40095
:100020000C94D4000C94D4000C94D4000C94D40000
:100030000C94D4000C94D4000C94D4000C94D400F0
:100040000C946A110C94D4000C9478140C94AA1497
:100050000C94D4000C94D4000C94D4000C94D400D0
:100060000C94D4000C94D4004807100748074807A4
:100070001B072D073E07322E322E302D626574612C
:1000800000207C5F5C2F602C0A02200220B28710C7
:100090000340012000240222100222020220022238
:1000A0000022200202202227101341010101032215
:1000B0002030402030520340221402031052240208
:1000C00021710100101012101222101002240101DF
:1000D00003220300200101003220371210012132D7
:1000E000260128403222121012122243222412101A
:1000F00001222470C122240F0F0000000800020119
:1001000000000304070000000000000000010204DA
:100110000810204080010204081020010204081089
:100120002004040404040404040202020202020380
:10013000030303030300000000230026002900003E
:10014000000000250028002B0000000000240027EC
:10015000002A00006F0ADA1411241FBECFEFD8E086
:10016000DEBFCDBF11E0A0E0B1E0E6EAF6E302C0F9
:1001700005900D92AC3BB107D9F723E0ACEBB1E0B1
:1001800001C01D92A831B207E1F710E0CCEAD0E03F
:1001900004C02197FE010E94BA17CA3AD107C9F7D5
:1001A0000E949E100C94511B0C940000EF92FF9241
:1001B0000F93FC018091440281836283468305830F
:1001C00027708481807F282B88E0E89E70011124AD
:1001D0002E292F7E2483CF010F91FF90EF90089559
:1001E0008091520284608093520280915302807801
:1001F00080935302E0914202F0914302309709F05C
:100200000994089583B78E7F83BF809122010E9455
:100210000911809123018F3F21F480912201809365
:100220002301089583B78E7F83BF809121010E94AF
:100230000911809123018F3F21F480912101809346
:1002400023010895E2E5F2E08081877F8F7E80833D
:1002500010924E0210924F021092500210925102D0
:1002600044E050E060E070E084E492E00C94E81A2E
:1002700083E00E94651260E082E00E94AE1260E0BE
:1002800083E00C94AE1226E040E855E260E070E0B6
:100290008BE792E00E94181481E008951F920F925C
:1002A0000FB60F9211240F900FBE0F901F9018954C
:1002B000FC0185818F50833010F080E0089581E04B
:1002C000089520917002222399F04FB7F89420915D
:1002D0007002213059F42DB320936E023DB320916A
:1002E0006F02209523232DBB4FBF02C040936E02A7
:1002F0008CBD9DBD08958EBD00000DB407FEFDCFE1
:100300008EB5089580917002882361F09FB7F894AC
:100310002091700280916E02213019F48DBB9FBF35
:1003200008958FBF0895AF92BF92DF92EF92FF9230
:100330000F931F93CF93DF93C82F7B01142FD22EDF
:1003400080E590E00E9461012A988AE090E00E9496
:1003500021128C2F0E947B01082FE7011123B9F095
:10036000DD2051F08FEF0E947B01082FE114F10492
:1003700061F08883219609C05E018FEFA81AB80A40
:1003800088810E947B01082FE5011150E7CF2A9A4E
:100390000E9482018AE090E00E942112802FDF916A
:1003A000CF911F910F91FF90EF90DF90BF90AF9092
:1003B0000895CF93DF931F92CDB7DEB7698320E016
:1003C00041E0BE016F5F7F4F0E9493010F90DF916C
:1003D000CF91089529986EE080E20C94D901299874
:1003E0006CE080E20C94D90180915302982F9077B1
:1003F000903759F0982F92959F709F5F97709295C4
:10040000907F8F78892B80935302809152028B7F4B
:100410008F7E809352020C94EF016FE080E20E9485
:10042000D90160911B016F3F19F08AE20E94D90146
:10043000299A089521E041E060E070E00C94930176
:10044000CF9386E00E941A02C82F85E00E941A020C
:1004500021E08C3409F020E081E0C73209F080E02F
:100460008223CF91089520E040E060E070E00C949A
:100470009301EF92FF920F931F93CF93DF931F92FD
:10048000CDB7DEB7F82E8B01E22E299882E890E0F6
:1004900049830E9421126EE080E20E94D90184E625
:1004A00090E00E9421126F2D8AE20E94D9016F2DE7
:1004B00080E30E94D90181EE0E94330249818FEFCF
:1004C000F81621F0E11002C080EA01C080EB20E0C4
:1004D000B8010E949301299A00E010E08FEF0E947A
:1004E0003302F82E807319F401501109B9F72998D5
:1004F00060E387E20E94D901F4FE03C081EE0E940E
:1005000033020E940D02F5FC02C08E2D01C081E075
:100510000F90DF91CF911F910F91FF90EF90089571
:100520000F931F93CF938C0121E041E060E070E0D6
:1005300080E60E949301C82F813220F082EE0E9453
:100540003302C0E021E04C2FB80181E60E94930104
:1005500060E487E20E94D9018C2FCF911F910F9107
:100560000895CF93219A229A29982A9A0E94B2102C
:100570006EE080E20E94D90165E070E080E090E0EA
:100580000E94E51163E083E20E94D9016FE584E2F5
:100590000E94D9016CE485E20E94D90167E286E2FB
:1005A0000E94D90163E780E50E94D90166E08DE3EE
:1005B0000E94D9010E942002C82F882371F162E0B5
:1005C00082E20E94D90160E081E20E94D90163E0E9
:1005D0008CE30E94D9018FEF80931C0120E045E05D
:1005E0006CE171E08BE20E94930120E045E06CE158
:1005F00071E08AE20E94930120E045E06CE171E045
:1006000080E30E94930182EE0E94330281EE0E94F9
:10061000330260E787E20E94D9018C2FCF910895C1
:10062000CF93DF93EC018CB58B838DB58C838D815B
:100630009E810E94610160E08881DF91CF910C94DE
:10064000EA12CF93DF93EC0161E088810E94EA1205
:100650000E9482018B818CBD8C818DBDDF91CF91F9
:1006600008950F931F93CF93DF938C010E94100383
:100670008FE90E947B0180E00E947B01C82FD0E0BF
:10068000DC2FCC2780E00E947B01C82BC8010E9490
:100690002103CE01DF91CF911F910F9108951F93F8
:1006A000CF93DF93EC010E94100385E00E947B0151
:1006B00080E00E947B01182FCE010E942103812F30
:1006C000DF91CF911F9108950E944F03817008958B
:1006D0001F93CF93DF93EC01162F442339F040E0B2
:1006E00066E00E946803CE010E942103CE010E94B1
:1006F00064038111FBCFCE010E941003812FDF9193
:10070000CF911F910C947B01EF92FF920F931F9357
:10071000CF93DF931F92CDB7DEB77C01142F062F46
:1007200040E063E059830E946803802F0E947B01B0
:100730005981852F0E947B01812F0E947B0180E0DF
:100740000E947B01182FC7010E942103812F0F9067
:10075000DF91CF911F910F91FF90EF9008952F920D
:100760003F924F925F926F927F928F929F92AF9241
:10077000BF92CF92DF92EF92FF920F931F93CF938E
:10078000DF936C012A013B015901CA019927C0E09E
:10079000D1E0C81BD90BE12CF12C0115110579F121
:1007A0000C171D0708F4E80141E062E0C6010E9451
:1007B0006803862D0E947B01852D0E947B01842D7C
:1007C0000E947B0115012E0C3F1C4101F401819117
:1007D0004F010E947B01C401821993098C179D0768
:1007E000A8F3C6010E9421034C0E5D1E611C711C02
:1007F000EC0EFD1E0C1B1D0BC0E0D1E0CECFDF9137
:10080000CF911F910F91FF90EF90DF90CF90BF900D
:10081000AF909F908F907F906F905F904F903F90A0
:100820002F900895EF92FF920F931F93CF93DF9332
:100830001F92CDB7DEB77C01142F062F41E062E591
:1008400059830E946803802F0E947B015981852F64
:100850000E947B01812F0E947B01C7010F90DF91D5
:10086000CF911F910F91FF90EF900C942103CF93A4
:10087000DF93EC0140E06BEA0E946803CE01DF9158
:10088000CF910C942103CF93DF93EC018CB58B8334
:100890008DB58C8361E088810E94AE1280E58D83E6
:1008A00081E08E83CE010E942103CE010E94370495
:1008B00089819A81892B51F0CE010E9431032981CF
:1008C0003A818217930711F080E00CC041E061E0AB
:1008D000CE010E94680380E00E947B01CE010E944D
:1008E000210381E0DF91CF91089548E050E06BE172
:1008F00071E08FE592E00C94E81A0F931F93CF9369
:10090000DF9300E010E0CFEFDFEF80916302909182
:10091000640224E0880F991F2A95E1F70817190748
:10092000D8F4A801465F5F4F60E070E087E692E090
:100930000E948403C82788E09E01369527959C2F46
:10094000E90190FF04C091E0C92790EAD9278150BE
:1009500099F70F5F1F4FD9CF81E020916502309149
:100960006602C217D30709F080E0DF91CF911F9193
:100970000F910895FF920F931F93CF93DF93CDB7FD
:10098000DEB72A970FB6F894DEBF0FBECDBF8091B9
:1009900026028130B9F548E050E068E272E08FE568
:1009A00092E00E940518892B09F4BCC088E0E8E2B7
:1009B000F2E0AFE5B2E001900D928A95E1F787E6AB
:1009C00092E00E944304F82E811103C010925E024F
:1009D000ABC040E050E0BA0187E692E00E9412040A
:1009E00087E692E00E9464038111FACF809163024E
:1009F00090916402909359028093580281E0809311
:100A00005E0284C0833009F08DC0F0905E02FF204A
:100A100009F48AC04091580250915902CA010197C5
:100A200020912C0230912D022817390709F07EC041
:100A300034E0440F551F3A95E1F74650510960E004
:100A400070E000E110E02EE232E087E692E00E94E2
:100A5000AF0387E692E00E9464038111FACF809190
:100A6000580290915902019790935902809358022D
:100A7000892B09F04BC010925E020E947D048823EE
:100A800009F444C048E050E06BE171E08FE592E08A
:100A90000E94F81A809163029091640224E0880F0A
:100AA000991F2A95E1F79E012F5F3F4F4AE0F90118
:100AB00011924A95E9F746E449834CE44A8348E5B4
:100AC0004B8349E44C834DE44D8347E44E834AE332
:100AD0004F834A87988789870AE010E040E050E01A
:100AE000BA0187E692E00E94AF0387E692E00E9497
:100AF00064038111FACF98E088E10FB6F894A895C5
:100B0000809360000FBE90936000FFCF86E08093DB
:100B1000570210925A0210925B0210925C021092DD
:100B20005D0204C0F12C02C0FF24F3948F2D2A969D
:100B30000FB6F894DEBF0FBECDBFDF91CF911F91EE
:100B40000F91FF9008958F3F51F080931B0163E058
:100B500082E20E94D90161E081E20E94D9010C94F5
:100B60000D029C01809148029091490282179307DF
:100B700051F0909152029F7190935202309349022A
:100B80002093480205C080915202805E80935202F9
:100B9000E0914802F09149020190F081E02D3097F8
:100BA00009F009950E94B41160934A0270934B02B8
:100BB00080934C0290934D020895809153028F7060
:100BC000863020F083E191E00C94B10508950F93F5
:100BD0001F930E94B41100914A0210914B02209180
:100BE0004C0230914D02601B710B820B930B1F91D5
:100BF0000F9108950E94E705613D774081059105B9
:100C000020F48091520281FF0895809145028F3F28
:100C100041F0809152028E7F809352028FE091E0EA
:100C200009C080915202803618F483E191E002C03D
:100C300083E091E00C94B105809144028F3F19F05C
:100C40008BE091E010C00E94E705613D774081058F
:100C5000910558F080915202803618F48FE091E0AF
:100C600002C083E091E00C94B10508958091540294
:100C70008F3FA1F00E94B41160934E0270934F0217
:100C800080935002909351028091540290914602B9
:100C900089138093460287E091E013C00E94E70524
:100CA000613D77408105910570F080915202803658
:100CB00018F48BE091E005C0877F8093520283E1B6
:100CC00091E00C94B1050895E0914802F091490239
:100CD0000280F381E02D309709F0099408959091F6
:100CE0005302907781E0903709F080E00895CF9229
:100CF000DF92EF92FF920E94E7056B017C010E9458
:100D00006F06811105C080E197E2A0E0B0E004C069
:100D100080E69AEEA0E0B0E08C159D05AE05BF051B
:100D200040F487E191E0FF90EF90DF90CF900C943A
:100D3000B105FF90EF90DF90CF900895E2E5F2E0EB
:100D400081818F788183109249021092480287E155
:100D500091E00C94B105CF93DF931F92CDB7DEB72E
:100D60009FEF980F9E3F68F4682F80934402698339
:100D70000E94A305698180E090E00E94081B81E049
:100D800004C08FEF8093440280E00F90DF91CF91F9
:100D900008950E94B102811103C083E091E014C064
:100DA00080915202806180935202809147028E7F2F
:100DB00080934702809144028F3F21F00E94AB064E
:100DC000882359F383E191E00C94B105CF93C82FA8
:100DD00080914402FB018083438142FD05C046951A
:100DE00046954695495F01C040E220914702217037
:100DF000413208F040E28C2F0E94390291E0CF3F4F
:100E000009F090E0892BCF9108958730910528F45F
:100E1000FC01EC5CFF4F0C94BA1780E090E0089561
:100E200088E00E941A028F70282F38EF3203C00129
:100E300011244D97089586E00E941A02282F30E071
:100E40003595279520953095237033274AEF420337
:100E5000C001439F900D1124089586E00E941A025C
:100E6000282F30E035952795359527952370332722
:100E700089E1829F800D112490E0089580915502B0
:100E80009091560224E0959587952A95E1F708956B
:100E900080E09FEF0895CF92DF92EF92FF92CF9381
:100EA000DF93FC0122813091520230FF04C02F3FBA
:100EB00009F055C005C02F3F19F0C091450201C08F
:100EC000CFEFBC018C2F0E94E60690914502C9131A
:100ED00047C090915302811108C081E0890F8F7043
:100EE000907F982B909353023AC0907F9093530237
:100EF00081E090E00E940507EC016091550270913D
:100F00005602072E000C880B990B0E949F1623E3B4
:100F100033E343E75FE30E942B176B017C01CE01B3
:100F200024E0880F991F2A95E1F7BC01990F880BDF
:100F3000990B0E949F162DEC3CEC4CE45DE30E9463
:100F40002B179B01AC01C701B6010E9489150E94B5
:100F50006716709356026093550281E001C080E0ED
:100F6000DF91CF91FF90EF90DF90CF900895209187
:100F7000520222FD0C944B0780E008958055843284
:100F800038F4E82FF0E0EA58FE4F808190E002C08C
:100F900087E090E00C940507CF93DF93FC0110826B
:100FA00011821282148215821682DC0117968AE160
:100FB000ED0119928A95E9F782E08383DF91CF9161
:100FC0000895FC012481229526952770213011F483
:100FD00087810895211104C007960E94C0170895C3
:100FE00080E008950E94E10791E0811101C090E046
:100FF000892F0895FC01948192959695977095306C
:1010000029F467817085818592850895911104C0C6
:10101000CF0107960C94DE1760E070E0CB010895D5
:10102000CF93DF93EC016115710521F04A3118F07F
:1010300049E101C040E050E0CA0123E0880F991F58
:101040002A95E1F79B819770892B8B838C818F7117
:10105000806C8C83CE0107960E941218CE01DF911E
:10106000CF9108950F931F93CF93DF93EC016115F8
:10107000710561F0FB0101900020E9F73197E61B53
:10108000F70BE931F10518F0E9E101C0E0E00E2FBE
:1010900010E0C80123E0880F991F2A95E1F79B8192
:1010A0009770892B8B838C818F718C83EE2329F031
:1010B000A801CE0107960E941B18FE01E00FF11F48
:1010C0001782CE01DF91CF911F910F910895EF927A
:1010D0000F93E2E5F2E08081897F81608083E4E420
:1010E000F2E08FEF82838183E12C07E023E04FEF72
:1010F0006FEF80E092E00E94D6006EEA71E00E94FD
:1011000032080F91EF900C944B07EF920F93809160
:1011100044028F3FD9F40E94B4116F3F19F06093DD
:10112000020102C010920201E12C03E023E0409191
:10113000020160E080E092E00E94D6006EEA71E079
:101140000E9432080F91EF900C944B070F91EF9093
:101150000895FC01838187708860838384818F7107
:10116000806284836783CF010895FC018381877047
:101170008860838384818F71806284836783CF01D9
:101180000895EF920F938FEF80935402E2E5F2E01F
:10119000808188608083E12C08E123E04FEF60E0EC
:1011A00080E092E00E94D60061E00E94B5080F91B5
:1011B000EF900C944B07FC0184818F71806A8483CB
:1011C00083818770806283834783508761877287BA
:1011D000CF010895FC0184818F71806484838381B1
:1011E00087708061838370876783CF010895FF9242
:1011F0000F931F93CF93DF9300E110E0F12CF801E0
:10120000F595E795EF57FF4FE49100FFE295EF70FA
:10121000E83010F5F0E0EF57FF4FF490C1E0D0E078
:101220006F2D8BE792E00E946B15DF5FDC13F8CF28
:101230000F5F1F4F003F110511F766E770E08BE766
:1012400092E00E9476158BE792E0DF91CF911F919B
:101250000F91FF900C947215CBEFCE0FE0CF0C9452
:10126000B707CF92DF92EF92FF920F931F93CF9326
:10127000DF9300D000D000D0CDB7DEB70E94B4110C
:1012800020915E02222309F44BC000915A02109172
:101290005B0220915C0230915D026B017C01C01AFF
:1012A000D10AE20AF30A45EFC41641E0D406E1048C
:1012B000F104B0F120915702211103C010925E0297
:1012C0002FC021502093570260935A0270935B0203
:1012D00080935C0290935D0280915F029091600226
:1012E0009A83898380916102909162029C838B83AF
:1012F000809158029091590201979E838D83E12C31
:1013000002E024E04FEF60E080E092E00E94D6002F
:1013100046E0BE016F5F7F4F0E9410080E942F09B8
:1013200026960FB6F894DEBF0FBECDBFDF91CF91EA
:101330001F910F91FF90EF90DF90CF900895EF9263
:101340000F93CF93DF93C0E0D2E08B8187708065ED
:101350008B838C818871846C8C8388E0EFE5F2E06C
:10136000A7E0B2E001900D928A95E1F783E090E06A
:10137000988B8F8710925E02E12C00E024E04FEF03
:1013800060E0CE010E94D600DF91CF910F91EF90E7
:101390000C942F09FC01962F809144028183648173
:1013A000607F262F216088E0989FB0011124622B76
:1013B00064838091FF0180FF03C0CF010C94B707C5
:1013C00080E00895EF920F93CF93C82FE62E00E0B0
:1013D00023E04FEF60E080E092E00E94D6006C2FA7
:1013E0000E94B508CF910F91EF900C94B7078F92A0
:1013F0009F92AF92BF92EF920F93E82E0E94E70563
:101400004B015C0106E123E04FEF60E080E092E0F9
:101410000E94D600B501A4010E94DB080F91EF9055
:10142000BF90AF909F908F900C94B707EF920F935F
:10143000CF93DF938F3F11F0EA0102C0C9E2D1E000
:10144000E22E062F20E0482F60E080E092E00E942C
:10145000D600BE010E943208DF91CF910F91EF902C
:101460000C94B707AF92BF92CF92DF92EF920F9397
:10147000CF93DF935C016B01D42F892B81F0E42E95
:101480000BE023E04FEF60E080E092E00E94D600A6
:10149000B5010E9432080E94B707C82F01C0C1E001
:1014A000C114D10479F0ED2E0CE023E04FEF60E0A1
:1014B00080E092E00E94D600B6010E9432080E94AD
:1014C000B707C8238C2FDF91CF910F91EF90DF905A
:1014D000CF90BF90AF900895A8950C946911CF93C9
:1014E000E7E6F2E080E58583C1E0C68388E080839B
:1014F00085E69FE19283818381E292E00E94CC079E
:1015000080E092E00E94CC078DED91E00E94CC0734
:10151000EDEDF1E0C683C0E1C5838CEB91E00E9464
:10152000CC07ECEBF1E082E08683C583CF91089590
:10153000CF93C82F8BE792E00E94AF1380917A007F
:101540008F7780937A0090916000CF3FB1F0C3FD18
:1015500002C088E001C088E2C770C82B88E10FB6DE
:10156000F894A895809360000FBEC09360008091AE
:1015700060008065809360000BC00FB6F894A8955A
:1015800080916000886180936000109260000FBEBF
:1015900083B7817F846083BFF89483B7816083BF02
:1015A00085B7806685BF8F7D85BF7894889583B722
:1015B0008E7F83BFF894A8958091600088618093A6
:1015C000600090936000789480917A0080688093A6
:1015D0007A00CF9108958F929F92AF92BF92CF924F
:1015E000DF92EF92FF92CF93DF936B017C012FE0AC
:1015F000C20ED11CE11CF11CC1E0D0E0809123019E
:101600008F3FF9F480E1C816D104E104F104C8F079
:1016100089E094E0980F4E0102C0880C991C9A95BD
:10162000E2F7A12CB12CC814D904EA04FB0438F069
:101630000E94980AC818D908EA08FB08DFCF815031
:10164000E8CFDF91CF91FF90EF90DF90CF90BF90E8
:10165000AF909F908F900895AF92BF92CF92DF92FC
:10166000EF92FF920F931F93CF93DF931F92CDB70B
:10167000DEB7B82EA42E67017801F894809322017A
:10168000409321018FEFB81689F041E050E00B2C18
:1016900001C0440F0A94EAF74CBB462F50E062E0C9
:1016A00071E08B2D29830E94E91029818FEFA81604
:1016B00079F081E090E00A2C01C0880F0A94EAF7E3
:1016C0008CBB422F50E062E171E08A2D0E94E9104C
:1016D000C114D104E104F10429F0C701B6010E944C
:1016E000EB0A03C08FEF0E94980A8FEFB81619F02B
:1016F0008B2D0E9409118FEFA81619F08A2D0E94D8
:101700000911809123018F3F19F08091230101C0BD
:101710008FEF9FEF909323010F90DF91CF911F9157
:101720000F91FF90EF90DF90CF90BF90AF90089512
:10173000EF92FF920F931F9379018A0120E04FEF00
:101740000E942C0B1F910F91FF90EF9008952F9204
:101750003F924F925F927F928F929F92AF92BF92F1
:10176000CF92DF92EF92FF920F931F93CF93DF936D
:101770004B015C01D42EC22F702EDE2D80915E02B3
:10178000882329F0C501B4010E94FA0E7EC0809121
:10179000520282FD2CC00E94B4111B012C0180E07A
:1017A00090E0DC012091520222FD17C088159905B6
:1017B000AA05BB0508F069C0803127E29207A105A0
:1017C000B10588F40E94F60E0E94B411DC01CB0131
:1017D00082199309A409B509E5CF88159905AA05C9
:1017E000BB0508F052C0881A990AAA0ABB0ADD2074
:1017F000B9F0E12C00E223E04FEF60E080E092E0FE
:101800000E94D60044EF51E060E070E00E94DB08E7
:101810000E942F0964EF71E080E090E00E94FA0ED0
:101820000E94EF01CF3F99F0DF3F49F0850174013D
:101830002C2D4D2F672D8C2F0E942C0B06C0A5013F
:101840009401672D8C2F0E94980BC82F09C0DF3F91
:1018500031F4C501B4010E94EB0ACFEF01C0CEEF15
:101860000E94EA01DD2079F0E12C01E223E04FEF54
:1018700060E080E092E00E94D600B501A4010E94E1
:10188000DB080E942F098C2F01C08EEFDF91CF91D2
:101890001F910F91FF90EF90DF90CF90BF90AF908E
:1018A0009F908F907F905F904F903F902F900895E2
:1018B000CF92EF920F93CC24CA94EE24EA940FEFC8
:1018C0002FEF0E94A70B0F91EF90CF90089540E06B
:1018D00064E371E088E391E00E94320A20E04EEA7E
:1018E00051E060E081E00E94160A40E065E070E0AF
:1018F00080E090E00E94580C20E04EEA51E060E069
:1019000082E00C94160AEF920F93CF930E949F09E6
:1019100060E080E092E00E94690F20E04EEA51E032
:1019200061E18FEF0E94160AC0914502E12C06E0AA
:1019300023E04FEF60E080E092E00E94D6006C2F41
:101940000E94B5080E942F0926E043E060ED77E091
:1019500080E090E00E94210F87E69CE0892B29F02F
:10196000CF910F91EF900C94670CCF910F91EF9066
:101970000895909126028091220281114DC09D30E0
:1019800059F498E088E10FB6F894A8958093600028
:101990000FBE90936000FFCF9B3159F481E292E03B
:1019A0000E94F2079091FF0180FB90F99093FF0154
:1019B00038C0963099F49091280281E0992319F06B
:1019C0009D3409F080E08093FE0141E050E063E047
:1019D00071E08EEF91E00E94F81A23C0933119F460
:1019E0000E94830C1EC0923121F480E00E94F7090E
:1019F00018C0913059F480E090E0892B91F081E299
:101A000092E00E94FA070E9400000BC081E09A3029
:101A100051F09C3121F407C081E09A3121F080E03F
:101A2000089581E008950895EF920F931F93CF9347
:101A3000DF9381E292E00E94900220912402922F93
:101A40009695969596959A3108F099E122FD03C0F6
:101A500057E0590F01C050E260912502C091260263
:101A6000D09122024091210230912302851312C1AC
:101A7000822F8370823009F00DC1162F177080916C
:101A80005302806880935302809144023813D0C07F
:101A9000892F90E0AC0173E0440F551F7A95E1F770
:101AA0002770242B20932402FC01EF5DFD4F178249
:101AB00063FF17C081E2E1E2F2E0A0E0B2E0019052
:101AC0000D928A95E1F780910402877F806180936F
:101AD000040230930102D093020280E092E00E945F
:101AE000B7078091250284FD96C0133009F08DC0A0
:101AF00081E292E00E9458018111CCC0C430A1F46F
:101B00008091270290910201891719F08F3F09F007
:101B1000C1C081E292E00E94E107DF91CF911F9165
:101B20000F91EF900C94AB06C830D9F4C0915202DB
:101B3000C0FFB0C081E292E00E94E1078F3F09F44C
:101B4000A9C08F5F8F3F09F4A5C090914602891705
:101B500008F0A0C0C1FD9EC080934602D09345020C
:101B600099C0C83159F4E12C09E123E04FEF6D2F02
:101B700080E092E00E94D60061E07FC0C93171F43C
:101B80008091520283FF86C0877F8093520281E258
:101B900092E00E94E107809354027CC00E94B90C3D
:101BA000811178C0CE3109F475C0CD31A1F5C09155
:101BB000280280912902813211F08C2F13C0E12C70
:101BC0000EE123E04FEF6091210280E092E00E945D
:101BD000D6006FEF0E94B5080E944B07882331F0B2
:101BE00080E28C0F0E94BE07EC0102C0C0E0DFEF74
:101BF000E12C0FE123E04FEF60E080E092E00E94F3
:101C0000D600BE010E94EA083AC0143021F40E94B6
:101C1000BA0481113FC080E090E0892BD9F181E2C4
:101C200092E0DF91CF911F910F91EF900C94000003
:101C30003F3F81F5133051F58091520282FF02C07F
:101C4000C73041F1C83031F1C43121F580914502EE
:101C5000481320C00E94B4117370882799270E94EE
:101C6000E511C0914502E12C05E123E04FEF6D2F16
:101C700080E092E00E94D6006C2F0E94B508DF91B0
:101C8000CF911F910F91EF900C944B0780914502DB
:101C9000481709F2DF91CF911F910F91EF900895AE
:101CA000CF938091520284FF12C0C6E087E10E9468
:101CB0001A0280FD05C0C15019F00E94140DF6CF24
:101CC0008091520282FF03C0CF910C943109CF91D1
:101CD00008950E9464060C94500E8F929F92AF92CA
:101CE000BF92CF92DF92EF92FF92CF93DF931F923A
:101CF000CDB7DEB76B017C010E94B4114B015C01D2
:101D00000E94B411DC01CB0188199909AA09BB0909
:101D10008C159D05AE05BF0528F0C114D104E10462
:101D2000F10471F40E94690E8091520282FB8827AF
:101D300080F989830E946C0A8981882309F301C094
:101D400080E00F90DF91CF91FF90EF90DF90CF90E8
:101D5000BF90AF909F908F900895CF93DF931F9285
:101D6000CDB7DEB7A89580E090E0892B11F00E94F6
:101D700000000E94430189830E94F7088981811134
:101D800003C00E946C0AFDCF8091FF018D7F80937C
:101D9000FF0180E090E0892B11F00E94000041E0FB
:101DA00050E063E071E08EEF91E00E94E81A0E943B
:101DB00075046FEF81E090E00E94081B0E949E0670
:101DC00084EC9FE0909343028093420260E070E0D5
:101DD000CB010E946D0E88E391E0892B11F00E94E7
:101DE0003801A8950F90DF91CF9108950E946C0A59
:101DF0000C94690E8F929F92AF92BF92CF92DF9216
:101E0000EF92FF926B017C010E94B4114B015C01C7
:101E10000E94B411DC01CB0188199909AA09BB09F8
:101E20008C159D05AE05BF0518F40E94F60EF0CF87
:101E3000FF90EF90DF90CF90BF90AF909F908F90EA
:101E400008958F929F92AF92BF92CF92DF92EF92BE
:101E5000FF920F931F93CF93DF934B015C01042FED
:101E6000D22F0E94B4116B017C0181E0D11180E07E
:101E700080932602C0E010E00E94B411DC01CB0187
:101E80008C199D09AE09BF0988159905AA05BB05DE
:101E900090F4C11110C00E94F60EE0912502E77087
:101EA000F0E0E017F10741F7C1E0809126028D17BD
:101EB00019F3C0E0E1CF8C2FDF91CF911F910F91EB
:101EC000FF90EF90DF90CF90BF90AF909F908F905A
:101ED0000895EF920F931F93CF93DF93EC01162F8A
:101EE000E12C0FE023E04FEF0E94D6006EEA71E094
:101EF0000E9432088B81877080618B838C818F7107
:101F0000806C8C8381E08F831886CE010E94B70796
:101F100011110DC02FE043E060ED77E080E090E02C
:101F2000DF91CF911F910F91EF900C94210FDF91D2
:101F3000CF911F910F91EF900895EF920F93CF9350
:101F40008091FF0181608093FF01C4E0E12C0AE1F0
:101F500023E04FEF60E080E092E00E94D60062E074
:101F60000E94B5080E942F092BE143E060ED77E065
:101F700080E090E00E94210F811102C0C15031F732
:101F8000CF910F91EF9008958091FF0181FD09C0DD
:101F90000E94830C0E949D0F8091FF0182608093BC
:101FA000FF010895CF92EF92FF920F931F93582F46
:101FB000E62FC801B7013C2DC22EE42E0E2F252F8F
:101FC000432F0E94A70B1F910F91FF90EF90CF908E
:101FD0000895CF92DF92EF92FF920F931F93CF93CA
:101FE000DF93CDB7DEB7C055D1090FB6F894DEBF89
:101FF0000FBECDBF61E087E00E94AE1261E087E0D6
:102000000E94EA1240E065E070E080E090E00E940B
:10201000580C82E00E941A13182F809101011817A2
:1020200069F061E0113009F060E08DED91E00E940F
:10203000A90860E00E94CA091093010183E00E9490
:102040001A13182F80910001181769F061E0113000
:1020500009F060E08CEB91E00E94A90860E00E942A
:10206000CA091093000185E10E946812BC01990F12
:10207000880B990B0E949F162EE531E04EE85BE33A
:102080000E942B17062FF72EE82ED92E20E030E0E5
:1020900040E250E40E94881520E030E048EC52E431
:1020A0000E942B1728E939E949ED5FE30E94F515F5
:1020B00020E030E0A9010E9489150E946E16162FBB
:1020C000653608F014E61F921F93DF92EF92FF929D
:1020D0000F9385E491E09F938F93CE0101969F9398
:1020E0008F930E94471860E0812F0E94E20960E010
:1020F00087E00E94EA1260E087E00E94AE12C12CE5
:10210000E12CF12C870121E041E061E080E00E94B8
:10211000D20F0FB6F894DEBF0FBECDBFC05BDF4F4E
:102120000FB6F894DEBF0FBECDBFDF91CF911F91E8
:102130000F91FF90EF90DF90CF9008950E942A12A8
:102140000E94AD0EC9EEDFE000E813E10E94F60E3A
:10215000209711F00E94E90F01151105B9F30E94B3
:102160008013F4CFCF93CFB7F8948091710281118F
:1021700027C0EBE2F1E08491E7E1F1E09491E82FF0
:10218000F0E0EE0FFF1FE75BFE4FA591B491EC91DD
:10219000E92321F461E08AE00E94EA1261E08AE02A
:1021A0000E94AE128CB580618CBD8CB580648CBDF4
:1021B00061E08DE00E94AE1261E08BE00E94AE1201
:1021C000809171028F5F80937102CFBFCF9108958C
:1021D00008958230E8F4E82FF0E0EE0FFF1FEC5D89
:1021E000FE4F71836083813041F0809169008C7F64
:1021F000482B40936900E89A089580916900440F44
:10220000551F440F551F837F482B40936900E99A5F
:102210000895823078F4813011F0E89801C0E9988F
:10222000E82FF0E0EE0FFF1FEC5DFE4F88EE90E12F
:102230009183808308951F920F920FB60F921124FD
:102240002F933F934F935F936F937F938F939F93BE
:10225000AF93BF93EF93FF93E0912401F091250199
:102260000995FF91EF91BF91AF919F918F917F91D0
:102270006F915F914F913F912F910F900FBE0F90F3
:102280001F9018951F920F920FB60F9211242F9343
:102290003F934F935F936F937F938F939F93AF93EE
:1022A000BF93EF93FF93E0912601F09127010995E9
:1022B000FF91EF91BF91AF919F918F917F916F911E
:1022C0005F914F913F912F910F900FBE0F901F90F4
:1022D000189508951F920F920FB60F9211242F9305
:1022E0003F938F939F93AF93BF938091730290918D
:1022F0007402A0917502B09176023091720226E0CC
:10230000230F2D3720F40296A11DB11D05C029E829
:10231000230F0396A11DB11D2093720280937302B7
:1023200090937402A0937502B09376028091770225
:1023300090917802A0917902B0917A020196A11D44
:10234000B11D8093770290937802A0937902B093A5
:102350007A02BF91AF919F918F913F912F910F90F2
:102360000FBE0F901F9018952FB7F89460917302CD
:102370007091740280917502909176022FBF08953A
:102380003FB7F8948091770290917802A0917902FA
:10239000B0917A0226B5A89B05C02F3F19F001968F
:1023A000A11DB11D3FBFBA2FA92F982F8827820FDB
:1023B000911DA11DB11DBC01CD0143E0660F771F2A
:1023C000881F991F4A95D1F708958F929F92AF92D7
:1023D000BF92CF92DF92EF92FF926B017C010E943D
:1023E000C0114B015C01C114D104E104F10401F1FD
:1023F0000E9469110E94C011DC01CB018819990962
:10240000AA09BB09883E9340A105B10560F321E00C
:10241000C21AD108E108F10888EE880E83E0981E00
:10242000A11CB11CC114D104E104F10419F7DBCFE4
:10243000FF90EF90DF90CF90BF90AF909F908F90E4
:1024400008958330910528F0880F991F049701970C
:10245000F1F70895789484B5826084BD84B5816075
:1024600084BD85B5826085BD85B5816085BDEEE69C
:10247000F0E0808181608083E1E8F0E0108280817B
:1024800082608083808181608083E0E8F0E08081E9
:1024900081608083E1EBF0E0808184608083E0EB09
:1024A000F0E0808181608083EAE7F0E080818460F1
:1024B000808380818260808380818E7F8083808121
:1024C000806880831092C100089580932801089548
:1024D0008E3008F08E5087702091280190E4299F5B
:1024E00090011124822B80937C0080917A0080647B
:1024F00080937A0080917A0086FDFCCF80917800ED
:102500002091790090E0922B0895833081F028F497
:10251000813099F08230A1F008958730A9F0883099
:10252000B9F08430D1F4809180008F7D03C0809118
:1025300080008F7780938000089584B58F7702C0E4
:1025400084B58F7D84BD08958091B0008F7703C0DE
:102550008091B0008F7D8093B0000895CF93DF937A
:1025600090E0FC01E35FFE4F2491FC01EF5DFE4F24
:102570008491882361F190E0880F991FFC01E75B4B
:10258000FE4FC591D491FC01E15CFE4FA591B49141
:10259000611109C09FB7F8948881209582238883B0
:1025A000EC912E230BC0623061F49FB7F894388110
:1025B000822F809583238883EC912E2B2C939FBFB1
:1025C00006C08FB7F894E8812E2B28838FBFDF9148
:1025D000CF9108951F93CF93DF93282F30E0F90117
:1025E000E750FF4F8491F901E35FFE4FD491F90169
:1025F000EF5DFE4FC491CC23C9F0162F81110E94CC
:102600008512EC2FF0E0EE0FFF1FE15CFE4FA5916D
:10261000B4918FB7F894111105C09C91ED2FE095FE
:10262000E92302C0EC91ED2BEC938FBFDF91CF91AA
:102630001F910895CF93DF93282F30E0F901E750E1
:10264000FF4F8491F901E35FFE4FD491F901EF5DF3
:10265000FE4FC491CC2391F081110E948512EC2F82
:10266000F0E0EE0FFF1FEB5CFE4FA591B491EC91F3
:10267000ED2381E090E021F480E002C080E090E072
:10268000DF91CF910895FC01918D228D892F90E0EB
:10269000805C9F4F821B91098F7399270895FC01DD
:1026A000918D828D981731F0828DE80FF11D858D07
:1026B00090E008958FEF9FEF0895FC01918D828D3A
:1026C000981761F0828DDF01A80FB11D5D968C9186
:1026D000928D9F5F9F73928F90E008958FEF9FEF91
:1026E0000895FC01538D448D252F30E0842F90E018
:1026F000821B930B541710F0CF96089501970895FD
:1027000080ED94E1892B49F080E090E0892B29F05D
:102710000E94D01481110C9400000895FC01848D56
:10272000DF01A80FB11DA35ABF4F2C91848D90E0FB
:1027300001968F739927848FA689B7892C93A089D6
:10274000B1898C9180648C93938D848D981306C08D
:102750000288F389E02D80818F7D80830895CF9357
:10276000DF93EC01888D8823C9F0EA89FB89808199
:1027700085FD05C0A889B9898C9186FD0FC00FB66B
:1027800007FCF5CF808185FFF2CFA889B9898C91AC
:1027900085FFEDCFCE010E948E13E7CFDF91CF9161
:1027A0000895EF92FF920F931F93CF93DF93EC0165
:1027B00081E0888F9B8D8C8D981305C0E889F989FD
:1027C000808185FD24C0F62E0B8D10E00F5F1F4F1A
:1027D0000F731127E02E8C8DE8120CC00FB607FC8A
:1027E000FACFE889F989808185FFF5CFCE010E9473
:1027F0008E13F1CF8B8DFE01E80FF11DE35AFF4FD1
:10280000F0820B8FEA89FB898081806207C0EE89A4
:10281000FF896083E889F98980818064808381E011
:1028200090E0DF91CF911F910F91FF90EF9008956D
:10283000CF92DF92EF92FF921F93CF93DF93EC0141
:102840006A017B01122F60E874E88EE190E0A70135
:1028500096010E949817DA01C9010197A109B109EF
:10286000B695A79597958795AC01E889F98982E097
:102870008083411580E15807A8F0E889F989108222
:1028800060E472E48FE090E0A70196010E9498173F
:10289000BA01A901415051096109710976956795FD
:1028A00057954795EC85FD855083EE85FF854083E0
:1028B000188EEC89FD891083EA89FB89808180610B
:1028C0008083EA89FB89808188608083EA89FB892B
:1028D000808180688083EA89FB8980818F7D808305
:1028E000DF91CF911F91FF90EF90DF90CF900895EF
:1028F0001F920F920FB60F9211242F938F939F93D5
:10290000EF93FF93E0918B02F0918C028081E09134
:102910009102F091920282FD12C090818091940206
:102920008F5F8F7320919502821751F0E09194028E
:10293000F0E0E558FD4F958F8093940201C08081AF
:10294000FF91EF919F918F912F910F900FBE0F905C
:102950001F9018951F920F920FB60F9211242F936C
:102960003F934F935F936F937F938F939F93AF9317
:10297000BF93EF93FF938BE792E00E948E13FF913A
:10298000EF91BF91AF919F918F917F916F915F91E7
:102990004F913F912F910F900FBE0F901F90189560
:1029A0008BE792E00E94431321E0892B09F420E099
:1029B000822F0895EBE7F2E01382128288EE93E013
:1029C000A0E0B0E084839583A683B7838EE991E08D
:1029D0009183808385EC90E09587848784EC90E0F8
:1029E0009787868780EC90E0918B808B81EC90E0DC
:1029F000938B828B82EC90E0958B848B86EC90E0BD
:102A0000978B868B118E128E138E148E0895CF9213
:102A1000DF92EF92FF920F931F93CF93DF936C019E
:102A20007A018B01C0E0D0E0CE15DF0589F0D80136
:102A30006D918D01D601ED91FC910190F081E02D19
:102A4000C6010995892B11F47E0102C02196ECCFB5
:102A5000C701DF91CF911F910F91FF90EF90DF9011
:102A6000CF9008956115710579F0FB010190002068
:102A7000E9F73197AF01461B570BDC01ED91FC9153
:102A80000280F381E02D099480E090E00895EF92B8
:102A9000FF920F931F93CF93DF938C017B01C0E0D4
:102AA000D0E0F701EC0FFD1F6491662361F0D801BF
:102AB000ED91FC910190F081E02DC8010995892BE1
:102AC00011F02196EECFCE01DF91CF911F910F91A2
:102AD000FF90EF900895DC01ED91FC910190F08161
:102AE000E02D09946CEA71E00C9432150F931F935A
:102AF000CF93DF93EC010E9447158C01CE010E9419
:102B00007215800F911FDF91CF911F910F91089542
:102B10005058BB27AA270E94A0150C94F1160E94BA
:102B2000E31638F00E94EA1620F039F49F3F19F4BA
:102B300026F40C94E0160EF4E095E7FB0C94DA16FC
:102B4000E92F0E94021758F3BA1762077307840728
:102B5000950720F079F4A6F50C9424170EF4E0956F
:102B60000B2EBA2FA02D0B01B90190010C01CA0147
:102B7000A0011124FF27591B99F0593F50F4503EF2
:102B800068F11A16F040A22F232F342F4427585FE4
:102B9000F3CF469537952795A795F0405395C9F7FC
:102BA0007EF41F16BA0B620B730B840BBAF09150B4
:102BB000A1F0FF0FBB1F661F771F881FC2F70EC053
:102BC000BA0F621F731F841F48F487957795679526
:102BD000B795F7959E3F08F0B0CF9395880F08F012
:102BE0009927EE0F9795879508950E9409160C94E2
:102BF000F1160E94EA1658F00E94E31640F029F4FC
:102C00005F3F29F00C94DA1651110C9425170C949F
:102C1000E0160E94021768F39923B1F3552391F34C
:102C2000951B550BBB27AA2762177307840738F03B
:102C30009F5F5F4F220F331F441FAA1FA9F335D098
:102C40000E2E3AF0E0E832D091505040E695001C4C
:102C5000CAF72BD0FE2F29D0660F771F881FBB1F06
:102C6000261737074807AB07B0E809F0BB0B802DE4
:102C7000BF01FF2793585F4F3AF09E3F510578F010
:102C80000C94DA160C9425175F3FE4F3983ED4F3C6
:102C9000869577956795B795F7959F5FC9F7880FE4
:102CA000911D9695879597F90895E1E0660F771F36
:102CB000881FBB1F621773078407BA0720F0621BC7
:102CC000730B840BBA0BEE1F88F7E09508950E94F2
:102CD0006E166894B1110C94251708950E940A1776
:102CE00088F09F5798F0B92F9927B751B0F0E1F0CD
:102CF000660F771F881F991F1AF0BA95C9F714C07D
:102D0000B13091F00E942417B1E008950C9424177B
:102D1000672F782F8827B85F39F0B93FCCF38695B5
:102D200077956795B395D9F73EF490958095709512
:102D300061957F4F8F4F9F4F0895E89409C097FB8F
:102D40003EF490958095709561957F4F8F4F9F4F82
:102D50009923A9F0F92F96E9BB279395F6958795C6
:102D600077956795B795F111F8CFFAF4BB0F11F489
:102D700060FF1BC06F5F7F4F8F4F9F4F16C0882330
:102D800011F096E911C0772321F09EE8872F762F66
:102D900005C0662371F096E8862F70E060E02AF0A7
:102DA0009A95660F771F881FDAF7880F9695879593
:102DB00097F9089597F99F6780E870E060E00895BB
:102DC0009FEF80EC089500240A9416161706180643
:102DD0000906089500240A9412161306140605061F
:102DE0000895092E0394000C11F4882352F0BB0FB0
:102DF00040F4BF2B11F460FF04C06F5F7F4F8F4F13
:102E00009F4F089557FD9058440F551F59F05F3F4D
:102E100071F04795880F97FB991F61F09F3F79F0FC
:102E200087950895121613061406551FF2CF46957E
:102E3000F1DF08C0161617061806991FF1CF869500
:102E40007105610508940895E894BB2766277727E4
:102E5000CB0197F908950E943E170C94F1160E9439
:102E6000E31638F00E94EA1620F0952311F00C9436
:102E7000DA160C94E01611240C9425170E94021700
:102E800070F3959FC1F3950F50E0551F629FF001BD
:102E9000729FBB27F00DB11D639FAA27F00DB11DD6
:102EA000AA1F649F6627B00DA11D661F829F22275F
:102EB000B00DA11D621F739FB00DA11D621F839FE6
:102EC000A00D611D221F749F3327A00D611D231FBC
:102ED000849F600D211D822F762F6A2F11249F570A
:102EE00050409AF0F1F088234AF0EE0FFF1FBB1F0D
:102EF000661F771F881F91505040A9F79E3F5105CC
:102F000080F00C94DA160C9425175F3FE4F3983E9A
:102F1000D4F3869577956795B795F795E7959F5F75
:102F2000C1F7FE2B880F911D9695879597F9089507
:102F3000A1E21A2EAA1BBB1BFD010DC0AA1FBB1FBD
:102F4000EE1FFF1FA217B307E407F50720F0A21B2F
:102F5000B30BE40BF50B661F771F881F991F1A949C
:102F600069F760957095809590959B01AC01BD01C6
:102F7000CF010895EE0FFF1F0590F491E02D099405
:102F8000FC0188279927E89421912032E9F3293020
:102F900010F02E30C8F32B3241F02D3239F4689402
:102FA00004C00E943F18820F911D219120532A30A6
:102FB000C0F31EF4909581959F4F08951F93FC01D7
:102FC00099278827BC01E89411911032E9F3193050
:102FD00010F01E30C8F31B3251F01D3249F46894D2
:102FE00006C00E942A18610F711D811D911D11914B
:102FF00010531A30B0F33EF490958095709561951A
:103000007F4F8F4F9F4F1F910895FB01DC0104C03C
:103010008D910190801921F441505040C8F7881BD0
:10302000990B0895FB01DC0102C001900D92415003
:103030005040D8F70895FB01DC014150504048F062
:1030400001900D920020C9F701C01D9241505040DF
:10305000E0F70895592F482F372F262F660F771F37
:10306000881F991F660F771F881F991F620F731F94
:10307000841F951F660F771F881F991F08957AE098
:10308000979F902D879F802D910D11240895AEE07C
:10309000B0E0EDE4F8E10C94281B0D891E8986E070
:1030A0008C831A8309838FEF9FE79E838D83AE0104
:1030B000475E5F4F6F89788DCE0101960E946A1836
:1030C0002F813885F801E20FF31F10822E96E4E07D
:1030D0000C94441BACE0B0E0E0E7F8E10C941A1B60
:1030E0007C016B018A01FC0117821682838181FFBA
:1030F000BDC1CE0101964C01F7019381F60193FD0C
:10310000859193FF81916F01882309F4ABC18532CA
:1031100039F493FD859193FF81916F01853229F4F4
:10312000B70190E00E94521AE7CF512C312C20E0D9
:103130002032A0F48B3269F030F4803259F08332BF
:1031400069F420612CC08D3239F0803339F421606C
:1031500026C02260246023C0286021C027FD27C02C
:1031600030ED380F3A3078F426FF06C0FAE05F9E63
:10317000300D1124532E13C08AE0389E300D1124D7
:10318000332E20620CC08E3221F426FD6BC12064E8
:1031900006C08C3611F4206802C0883641F4F6016E
:1031A00093FD859193FF81916F018111C1CF982F7C
:1031B0009F7D9554933028F40C5F1F4FFFE3F983F4
:1031C0000DC0833631F0833771F0833509F05BC071
:1031D00022C0F801808189830E5F1F4F44244394ED
:1031E000512C540115C03801F2E06F0E711CF8012A
:1031F000A080B18026FF03C0652D70E002C06FEF94
:103200007FEFC5012C870E94471A2C0183012C8572
:103210002F77222E17C03801F2E06F0E711CF801D3
:10322000A080B18026FF03C0652D70E002C06FEF63
:103230007FEFC5012C870E943C1A2C012C85206849
:10324000222E830123FC1BC0832D90E048165906D3
:10325000B0F4B70180E290E00E94521A3A94F4CFA1
:10326000F50127FC859127FE81915F01B70190E070
:103270000E94521A31103A94F1E04F1A5108411449
:10328000510471F7E5C0843611F0893639F5F8013B
:1032900027FF07C060817181828193810C5F1F4F7E
:1032A00008C060817181072E000C880B990B0E5F9E
:1032B0001F4F2F76722E97FF09C0909580957095BD
:1032C00061957F4F8F4F9F4F2068722E2AE030E02C
:1032D000A4010E948A1AA82EA81844C0853729F490
:1032E0002F7EB22E2AE030E025C0F22FF97FBF2ECC
:1032F0008F36C1F018F4883579F0B4C0803719F0F2
:10330000883721F0AFC02F2F2061B22EB4FE0DC040
:103310008B2D8460B82E09C024FF0AC09F2F9660B1
:10332000B92E06C028E030E005C020E130E002C040
:1033300020E132E0F801B7FE07C06081718182812F
:1033400093810C5F1F4F06C06081718180E090E027
:103350000E5F1F4FA4010E948A1AA82EA818FB2DE9
:10336000FF777F2E76FE0BC0372D3E7FA51450F4DD
:1033700074FE0AC072FC08C0372D3E7E05C0BA2C10
:10338000372D03C0BA2C01C0B52C34FF0DC0FE018F
:10339000EA0DF11D8081803311F4397E09C032FFBE
:1033A00006C0B394B39404C0832F867809F0B39415
:1033B00033FD13C030FF06C05A2CB31418F4530C5D
:1033C0005B18B32CB31468F4B70180E290E03C873B
:1033D0000E94521AB3943C85F5CFB31410F43B18F5
:1033E00001C0312C34FF12C0B70180E390E03C876C
:1033F0000E94521A3C8532FF17C031FD03C088E796
:1034000090E002C088E590E0B7010CC0832F867879
:1034100059F031FF02C08BE201C080E237FD8DE23E
:10342000B70190E00E94521AA51438F4B70180E366
:1034300090E00E94521A5A94F7CFAA94F401EA0D30
:10344000F11D8081B70190E00E94521AA110F5CFC2
:10345000332009F451CEB70180E290E00E94521A65
:103460003A94F6CFF7018681978102C08FEF9FEFE4
:103470002C96E2E10C94361BFC01059061507040E3
:103480000110D8F7809590958E0F9F1F0895FC012D
:103490006150704001900110D8F7809590958E0F83
:1034A0009F1F08950F931F93CF93DF93FB012381F9
:1034B00021FD03C08FEF9FEF28C022FF16C0468179
:1034C0005781248135814217530744F4A081B1818B
:1034D0009D012F5F3F4F318320838C93268137815D
:1034E0002F5F3F4F3783268310C0EB01092F182F22
:1034F0000084F185E02D0995892BE1F68E819F816D
:1035000001969F838E83812F902FDF91CF911F9102
:103510000F910895FA01AA27283051F1203181F145
:10352000E8946F936E7F6E5F7F4F8F4F9F4FAF4FCB
:10353000B1E03ED0B4E03CD0670F781F891F9A1FDE
:10354000A11D680F791F8A1F911DA11D6A0F711D92
:10355000811D911DA11D20D009F468943F912AE09E
:10356000269F11243019305D3193DEF6CF01089586
:10357000462F4770405D4193B3E00FD0C9F7F6CFB7
:10358000462F4F70405D4A3318F0495D31FD40527F
:10359000419302D0A9F7EACFB4E0A6959795879515
:1035A00077956795BA95C9F70097610571050895F4
:1035B0009B01AC010A2E06945795479537952795A0
:1035C000BA95C9F7620F731F841F951FA01D089538
:1035D000DC01CB01FC01F999FECF06C0F2BDE1BDD3
:1035E000F89A319600B40D9241505040B8F70895C2
:1035F000DC01A40FB51F4150504048F0CB01840FAF
:10360000951F2E910E94091B41505040D0F70895FC
:10361000262FF999FECF92BD81BDF89A019700B48B
:10362000021639F01FBA20BD0FB6F894FA9AF99A2B
:103630000FBE08952F923F924F925F926F927F92AA
:103640008F929F92AF92BF92CF92DF92EF92FF92B2
:103650000F931F93CF93DF93CDB7DEB7CA1BDB0B5E
:103660000FB6F894DEBF0FBECDBF09942A88398803
:1036700048885F846E847D848C849B84AA84B9840A
:10368000C884DF80EE80FD800C811B81AA81B98116
:10369000CE0FD11D0FB6F894DEBF0FBECDBFED012A
:0636A0000895F894FFCF2D
:1036A6000202FFF4017706F000DD05C10836068543
:1036B600081C066708FA052201C906FF00FCE1A8F6
:1036C600A8FFFFFFE810E81001322E322E302D62DF
:1036D60065746100322E30004D79534C69706F204D
:1036E60072656564004261747465727920766F6CE8
:1036F600746167653A20252E3266560A42617474F3
:103706006572792070657263656E746167653A20CB
:10371600256925250A00050700020406070707078D
:103726000707070707070707070707070707070723
:103736000707070707070707010300000000D11363
:1037460007157113AF1343135D134F130D0A006E64
:0C375600616E00696E66006F7666000010
:107C00001F92CDB7DEB7112484B714BE81FD06C024
:107C100083FF03C08983F4D08981E3D185E0809319
:107C2000810082E08093C00088E18093C10096E0EB
:107C30009093C20090E19093C400809360008EE026
:107C4000809360003B9A86E028E13EEF91E030931C
:107C500085002093840096BBB09BFECF339AA895F5
:107C60008150A9F7612C712C08E128E0F22EEE2456
:107C7000E39435E0D32E41E1C42E13E08BD181345F
:107C800069F488D1898394D189818238F9F0813867
:107C900011F485E001C083E076D17BC0823411F419
:107CA00084E103C0853419F485E08ED172C0853536
:107CB00049F470D1B82E6ED16B2C712C782A660CD9
:107CC000771C66C0863521F484E07ED180E0E4CF65
:107CD000843609F03FC05ED15DD1982E5BD161142E
:107CE00080E7780618F4F30117BFE895A12CBB24B0
:107CF000B39450D1F50181935F019E12FACF6114C4
:107D0000F0E77F0618F0F30117BFE89551D107B6E9
:107D100000FCFDCFA301A0E0B1E08C9112969D0183
:107D200021503109F901208190E0922BFA010C01D8
:107D3000E7BEE89511244E5F5F4FA038F1E0BF0722
:107D400061F7F301D7BEE89507B600FCFDCFC7BECB
:107D5000E8951FC0843769F41DD11CD1B82E1AD103
:107D600027D1F30185913F010ED1BA94B110F9CF1B
:107D700010C0853739F41CD18EE105D185E903D1D6
:107D80008FE08ACF813521F400936000F09260008B
:107D90000FD180E1F8D072CF8EBD0DB407FEFDCFBC
:107DA0008EB50895289885E0F7DF80E0F5DF289A02
:107DB00081700895CF93C82F662321F060E086E09C
:107DC000F9DF289AEFDF8111FDCF28988C2FCF9112
:107DD000E3CFCF92DF92EF92FF926B017C0160E0E4
:107DE00083E0E8DF8E2DD8DF8D2DD6DF8C2DD4DF1C
:107DF00080E0D2DF289AFF90EF90DF90CF90089537
:107E00009F92AF92BF92CF92DF92EF92FF920F9329
:107E10001F93CF93DF9388E18093600010926000FE
:107E200084B18D6284B9289A2A9A8CB580658CBDFC
:107E300028988FE9B1DF80E0AFDF289A81508E3F2C
:107E400008F095C061E081E0B5DF80E0A5DF289A09
:107E500060E070E0CB01BDDF863409F088C061E0EE
:107E600070E080E090E0B5DF8C3409F080C062E023
:107E700070E080E090E0ADDF883509F078C066E022
:107E800070E080E090E0A5DF8A3309F070C069E01F
:107E900070E080E090E09DDF8A3309F068C067E021
:107EA00070E080E090E095DFC82F68E070E080E04F
:107EB00090E08FDFD0E0DC2FCC27C82BC0FD57C06F
:107EC000339AC12CD12C00E010E0BB24B39483E0A2
:107ED000A82E95E0992E0C171D0770F5B801665F66
:107EE0007F4F80E090E075DFE82EF12CB801655FF0
:107EF0007F4F80E090E06DDFF82AF8010701B7BE00
:107F0000E89511240E5F1F4FC8018F779927892BA1
:107F100019F00C171D07F9F6F601A7BEE89507B68C
:107F200000FCFDCFF60197BEE89507B600FCFDCF3B
:107F3000F0E8CF0ED11CCFCF339881E187BFE89511
:107F40002A9661E0C130D04810F482E501C088ED86
:107F500031DF80E021DF80E01FDF80E01DDF289A35
:107F600088E18093600088E080936000FFCFDF911C
:107F7000CF911F910F91FF90EF90DF90CF90BF9026
:107F8000AF909F9008959091C00095FFFCCF809393
:107F9000C6000895339A8091C00087FFFCCF80917E
:107FA000C00084FD01C0A8958091C600339A089551
:107FB000F1DF803239F088E18093600088E08093BF
:107FC0006000FFCF84E1DFCFCF93C82FE3DFC15044
:107FD000E9F7CF91EDCFE0E6F0E098E19083808380
:107FE0000895282EE0E6F0E088E180831082EE27F5
:047FF000FF270994CA
:027FFE0000057C
:0400000300007C007D
:00000001FF
